{
  "_format": "hh-sol-artifact-1",
  "contractName": "LendPool",
  "sourceName": "contracts/LendPool.sol",
  "abi": [
    {
      "inputs": [
        {
          "internalType": "contract IERC20",
          "name": "_maticContractAddress",
          "type": "address"
        }
      ],
      "stateMutability": "nonpayable",
      "type": "constructor"
    },
    {
      "inputs": [
        {
          "internalType": "string",
          "name": "",
          "type": "string"
        }
      ],
      "name": "amountExceeded",
      "type": "error"
    },
    {
      "inputs": [
        {
          "internalType": "string",
          "name": "",
          "type": "string"
        }
      ],
      "name": "mustApprove",
      "type": "error"
    },
    {
      "inputs": [
        {
          "internalType": "string",
          "name": "",
          "type": "string"
        }
      ],
      "name": "mustApproved",
      "type": "error"
    },
    {
      "anonymous": false,
      "inputs": [
        {
          "indexed": true,
          "internalType": "address",
          "name": "owner",
          "type": "address"
        },
        {
          "indexed": true,
          "internalType": "address",
          "name": "spender",
          "type": "address"
        },
        {
          "indexed": false,
          "internalType": "uint256",
          "name": "value",
          "type": "uint256"
        }
      ],
      "name": "Approval",
      "type": "event"
    },
    {
      "anonymous": false,
      "inputs": [
        {
          "indexed": false,
          "internalType": "uint256",
          "name": "_amountToBorrow",
          "type": "uint256"
        },
        {
          "indexed": false,
          "internalType": "uint256",
          "name": "_loanCompleteTime",
          "type": "uint256"
        },
        {
          "indexed": false,
          "internalType": "uint256",
          "name": "_amountToRepay",
          "type": "uint256"
        },
        {
          "indexed": false,
          "internalType": "uint256",
          "name": "_tokenId",
          "type": "uint256"
        }
      ],
      "name": "Borrow",
      "type": "event"
    },
    {
      "anonymous": false,
      "inputs": [
        {
          "indexed": true,
          "internalType": "address",
          "name": "previousOwner",
          "type": "address"
        },
        {
          "indexed": true,
          "internalType": "address",
          "name": "newOwner",
          "type": "address"
        }
      ],
      "name": "OwnershipTransferred",
      "type": "event"
    },
    {
      "anonymous": false,
      "inputs": [
        {
          "indexed": true,
          "internalType": "address",
          "name": "from",
          "type": "address"
        },
        {
          "indexed": true,
          "internalType": "address",
          "name": "to",
          "type": "address"
        },
        {
          "indexed": false,
          "internalType": "uint256",
          "name": "value",
          "type": "uint256"
        }
      ],
      "name": "Transfer",
      "type": "event"
    },
    {
      "inputs": [],
      "name": "FACTOR",
      "outputs": [
        {
          "internalType": "uint256",
          "name": "",
          "type": "uint256"
        }
      ],
      "stateMutability": "view",
      "type": "function"
    },
    {
      "inputs": [
        {
          "internalType": "address",
          "name": "",
          "type": "address"
        }
      ],
      "name": "Loans",
      "outputs": [
        {
          "internalType": "contract IERC721",
          "name": "tokenAddress",
          "type": "address"
        },
        {
          "internalType": "uint256",
          "name": "tokenId",
          "type": "uint256"
        },
        {
          "internalType": "uint256",
          "name": "loanAmount",
          "type": "uint256"
        },
        {
          "internalType": "uint256",
          "name": "loanCompleteTime",
          "type": "uint256"
        },
        {
          "internalType": "uint256",
          "name": "amountToRepay",
          "type": "uint256"
        },
        {
          "internalType": "uint256",
          "name": "timeOfLoan",
          "type": "uint256"
        },
        {
          "internalType": "bool",
          "name": "_onLoan",
          "type": "bool"
        }
      ],
      "stateMutability": "view",
      "type": "function"
    },
    {
      "inputs": [],
      "name": "TokenDecimals",
      "outputs": [
        {
          "internalType": "uint8",
          "name": "",
          "type": "uint8"
        }
      ],
      "stateMutability": "view",
      "type": "function"
    },
    {
      "inputs": [],
      "name": "TokenName",
      "outputs": [
        {
          "internalType": "string",
          "name": "",
          "type": "string"
        }
      ],
      "stateMutability": "view",
      "type": "function"
    },
    {
      "inputs": [],
      "name": "TokenSymbol",
      "outputs": [
        {
          "internalType": "string",
          "name": "",
          "type": "string"
        }
      ],
      "stateMutability": "view",
      "type": "function"
    },
    {
      "inputs": [
        {
          "internalType": "contract AggregatorV3Interface",
          "name": "nftFloorPriceFeed",
          "type": "address"
        }
      ],
      "name": "_amountLoanable",
      "outputs": [
        {
          "internalType": "uint256",
          "name": "loanable",
          "type": "uint256"
        }
      ],
      "stateMutability": "view",
      "type": "function"
    },
    {
      "inputs": [
        {
          "internalType": "address",
          "name": "_nftContractAddress",
          "type": "address"
        }
      ],
      "name": "activeCollection",
      "outputs": [
        {
          "internalType": "uint256",
          "name": "",
          "type": "uint256"
        }
      ],
      "stateMutability": "view",
      "type": "function"
    },
    {
      "inputs": [
        {
          "internalType": "address",
          "name": "owner",
          "type": "address"
        },
        {
          "internalType": "address",
          "name": "spender",
          "type": "address"
        }
      ],
      "name": "allowance",
      "outputs": [
        {
          "internalType": "uint256",
          "name": "",
          "type": "uint256"
        }
      ],
      "stateMutability": "view",
      "type": "function"
    },
    {
      "inputs": [],
      "name": "amountForLiquidity",
      "outputs": [
        {
          "internalType": "uint256",
          "name": "",
          "type": "uint256"
        }
      ],
      "stateMutability": "view",
      "type": "function"
    },
    {
      "inputs": [
        {
          "internalType": "address",
          "name": "spender",
          "type": "address"
        },
        {
          "internalType": "uint256",
          "name": "amount",
          "type": "uint256"
        }
      ],
      "name": "approve",
      "outputs": [
        {
          "internalType": "bool",
          "name": "",
          "type": "bool"
        }
      ],
      "stateMutability": "nonpayable",
      "type": "function"
    },
    {
      "inputs": [
        {
          "internalType": "contract IERC721",
          "name": "_nftContractAddress",
          "type": "address"
        }
      ],
      "name": "availableToBorrow",
      "outputs": [
        {
          "internalType": "uint256",
          "name": "loanable",
          "type": "uint256"
        }
      ],
      "stateMutability": "view",
      "type": "function"
    },
    {
      "inputs": [
        {
          "internalType": "address",
          "name": "account",
          "type": "address"
        }
      ],
      "name": "balanceOf",
      "outputs": [
        {
          "internalType": "uint256",
          "name": "",
          "type": "uint256"
        }
      ],
      "stateMutability": "view",
      "type": "function"
    },
    {
      "inputs": [
        {
          "internalType": "address",
          "name": "_addr",
          "type": "address"
        }
      ],
      "name": "balanceOfBMatic",
      "outputs": [
        {
          "internalType": "uint256",
          "name": "",
          "type": "uint256"
        }
      ],
      "stateMutability": "view",
      "type": "function"
    },
    {
      "inputs": [
        {
          "internalType": "contract IERC721",
          "name": "_tokenAddress",
          "type": "address"
        },
        {
          "internalType": "uint256",
          "name": "_tokenId",
          "type": "uint256"
        },
        {
          "internalType": "uint256",
          "name": "_loanCompleteTime",
          "type": "uint256"
        },
        {
          "internalType": "uint256",
          "name": "_amountToBorrow",
          "type": "uint256"
        }
      ],
      "name": "borrowLoan",
      "outputs": [],
      "stateMutability": "nonpayable",
      "type": "function"
    },
    {
      "inputs": [],
      "name": "decimals",
      "outputs": [
        {
          "internalType": "uint8",
          "name": "",
          "type": "uint8"
        }
      ],
      "stateMutability": "view",
      "type": "function"
    },
    {
      "inputs": [
        {
          "internalType": "address",
          "name": "spender",
          "type": "address"
        },
        {
          "internalType": "uint256",
          "name": "subtractedValue",
          "type": "uint256"
        }
      ],
      "name": "decreaseAllowance",
      "outputs": [
        {
          "internalType": "bool",
          "name": "",
          "type": "bool"
        }
      ],
      "stateMutability": "nonpayable",
      "type": "function"
    },
    {
      "inputs": [
        {
          "internalType": "uint256",
          "name": "_amount",
          "type": "uint256"
        },
        {
          "internalType": "address",
          "name": "_depositor",
          "type": "address"
        }
      ],
      "name": "deposit",
      "outputs": [],
      "stateMutability": "nonpayable",
      "type": "function"
    },
    {
      "inputs": [
        {
          "internalType": "address",
          "name": "account",
          "type": "address"
        },
        {
          "internalType": "uint256",
          "name": "amount",
          "type": "uint256"
        }
      ],
      "name": "depositFor",
      "outputs": [
        {
          "internalType": "bool",
          "name": "",
          "type": "bool"
        }
      ],
      "stateMutability": "nonpayable",
      "type": "function"
    },
    {
      "inputs": [],
      "name": "getSupportedNFT",
      "outputs": [
        {
          "internalType": "contract IERC721[]",
          "name": "",
          "type": "address[]"
        }
      ],
      "stateMutability": "view",
      "type": "function"
    },
    {
      "inputs": [
        {
          "internalType": "address",
          "name": "spender",
          "type": "address"
        },
        {
          "internalType": "uint256",
          "name": "addedValue",
          "type": "uint256"
        }
      ],
      "name": "increaseAllowance",
      "outputs": [
        {
          "internalType": "bool",
          "name": "",
          "type": "bool"
        }
      ],
      "stateMutability": "nonpayable",
      "type": "function"
    },
    {
      "inputs": [],
      "name": "interestRate",
      "outputs": [
        {
          "internalType": "uint40",
          "name": "",
          "type": "uint40"
        }
      ],
      "stateMutability": "view",
      "type": "function"
    },
    {
      "inputs": [],
      "name": "maticContractAddress",
      "outputs": [
        {
          "internalType": "contract IERC20",
          "name": "",
          "type": "address"
        }
      ],
      "stateMutability": "view",
      "type": "function"
    },
    {
      "inputs": [],
      "name": "minRate",
      "outputs": [
        {
          "internalType": "uint256",
          "name": "",
          "type": "uint256"
        }
      ],
      "stateMutability": "view",
      "type": "function"
    },
    {
      "inputs": [
        {
          "internalType": "address",
          "name": "_receiver",
          "type": "address"
        },
        {
          "internalType": "address",
          "name": "_tokenContractAddress",
          "type": "address"
        },
        {
          "internalType": "uint256",
          "name": "_amount",
          "type": "uint256"
        }
      ],
      "name": "movingGeneric",
      "outputs": [],
      "stateMutability": "nonpayable",
      "type": "function"
    },
    {
      "inputs": [],
      "name": "name",
      "outputs": [
        {
          "internalType": "string",
          "name": "",
          "type": "string"
        }
      ],
      "stateMutability": "view",
      "type": "function"
    },
    {
      "inputs": [],
      "name": "owner",
      "outputs": [
        {
          "internalType": "address",
          "name": "",
          "type": "address"
        }
      ],
      "stateMutability": "view",
      "type": "function"
    },
    {
      "inputs": [],
      "name": "renounceOwnership",
      "outputs": [],
      "stateMutability": "nonpayable",
      "type": "function"
    },
    {
      "inputs": [],
      "name": "repayLoan",
      "outputs": [],
      "stateMutability": "nonpayable",
      "type": "function"
    },
    {
      "inputs": [
        {
          "internalType": "contract IERC721",
          "name": "",
          "type": "address"
        }
      ],
      "name": "setFloorPrice",
      "outputs": [
        {
          "internalType": "uint256",
          "name": "",
          "type": "uint256"
        }
      ],
      "stateMutability": "view",
      "type": "function"
    },
    {
      "inputs": [
        {
          "internalType": "uint40",
          "name": "_interestRate",
          "type": "uint40"
        },
        {
          "internalType": "uint256",
          "name": "_factor",
          "type": "uint256"
        }
      ],
      "name": "setInterestRate",
      "outputs": [],
      "stateMutability": "nonpayable",
      "type": "function"
    },
    {
      "inputs": [
        {
          "internalType": "contract IERC721",
          "name": "_nftContractAddress",
          "type": "address"
        },
        {
          "internalType": "uint256",
          "name": "_amount",
          "type": "uint256"
        }
      ],
      "name": "setNFTFloorPrice",
      "outputs": [],
      "stateMutability": "nonpayable",
      "type": "function"
    },
    {
      "inputs": [
        {
          "internalType": "contract IERC721",
          "name": "_NFTAddress",
          "type": "address"
        }
      ],
      "name": "setSupportedNFT",
      "outputs": [],
      "stateMutability": "nonpayable",
      "type": "function"
    },
    {
      "inputs": [],
      "name": "symbol",
      "outputs": [
        {
          "internalType": "string",
          "name": "",
          "type": "string"
        }
      ],
      "stateMutability": "view",
      "type": "function"
    },
    {
      "inputs": [],
      "name": "totalAmountBorrowed",
      "outputs": [
        {
          "internalType": "uint256",
          "name": "",
          "type": "uint256"
        }
      ],
      "stateMutability": "view",
      "type": "function"
    },
    {
      "inputs": [],
      "name": "totalSupply",
      "outputs": [
        {
          "internalType": "uint256",
          "name": "",
          "type": "uint256"
        }
      ],
      "stateMutability": "view",
      "type": "function"
    },
    {
      "inputs": [
        {
          "internalType": "address",
          "name": "to",
          "type": "address"
        },
        {
          "internalType": "uint256",
          "name": "amount",
          "type": "uint256"
        }
      ],
      "name": "transfer",
      "outputs": [
        {
          "internalType": "bool",
          "name": "",
          "type": "bool"
        }
      ],
      "stateMutability": "nonpayable",
      "type": "function"
    },
    {
      "inputs": [
        {
          "internalType": "address",
          "name": "from",
          "type": "address"
        },
        {
          "internalType": "address",
          "name": "to",
          "type": "address"
        },
        {
          "internalType": "uint256",
          "name": "amount",
          "type": "uint256"
        }
      ],
      "name": "transferFrom",
      "outputs": [
        {
          "internalType": "bool",
          "name": "",
          "type": "bool"
        }
      ],
      "stateMutability": "nonpayable",
      "type": "function"
    },
    {
      "inputs": [
        {
          "internalType": "address",
          "name": "newOwner",
          "type": "address"
        }
      ],
      "name": "transferOwnership",
      "outputs": [],
      "stateMutability": "nonpayable",
      "type": "function"
    },
    {
      "inputs": [],
      "name": "underlying",
      "outputs": [
        {
          "internalType": "contract IERC20",
          "name": "",
          "type": "address"
        }
      ],
      "stateMutability": "view",
      "type": "function"
    },
    {
      "inputs": [
        {
          "internalType": "address",
          "name": "_newAdmin",
          "type": "address"
        }
      ],
      "name": "updateAdmin",
      "outputs": [],
      "stateMutability": "nonpayable",
      "type": "function"
    },
    {
      "inputs": [],
      "name": "valueInReserve",
      "outputs": [
        {
          "internalType": "uint256",
          "name": "",
          "type": "uint256"
        }
      ],
      "stateMutability": "view",
      "type": "function"
    },
    {
      "inputs": [
        {
          "internalType": "uint256",
          "name": "_amount",
          "type": "uint256"
        },
        {
          "internalType": "address",
          "name": "_depositor",
          "type": "address"
        }
      ],
      "name": "withdraw",
      "outputs": [],
      "stateMutability": "nonpayable",
      "type": "function"
    },
    {
      "inputs": [
        {
          "internalType": "address",
          "name": "account",
          "type": "address"
        },
        {
          "internalType": "uint256",
          "name": "amount",
          "type": "uint256"
        }
      ],
      "name": "withdrawTo",
      "outputs": [
        {
          "internalType": "bool",
          "name": "",
          "type": "bool"
        }
      ],
      "stateMutability": "nonpayable",
      "type": "function"
    }
  ],
  "bytecode": "0x60c060405260326008553480156200001657600080fd5b50604051620048c2380380620048c283398181016040528101906200003c9190620003c0565b80816040518060400160405280600d81526020017f4465706f736974204d61746963000000000000000000000000000000000000008152506040518060400160405280600681526020017f444d6174696300000000000000000000000000000000000000000000000000008152508160039080519060200190620000c292919062000292565b508060049080519060200190620000db92919062000292565b5050508073ffffffffffffffffffffffffffffffffffffffff1660808173ffffffffffffffffffffffffffffffffffffffff1681525050506200013362000127620001c460201b60201c565b620001cc60201b60201c565b8073ffffffffffffffffffffffffffffffffffffffff1660a08173ffffffffffffffffffffffffffffffffffffffff16815250505073d4a33860578de61dbabdc8bfdb98fd742fa7028e600760006101000a81548173ffffffffffffffffffffffffffffffffffffffff021916908373ffffffffffffffffffffffffffffffffffffffff1602179055505062000457565b600033905090565b6000600560009054906101000a900473ffffffffffffffffffffffffffffffffffffffff16905081600560006101000a81548173ffffffffffffffffffffffffffffffffffffffff021916908373ffffffffffffffffffffffffffffffffffffffff1602179055508173ffffffffffffffffffffffffffffffffffffffff168173ffffffffffffffffffffffffffffffffffffffff167f8be0079c531659141344cd1fd0a4f28419497f9722a3daafe3b4186f6b6457e060405160405180910390a35050565b828054620002a09062000421565b90600052602060002090601f016020900481019282620002c4576000855562000310565b82601f10620002df57805160ff191683800117855562000310565b8280016001018555821562000310579182015b828111156200030f578251825591602001919060010190620002f2565b5b5090506200031f919062000323565b5090565b5b808211156200033e57600081600090555060010162000324565b5090565b600080fd5b600073ffffffffffffffffffffffffffffffffffffffff82169050919050565b6000620003748262000347565b9050919050565b6000620003888262000367565b9050919050565b6200039a816200037b565b8114620003a657600080fd5b50565b600081519050620003ba816200038f565b92915050565b600060208284031215620003d957620003d862000342565b5b6000620003e984828501620003a9565b91505092915050565b7f4e487b7100000000000000000000000000000000000000000000000000000000600052602260045260246000fd5b600060028204905060018216806200043a57607f821691505b60208210811415620004515762000450620003f2565b5b50919050565b60805160a05161441b620004a760003960008181610e68015281816112b501528181612472015261255e0152600081816109fe01528181610acb01528181610b110152610cd9015261441b6000f3fe608060405234801561001057600080fd5b50600436106102675760003560e01c8063735b191511610151578063b6d7855a116100c3578063e5130a2911610087578063e5130a2914610790578063f27cb270146107c0578063f2fde38b146107f0578063f317dba51461080c578063f8a4cb4114610828578063f966ade71461084657610267565b8063b6d7855a146106d8578063d08ad873146106f6578063db555a9214610726578063dd62ed3e14610744578063e2f273bd1461077457610267565b80639cd7756f116101155780639cd7756f146105ea578063a40e3c9d14610608578063a457c2d714610626578063a9059cbb14610656578063a925e4a414610686578063ab600f1a146106bc57610267565b8063735b1915146105565780637c3a00fd146105745780638da5cb5b1461059257806394784ebb146105b057806395d89b41146105cc57610267565b80632c38199e116101ea5780633f890e00116101ae5780633f890e001461049657806345bcfbee146104c65780636e553f65146104e25780636f307dc3146104fe57806370a082311461051c578063715018a61461054c57610267565b80632c38199e146103ca5780632f4f21e2146103fa578063313ce5671461042a57806335815b9514610448578063395093511461046657610267565b8063095ea7b311610231578063095ea7b3146102fe5780630cb604431461032e57806318160ddd1461034c578063205c28781461036a57806323b872dd1461039a57610267565b8062c8fbd41461026c578062f714ce1461028a57806304a158f6146102a657806306fdde03146102c25780630910d1b0146102e0575b600080fd5b610274610850565b6040516102819190612b66565b60405180910390f35b6102a4600480360381019061029f9190612c21565b610889565b005b6102c060048036038101906102bb9190612c9f565b610897565b005b6102ca61091c565b6040516102d79190612b66565b60405180910390f35b6102e86109ae565b6040516102f59190612ce8565b60405180910390f35b61031860048036038101906103139190612d03565b6109b3565b6040516103259190612d5e565b60405180910390f35b6103366109d6565b6040516103439190612d88565b60405180910390f35b6103546109dc565b6040516103619190612d88565b60405180910390f35b610384600480360381019061037f9190612d03565b6109e6565b6040516103919190612d5e565b60405180910390f35b6103b460048036038101906103af9190612da3565b610a2e565b6040516103c19190612d5e565b60405180910390f35b6103e460048036038101906103df9190612c9f565b610a5d565b6040516103f19190612d88565b60405180910390f35b610414600480360381019061040f9190612d03565b610ac4565b6040516104219190612d5e565b60405180910390f35b610432610b0d565b60405161043f9190612ce8565b60405180910390f35b610450610bc1565b60405161045d9190612d88565b60405180910390f35b610480600480360381019061047b9190612d03565b610bc7565b60405161048d9190612d5e565b60405180910390f35b6104b060048036038101906104ab9190612e34565b610bfe565b6040516104bd9190612d88565b60405180910390f35b6104e060048036038101906104db9190612da3565b610c2e565b005b6104fc60048036038101906104f79190612c21565b610cc9565b005b610506610cd7565b6040516105139190612ec0565b60405180910390f35b61053660048036038101906105319190612edb565b610cfb565b6040516105439190612d88565b60405180910390f35b610554610d43565b005b61055e610d57565b60405161056b9190612d88565b60405180910390f35b61057c610d5d565b6040516105899190612f28565b60405180910390f35b61059a610d74565b6040516105a79190612f52565b60405180910390f35b6105ca60048036038101906105c59190612f99565b610d9e565b005b6105d4610dd4565b6040516105e19190612b66565b60405180910390f35b6105f2610e66565b6040516105ff9190612ec0565b60405180910390f35b610610610e8a565b60405161061d9190612d88565b60405180910390f35b610640600480360381019061063b9190612d03565b610e90565b60405161064d9190612d5e565b60405180910390f35b610670600480360381019061066b9190612d03565b610f07565b60405161067d9190612d5e565b60405180910390f35b6106a0600480360381019061069b9190612edb565b610f2a565b6040516106b39796959493929190612ffa565b60405180910390f35b6106d660048036038101906106d19190613069565b610f99565b005b6106e0611260565b6040516106ed9190612b66565b60405180910390f35b610710600480360381019061070b9190612c9f565b611299565b60405161071d9190612d88565b60405180910390f35b61072e6112b1565b60405161073b9190612d88565b60405180910390f35b61075e600480360381019061075991906130d0565b611361565b60405161076b9190612d88565b60405180910390f35b61078e60048036038101906107899190612edb565b6113e8565b005b6107aa60048036038101906107a59190612edb565b6113fc565b6040516107b79190612d88565b60405180910390f35b6107da60048036038101906107d59190612edb565b61140e565b6040516107e79190612d88565b60405180910390f35b61080a60048036038101906108059190612edb565b611457565b005b61082660048036038101906108219190613110565b6114db565b005b61083061152b565b60405161083d919061320e565b60405180910390f35b61084e6115b9565b005b6040518060400160405280600681526020017f424d61746963000000000000000000000000000000000000000000000000000081525081565b61089382826116c4565b5050565b61089f6116d3565b6108a881611751565b156108b6576108b5613230565b5b600b819080600181540180825580915050600190039060005260206000200160009091909190916101000a81548173ffffffffffffffffffffffffffffffffffffffff021916908373ffffffffffffffffffffffffffffffffffffffff16021790555050565b60606003805461092b9061328e565b80601f01602080910402602001604051908101604052809291908181526020018280546109579061328e565b80156109a45780601f10610979576101008083540402835291602001916109a4565b820191906000526020600020905b81548152906001019060200180831161098757829003601f168201915b5050505050905090565b601281565b6000806109be6117ff565b90506109cb818585611807565b600191505092915050565b60085481565b6000600254905090565b60006109f96109f36117ff565b836119d2565b610a247f00000000000000000000000000000000000000000000000000000000000000008484611ba0565b6001905092915050565b600080610a396117ff565b9050610a46858285611c26565b610a51858585611cb2565b60019150509392505050565b600080600660008473ffffffffffffffffffffffffffffffffffffffff1673ffffffffffffffffffffffffffffffffffffffff168152602001908152602001600020549050606460085482610ab291906132ef565b610abc9190613378565b915050919050565b6000610af97f0000000000000000000000000000000000000000000000000000000000000000610af26117ff565b3085611f2a565b610b038383611fb3565b6001905092915050565b60007f000000000000000000000000000000000000000000000000000000000000000073ffffffffffffffffffffffffffffffffffffffff1663313ce5676040518163ffffffff1660e01b815260040160206040518083038186803b158015610b7557600080fd5b505afa925050508015610ba657506040513d601f19601f82011682018060405250810190610ba391906133d5565b60015b610bb957610bb261210a565b9050610bbe565b809150505b90565b600d5481565b600080610bd26117ff565b9050610bf3818585610be48589611361565b610bee9190613402565b611807565b600191505092915050565b600080610c0a83612113565b9050606460085482610c1c91906132ef565b610c269190613378565b915050919050565b610c366116d3565b8173ffffffffffffffffffffffffffffffffffffffff1663a9059cbb84836040518363ffffffff1660e01b8152600401610c71929190613458565b602060405180830381600087803b158015610c8b57600080fd5b505af1158015610c9f573d6000803e3d6000fd5b505050506040513d601f19601f82011682018060405250810190610cc391906134ad565b50505050565b610cd38282612155565b5050565b7f000000000000000000000000000000000000000000000000000000000000000081565b60008060008373ffffffffffffffffffffffffffffffffffffffff1673ffffffffffffffffffffffffffffffffffffffff168152602001908152602001600020549050919050565b610d4b6116d3565b610d556000612164565b565b600e5481565b600c60009054906101000a900464ffffffffff1681565b6000600560009054906101000a900473ffffffffffffffffffffffffffffffffffffffff16905090565b610da66116d3565b81600c60006101000a81548164ffffffffff021916908364ffffffffff16021790555080600d819055505050565b606060048054610de39061328e565b80601f0160208091040260200160405190810160405280929190818152602001828054610e0f9061328e565b8015610e5c5780601f10610e3157610100808354040283529160200191610e5c565b820191906000526020600020905b815481529060010190602001808311610e3f57829003601f168201915b5050505050905090565b7f000000000000000000000000000000000000000000000000000000000000000081565b600f5481565b600080610e9b6117ff565b90506000610ea98286611361565b905083811015610eee576040517f08c379a0000000000000000000000000000000000000000000000000000000008152600401610ee59061354c565b60405180910390fd5b610efb8286868403611807565b60019250505092915050565b600080610f126117ff565b9050610f1f818585611cb2565b600191505092915050565b600a6020528060005260406000206000915090508060000160009054906101000a900473ffffffffffffffffffffffffffffffffffffffff16908060010154908060020154908060030154908060040154908060050154908060060160009054906101000a900460ff16905087565b6000600a60003373ffffffffffffffffffffffffffffffffffffffff1673ffffffffffffffffffffffffffffffffffffffff16815260200190815260200160002090508060060160009054906101000a900460ff161561102e576040517f08c379a0000000000000000000000000000000000000000000000000000000008152600401611025906135b8565b60405180910390fd5b62278d00620151808461104191906132ef565b10611081576040517f08c379a00000000000000000000000000000000000000000000000000000000081526004016110789061364a565b60405180910390fd5b42620151808461109191906132ef565b1161109f5761109e613230565b5b6110a885611751565b6110e7576040517f08c379a00000000000000000000000000000000000000000000000000000000081526004016110de906136b6565b60405180910390fd5b6110f085610a5d565b821115611132576040517fdd910b5300000000000000000000000000000000000000000000000000000000815260040161112990613722565b60405180910390fd5b848160000160006101000a81548173ffffffffffffffffffffffffffffffffffffffff021916908373ffffffffffffffffffffffffffffffffffffffff160217905550838160010181905550818160020181905550620151808361119691906132ef565b816003018190555042816005018190555060006111b483854261222a565b9050600081846111c49190613402565b90508083600401819055506111da338789612283565b6111e433856123ce565b60018360060160006101000a81548160ff02191690831515021790555083600e60008282546112139190613402565b925050819055507ffc2baa24cbbf617bfa430e509fa2184b87665b3272db852e583b677125dfc3cb8486834260405161124f9493929190613742565b60405180910390a150505050505050565b6040518060400160405280600e81526020017f426f72726f776572204d6174696300000000000000000000000000000000000081525081565b60066020528060005260406000206000915090505481565b60007f000000000000000000000000000000000000000000000000000000000000000073ffffffffffffffffffffffffffffffffffffffff166370a08231306040518263ffffffff1660e01b815260040161130c9190612f52565b60206040518083038186803b15801561132457600080fd5b505afa158015611338573d6000803e3d6000fd5b505050506040513d601f19601f8201168201806040525081019061135c919061379c565b905090565b6000600160008473ffffffffffffffffffffffffffffffffffffffff1673ffffffffffffffffffffffffffffffffffffffff16815260200190815260200160002060008373ffffffffffffffffffffffffffffffffffffffff1673ffffffffffffffffffffffffffffffffffffffff16815260200190815260200160002054905092915050565b6113f06116d3565b6113f981611457565b50565b6000611407826123dd565b9050919050565b6000600960008373ffffffffffffffffffffffffffffffffffffffff1673ffffffffffffffffffffffffffffffffffffffff168152602001908152602001600020549050919050565b61145f6116d3565b600073ffffffffffffffffffffffffffffffffffffffff168173ffffffffffffffffffffffffffffffffffffffff1614156114cf576040517f08c379a00000000000000000000000000000000000000000000000000000000081526004016114c69061383b565b60405180910390fd5b6114d881612164565b50565b6114e36116d3565b80600660008473ffffffffffffffffffffffffffffffffffffffff1673ffffffffffffffffffffffffffffffffffffffff168152602001908152602001600020819055505050565b6060600b8054806020026020016040519081016040528092919081815260200182805480156115af57602002820191906000526020600020905b8160009054906101000a900473ffffffffffffffffffffffffffffffffffffffff1673ffffffffffffffffffffffffffffffffffffffff1681526020019060010190808311611565575b5050505050905090565b6000600a60003373ffffffffffffffffffffffffffffffffffffffff1673ffffffffffffffffffffffffffffffffffffffff16815260200190815260200160002090508060060160009054906101000a900460ff1661164d576040517f08c379a0000000000000000000000000000000000000000000000000000000008152600401611644906138a7565b60405180910390fd5b61165f3361165a3361140e565b61246f565b6116923382600101548360000160009054906101000a900473ffffffffffffffffffffffffffffffffffffffff16612610565b6116a43361169f3361140e565b612684565b60008160060160006101000a81548160ff02191690831515021790555050565b6116ce81836109e6565b505050565b6116db6117ff565b73ffffffffffffffffffffffffffffffffffffffff166116f9610d74565b73ffffffffffffffffffffffffffffffffffffffff161461174f576040517f08c379a000000000000000000000000000000000000000000000000000000000815260040161174690613913565b60405180910390fd5b565b600080600090505b600b805490508110156117f9578273ffffffffffffffffffffffffffffffffffffffff16600b828154811061179157611790613933565b5b9060005260206000200160009054906101000a900473ffffffffffffffffffffffffffffffffffffffff1673ffffffffffffffffffffffffffffffffffffffff1614156117e157600191506117e6565b600091505b80806117f190613962565b915050611759565b50919050565b600033905090565b600073ffffffffffffffffffffffffffffffffffffffff168373ffffffffffffffffffffffffffffffffffffffff161415611877576040517f08c379a000000000000000000000000000000000000000000000000000000000815260040161186e90613a1d565b60405180910390fd5b600073ffffffffffffffffffffffffffffffffffffffff168273ffffffffffffffffffffffffffffffffffffffff1614156118e7576040517f08c379a00000000000000000000000000000000000000000000000000000000081526004016118de90613aaf565b60405180910390fd5b80600160008573ffffffffffffffffffffffffffffffffffffffff1673ffffffffffffffffffffffffffffffffffffffff16815260200190815260200160002060008473ffffffffffffffffffffffffffffffffffffffff1673ffffffffffffffffffffffffffffffffffffffff168152602001908152602001600020819055508173ffffffffffffffffffffffffffffffffffffffff168373ffffffffffffffffffffffffffffffffffffffff167f8c5be1e5ebec7d5bd14f71427d1e84f3dd0314c0f7b2291e5b200ac8c7c3b925836040516119c59190612d88565b60405180910390a3505050565b600073ffffffffffffffffffffffffffffffffffffffff168273ffffffffffffffffffffffffffffffffffffffff161415611a42576040517f08c379a0000000000000000000000000000000000000000000000000000000008152600401611a3990613b41565b60405180910390fd5b611a4e826000836126de565b60008060008473ffffffffffffffffffffffffffffffffffffffff1673ffffffffffffffffffffffffffffffffffffffff16815260200190815260200160002054905081811015611ad4576040517f08c379a0000000000000000000000000000000000000000000000000000000008152600401611acb90613bd3565b60405180910390fd5b8181036000808573ffffffffffffffffffffffffffffffffffffffff1673ffffffffffffffffffffffffffffffffffffffff1681526020019081526020016000208190555081600260008282540392505081905550600073ffffffffffffffffffffffffffffffffffffffff168373ffffffffffffffffffffffffffffffffffffffff167fddf252ad1be2c89b69c2b068fc378daa952ba7f163c4a11628f55a4df523b3ef84604051611b879190612d88565b60405180910390a3611b9b836000846126e3565b505050565b611c218363a9059cbb60e01b8484604051602401611bbf929190613458565b604051602081830303815290604052907bffffffffffffffffffffffffffffffffffffffffffffffffffffffff19166020820180517bffffffffffffffffffffffffffffffffffffffffffffffffffffffff83818316178352505050506126e8565b505050565b6000611c328484611361565b90507fffffffffffffffffffffffffffffffffffffffffffffffffffffffffffffffff8114611cac5781811015611c9e576040517f08c379a0000000000000000000000000000000000000000000000000000000008152600401611c9590613c3f565b60405180910390fd5b611cab8484848403611807565b5b50505050565b600073ffffffffffffffffffffffffffffffffffffffff168373ffffffffffffffffffffffffffffffffffffffff161415611d22576040517f08c379a0000000000000000000000000000000000000000000000000000000008152600401611d1990613cd1565b60405180910390fd5b600073ffffffffffffffffffffffffffffffffffffffff168273ffffffffffffffffffffffffffffffffffffffff161415611d92576040517f08c379a0000000000000000000000000000000000000000000000000000000008152600401611d8990613d63565b60405180910390fd5b611d9d8383836126de565b60008060008573ffffffffffffffffffffffffffffffffffffffff1673ffffffffffffffffffffffffffffffffffffffff16815260200190815260200160002054905081811015611e23576040517f08c379a0000000000000000000000000000000000000000000000000000000008152600401611e1a90613df5565b60405180910390fd5b8181036000808673ffffffffffffffffffffffffffffffffffffffff1673ffffffffffffffffffffffffffffffffffffffff16815260200190815260200160002081905550816000808573ffffffffffffffffffffffffffffffffffffffff1673ffffffffffffffffffffffffffffffffffffffff168152602001908152602001600020600082825401925050819055508273ffffffffffffffffffffffffffffffffffffffff168473ffffffffffffffffffffffffffffffffffffffff167fddf252ad1be2c89b69c2b068fc378daa952ba7f163c4a11628f55a4df523b3ef84604051611f119190612d88565b60405180910390a3611f248484846126e3565b50505050565b611fad846323b872dd60e01b858585604051602401611f4b93929190613e15565b604051602081830303815290604052907bffffffffffffffffffffffffffffffffffffffffffffffffffffffff19166020820180517bffffffffffffffffffffffffffffffffffffffffffffffffffffffff83818316178352505050506126e8565b50505050565b600073ffffffffffffffffffffffffffffffffffffffff168273ffffffffffffffffffffffffffffffffffffffff161415612023576040517f08c379a000000000000000000000000000000000000000000000000000000000815260040161201a90613e98565b60405180910390fd5b61202f600083836126de565b80600260008282546120419190613402565b92505081905550806000808473ffffffffffffffffffffffffffffffffffffffff1673ffffffffffffffffffffffffffffffffffffffff168152602001908152602001600020600082825401925050819055508173ffffffffffffffffffffffffffffffffffffffff16600073ffffffffffffffffffffffffffffffffffffffff167fddf252ad1be2c89b69c2b068fc378daa952ba7f163c4a11628f55a4df523b3ef836040516120f29190612d88565b60405180910390a3612106600083836126e3565b5050565b60006012905090565b60008061211e6127af565b90506000670de0b6b3a76400006121348561286f565b8361213f91906132ef565b6121499190613378565b90508092505050919050565b61215f8183610ac4565b505050565b6000600560009054906101000a900473ffffffffffffffffffffffffffffffffffffffff16905081600560006101000a81548173ffffffffffffffffffffffffffffffffffffffff021916908373ffffffffffffffffffffffffffffffffffffffff1602179055508173ffffffffffffffffffffffffffffffffffffffff168173ffffffffffffffffffffffffffffffffffffffff167f8be0079c531659141344cd1fd0a4f28419497f9722a3daafe3b4186f6b6457e060405160405180910390a35050565b60008082846122399190613eb8565b9050600d5481600c60009054906101000a900464ffffffffff1664ffffffffff168761226591906132ef565b61226f91906132ef565b6122799190613378565b9150509392505050565b6000819050600115158173ffffffffffffffffffffffffffffffffffffffff1663e985e9c586306040518363ffffffff1660e01b81526004016122c7929190613eec565b60206040518083038186803b1580156122df57600080fd5b505afa1580156122f3573d6000803e3d6000fd5b505050506040513d601f19601f8201168201806040525081019061231791906134ad565b151514612359576040517f2c1f04e900000000000000000000000000000000000000000000000000000000815260040161235090613f61565b60405180910390fd5b8073ffffffffffffffffffffffffffffffffffffffff166323b872dd8530866040518463ffffffff1660e01b815260040161239693929190613e15565b600060405180830381600087803b1580156123b057600080fd5b505af11580156123c4573d6000803e3d6000fd5b5050505050505050565b6123d88282610f07565b505050565b60008173ffffffffffffffffffffffffffffffffffffffff166370a08231306040518263ffffffff1660e01b81526004016124189190612f52565b60206040518083038186803b15801561243057600080fd5b505afa158015612444573d6000803e3d6000fd5b505050506040513d601f19601f82011682018060405250810190612468919061379c565b9050919050565b807f000000000000000000000000000000000000000000000000000000000000000073ffffffffffffffffffffffffffffffffffffffff1663dd62ed3e84306040518363ffffffff1660e01b81526004016124cb929190613eec565b60206040518083038186803b1580156124e357600080fd5b505afa1580156124f7573d6000803e3d6000fd5b505050506040513d601f19601f8201168201806040525081019061251b919061379c565b101561255c576040517f08c379a000000000000000000000000000000000000000000000000000000000815260040161255390613fcd565b60405180910390fd5b7f000000000000000000000000000000000000000000000000000000000000000073ffffffffffffffffffffffffffffffffffffffff166323b872dd8330846040518463ffffffff1660e01b81526004016125b993929190613e15565b602060405180830381600087803b1580156125d357600080fd5b505af11580156125e7573d6000803e3d6000fd5b505050506040513d601f19601f8201168201806040525081019061260b91906134ad565b505050565b8073ffffffffffffffffffffffffffffffffffffffff166323b872dd3085856040518463ffffffff1660e01b815260040161264d93929190613e15565b600060405180830381600087803b15801561266757600080fd5b505af115801561267b573d6000803e3d6000fd5b50505050505050565b80600960008473ffffffffffffffffffffffffffffffffffffffff1673ffffffffffffffffffffffffffffffffffffffff16815260200190815260200160002060008282546126d39190613eb8565b925050819055505050565b505050565b505050565b600061274a826040518060400160405280602081526020017f5361666545524332303a206c6f772d6c6576656c2063616c6c206661696c65648152508573ffffffffffffffffffffffffffffffffffffffff166128ff9092919063ffffffff16565b90506000815111156127aa578080602001905181019061276a91906134ad565b6127a9576040517f08c379a00000000000000000000000000000000000000000000000000000000081526004016127a09061405f565b60405180910390fd5b5b505050565b600080600760009054906101000a900473ffffffffffffffffffffffffffffffffffffffff1673ffffffffffffffffffffffffffffffffffffffff1663feaf968c6040518163ffffffff1660e01b815260040160a06040518083038186803b15801561281a57600080fd5b505afa15801561282e573d6000803e3d6000fd5b505050506040513d601f19601f8201168201806040525081019061285291906140f7565b5050509150506402540be400816128699190614172565b91505090565b6000808273ffffffffffffffffffffffffffffffffffffffff1663feaf968c6040518163ffffffff1660e01b815260040160a06040518083038186803b1580156128b857600080fd5b505afa1580156128cc573d6000803e3d6000fd5b505050506040513d601f19601f820116820180604052508101906128f091906140f7565b50505091505080915050919050565b606061290e8484600085612917565b90509392505050565b60608247101561295c576040517f08c379a0000000000000000000000000000000000000000000000000000000008152600401612953906142fb565b60405180910390fd5b6000808673ffffffffffffffffffffffffffffffffffffffff1685876040516129859190614362565b60006040518083038185875af1925050503d80600081146129c2576040519150601f19603f3d011682016040523d82523d6000602084013e6129c7565b606091505b50915091506129d8878383876129e4565b92505050949350505050565b60608315612a4757600083511415612a3f576129ff85612a5a565b612a3e576040517f08c379a0000000000000000000000000000000000000000000000000000000008152600401612a35906143c5565b60405180910390fd5b5b829050612a52565b612a518383612a7d565b5b949350505050565b6000808273ffffffffffffffffffffffffffffffffffffffff163b119050919050565b600082511115612a905781518083602001fd5b806040517f08c379a0000000000000000000000000000000000000000000000000000000008152600401612ac49190612b66565b60405180910390fd5b600081519050919050565b600082825260208201905092915050565b60005b83811015612b07578082015181840152602081019050612aec565b83811115612b16576000848401525b50505050565b6000601f19601f8301169050919050565b6000612b3882612acd565b612b428185612ad8565b9350612b52818560208601612ae9565b612b5b81612b1c565b840191505092915050565b60006020820190508181036000830152612b808184612b2d565b905092915050565b600080fd5b6000819050919050565b612ba081612b8d565b8114612bab57600080fd5b50565b600081359050612bbd81612b97565b92915050565b600073ffffffffffffffffffffffffffffffffffffffff82169050919050565b6000612bee82612bc3565b9050919050565b612bfe81612be3565b8114612c0957600080fd5b50565b600081359050612c1b81612bf5565b92915050565b60008060408385031215612c3857612c37612b88565b5b6000612c4685828601612bae565b9250506020612c5785828601612c0c565b9150509250929050565b6000612c6c82612be3565b9050919050565b612c7c81612c61565b8114612c8757600080fd5b50565b600081359050612c9981612c73565b92915050565b600060208284031215612cb557612cb4612b88565b5b6000612cc384828501612c8a565b91505092915050565b600060ff82169050919050565b612ce281612ccc565b82525050565b6000602082019050612cfd6000830184612cd9565b92915050565b60008060408385031215612d1a57612d19612b88565b5b6000612d2885828601612c0c565b9250506020612d3985828601612bae565b9150509250929050565b60008115159050919050565b612d5881612d43565b82525050565b6000602082019050612d736000830184612d4f565b92915050565b612d8281612b8d565b82525050565b6000602082019050612d9d6000830184612d79565b92915050565b600080600060608486031215612dbc57612dbb612b88565b5b6000612dca86828701612c0c565b9350506020612ddb86828701612c0c565b9250506040612dec86828701612bae565b9150509250925092565b6000612e0182612be3565b9050919050565b612e1181612df6565b8114612e1c57600080fd5b50565b600081359050612e2e81612e08565b92915050565b600060208284031215612e4a57612e49612b88565b5b6000612e5884828501612e1f565b91505092915050565b6000819050919050565b6000612e86612e81612e7c84612bc3565b612e61565b612bc3565b9050919050565b6000612e9882612e6b565b9050919050565b6000612eaa82612e8d565b9050919050565b612eba81612e9f565b82525050565b6000602082019050612ed56000830184612eb1565b92915050565b600060208284031215612ef157612ef0612b88565b5b6000612eff84828501612c0c565b91505092915050565b600064ffffffffff82169050919050565b612f2281612f08565b82525050565b6000602082019050612f3d6000830184612f19565b92915050565b612f4c81612be3565b82525050565b6000602082019050612f676000830184612f43565b92915050565b612f7681612f08565b8114612f8157600080fd5b50565b600081359050612f9381612f6d565b92915050565b60008060408385031215612fb057612faf612b88565b5b6000612fbe85828601612f84565b9250506020612fcf85828601612bae565b9150509250929050565b6000612fe482612e8d565b9050919050565b612ff481612fd9565b82525050565b600060e08201905061300f600083018a612feb565b61301c6020830189612d79565b6130296040830188612d79565b6130366060830187612d79565b6130436080830186612d79565b61305060a0830185612d79565b61305d60c0830184612d4f565b98975050505050505050565b6000806000806080858703121561308357613082612b88565b5b600061309187828801612c8a565b94505060206130a287828801612bae565b93505060406130b387828801612bae565b92505060606130c487828801612bae565b91505092959194509250565b600080604083850312156130e7576130e6612b88565b5b60006130f585828601612c0c565b925050602061310685828601612c0c565b9150509250929050565b6000806040838503121561312757613126612b88565b5b600061313585828601612c8a565b925050602061314685828601612bae565b9150509250929050565b600081519050919050565b600082825260208201905092915050565b6000819050602082019050919050565b61318581612fd9565b82525050565b6000613197838361317c565b60208301905092915050565b6000602082019050919050565b60006131bb82613150565b6131c5818561315b565b93506131d08361316c565b8060005b838110156132015781516131e8888261318b565b97506131f3836131a3565b9250506001810190506131d4565b5085935050505092915050565b6000602082019050818103600083015261322881846131b0565b905092915050565b7f4e487b7100000000000000000000000000000000000000000000000000000000600052600160045260246000fd5b7f4e487b7100000000000000000000000000000000000000000000000000000000600052602260045260246000fd5b600060028204905060018216806132a657607f821691505b602082108114156132ba576132b961325f565b5b50919050565b7f4e487b7100000000000000000000000000000000000000000000000000000000600052601160045260246000fd5b60006132fa82612b8d565b915061330583612b8d565b9250817fffffffffffffffffffffffffffffffffffffffffffffffffffffffffffffffff048311821515161561333e5761333d6132c0565b5b828202905092915050565b7f4e487b7100000000000000000000000000000000000000000000000000000000600052601260045260246000fd5b600061338382612b8d565b915061338e83612b8d565b92508261339e5761339d613349565b5b828204905092915050565b6133b281612ccc565b81146133bd57600080fd5b50565b6000815190506133cf816133a9565b92915050565b6000602082840312156133eb576133ea612b88565b5b60006133f9848285016133c0565b91505092915050565b600061340d82612b8d565b915061341883612b8d565b9250827fffffffffffffffffffffffffffffffffffffffffffffffffffffffffffffffff0382111561344d5761344c6132c0565b5b828201905092915050565b600060408201905061346d6000830185612f43565b61347a6020830184612d79565b9392505050565b61348a81612d43565b811461349557600080fd5b50565b6000815190506134a781613481565b92915050565b6000602082840312156134c3576134c2612b88565b5b60006134d184828501613498565b91505092915050565b7f45524332303a2064656372656173656420616c6c6f77616e63652062656c6f7760008201527f207a65726f000000000000000000000000000000000000000000000000000000602082015250565b6000613536602583612ad8565b9150613541826134da565b604082019050919050565b6000602082019050818103600083015261356581613529565b9050919050565b7f50617920796f7572206465627420666972737400000000000000000000000000600082015250565b60006135a2601383612ad8565b91506135ad8261356c565b602082019050919050565b600060208201905081810360008301526135d181613595565b9050919050565b7f43616e27742069737375652061206c6f616e206265796f6e642033302064617960008201527f7300000000000000000000000000000000000000000000000000000000000000602082015250565b6000613634602183612ad8565b915061363f826135d8565b604082019050919050565b6000602082019050818103600083015261366381613627565b9050919050565b7f4e4654206e6f7420737570706f72746564000000000000000000000000000000600082015250565b60006136a0601183612ad8565b91506136ab8261366a565b602082019050919050565b600060208201905081810360008301526136cf81613693565b9050919050565b7f657863656564656420617661696c61626c6520746f20626f72726f7700000000600082015250565b600061370c601c83612ad8565b9150613717826136d6565b602082019050919050565b6000602082019050818103600083015261373b816136ff565b9050919050565b60006080820190506137576000830187612d79565b6137646020830186612d79565b6137716040830185612d79565b61377e6060830184612d79565b95945050505050565b60008151905061379681612b97565b92915050565b6000602082840312156137b2576137b1612b88565b5b60006137c084828501613787565b91505092915050565b7f4f776e61626c653a206e6577206f776e657220697320746865207a65726f206160008201527f6464726573730000000000000000000000000000000000000000000000000000602082015250565b6000613825602683612ad8565b9150613830826137c9565b604082019050919050565b6000602082019050818103600083015261385481613818565b9050919050565b7f596f7520646f6e2774206861766520616e79206c6f616e206176616c61626c65600082015250565b6000613891602083612ad8565b915061389c8261385b565b602082019050919050565b600060208201905081810360008301526138c081613884565b9050919050565b7f4f776e61626c653a2063616c6c6572206973206e6f7420746865206f776e6572600082015250565b60006138fd602083612ad8565b9150613908826138c7565b602082019050919050565b6000602082019050818103600083015261392c816138f0565b9050919050565b7f4e487b7100000000000000000000000000000000000000000000000000000000600052603260045260246000fd5b600061396d82612b8d565b91507fffffffffffffffffffffffffffffffffffffffffffffffffffffffffffffffff8214156139a05761399f6132c0565b5b600182019050919050565b7f45524332303a20617070726f76652066726f6d20746865207a65726f2061646460008201527f7265737300000000000000000000000000000000000000000000000000000000602082015250565b6000613a07602483612ad8565b9150613a12826139ab565b604082019050919050565b60006020820190508181036000830152613a36816139fa565b9050919050565b7f45524332303a20617070726f766520746f20746865207a65726f20616464726560008201527f7373000000000000000000000000000000000000000000000000000000000000602082015250565b6000613a99602283612ad8565b9150613aa482613a3d565b604082019050919050565b60006020820190508181036000830152613ac881613a8c565b9050919050565b7f45524332303a206275726e2066726f6d20746865207a65726f2061646472657360008201527f7300000000000000000000000000000000000000000000000000000000000000602082015250565b6000613b2b602183612ad8565b9150613b3682613acf565b604082019050919050565b60006020820190508181036000830152613b5a81613b1e565b9050919050565b7f45524332303a206275726e20616d6f756e7420657863656564732062616c616e60008201527f6365000000000000000000000000000000000000000000000000000000000000602082015250565b6000613bbd602283612ad8565b9150613bc882613b61565b604082019050919050565b60006020820190508181036000830152613bec81613bb0565b9050919050565b7f45524332303a20696e73756666696369656e7420616c6c6f77616e6365000000600082015250565b6000613c29601d83612ad8565b9150613c3482613bf3565b602082019050919050565b60006020820190508181036000830152613c5881613c1c565b9050919050565b7f45524332303a207472616e736665722066726f6d20746865207a65726f20616460008201527f6472657373000000000000000000000000000000000000000000000000000000602082015250565b6000613cbb602583612ad8565b9150613cc682613c5f565b604082019050919050565b60006020820190508181036000830152613cea81613cae565b9050919050565b7f45524332303a207472616e7366657220746f20746865207a65726f206164647260008201527f6573730000000000000000000000000000000000000000000000000000000000602082015250565b6000613d4d602383612ad8565b9150613d5882613cf1565b604082019050919050565b60006020820190508181036000830152613d7c81613d40565b9050919050565b7f45524332303a207472616e7366657220616d6f756e742065786365656473206260008201527f616c616e63650000000000000000000000000000000000000000000000000000602082015250565b6000613ddf602683612ad8565b9150613dea82613d83565b604082019050919050565b60006020820190508181036000830152613e0e81613dd2565b9050919050565b6000606082019050613e2a6000830186612f43565b613e376020830185612f43565b613e446040830184612d79565b949350505050565b7f45524332303a206d696e7420746f20746865207a65726f206164647265737300600082015250565b6000613e82601f83612ad8565b9150613e8d82613e4c565b602082019050919050565b60006020820190508181036000830152613eb181613e75565b9050919050565b6000613ec382612b8d565b9150613ece83612b8d565b925082821015613ee157613ee06132c0565b5b828203905092915050565b6000604082019050613f016000830185612f43565b613f0e6020830184612f43565b9392505050565b7f6d75737420617070726f766520746f207370656e640000000000000000000000600082015250565b6000613f4b601583612ad8565b9150613f5682613f15565b602082019050919050565b60006020820190508181036000830152613f7a81613f3e565b9050919050565b7f6e65656420746f20617070726f76650000000000000000000000000000000000600082015250565b6000613fb7600f83612ad8565b9150613fc282613f81565b602082019050919050565b60006020820190508181036000830152613fe681613faa565b9050919050565b7f5361666545524332303a204552433230206f7065726174696f6e20646964206e60008201527f6f74207375636365656400000000000000000000000000000000000000000000602082015250565b6000614049602a83612ad8565b915061405482613fed565b604082019050919050565b600060208201905081810360008301526140788161403c565b9050919050565b600069ffffffffffffffffffff82169050919050565b61409e8161407f565b81146140a957600080fd5b50565b6000815190506140bb81614095565b92915050565b6000819050919050565b6140d4816140c1565b81146140df57600080fd5b50565b6000815190506140f1816140cb565b92915050565b600080600080600060a0868803121561411357614112612b88565b5b6000614121888289016140ac565b9550506020614132888289016140e2565b945050604061414388828901613787565b935050606061415488828901613787565b9250506080614165888289016140ac565b9150509295509295909350565b600061417d826140c1565b9150614188836140c1565b9250827f7fffffffffffffffffffffffffffffffffffffffffffffffffffffffffffffff04821160008413600084131616156141c7576141c66132c0565b5b817f80000000000000000000000000000000000000000000000000000000000000000583126000841260008413161615614204576142036132c0565b5b827f80000000000000000000000000000000000000000000000000000000000000000582126000841360008412161615614241576142406132c0565b5b827f7fffffffffffffffffffffffffffffffffffffffffffffffffffffffffffffff058212600084126000841216161561427e5761427d6132c0565b5b828202905092915050565b7f416464726573733a20696e73756666696369656e742062616c616e636520666f60008201527f722063616c6c0000000000000000000000000000000000000000000000000000602082015250565b60006142e5602683612ad8565b91506142f082614289565b604082019050919050565b60006020820190508181036000830152614314816142d8565b9050919050565b600081519050919050565b600081905092915050565b600061433c8261431b565b6143468185614326565b9350614356818560208601612ae9565b80840191505092915050565b600061436e8284614331565b915081905092915050565b7f416464726573733a2063616c6c20746f206e6f6e2d636f6e7472616374000000600082015250565b60006143af601d83612ad8565b91506143ba82614379565b602082019050919050565b600060208201905081810360008301526143de816143a2565b905091905056fea2646970667358221220a46c21a7378e6e7115dee0f8407c0dc4f0e2272df7af9ed81d9fcccce1c772b464736f6c63430008090033",
  "linkReferences": {},
  "deployedLinkReferences": {}
}