{
  "_format": "hh-sol-artifact-1",
  "contractName": "YieldContract",
  "sourceName": "contracts/utils/yield.sol",
  "abi": [
    {
      "inputs": [
        {
          "internalType": "address",
          "name": "_DTokenAddress",
          "type": "address"
        }
      ],
      "stateMutability": "nonpayable",
      "type": "constructor"
    },
    {
      "inputs": [
        {
          "internalType": "string",
          "name": "",
          "type": "string"
        }
      ],
      "name": "mustApprove",
      "type": "error"
    },
    {
      "anonymous": false,
      "inputs": [
        {
          "indexed": true,
          "internalType": "address",
          "name": "owner",
          "type": "address"
        },
        {
          "indexed": true,
          "internalType": "address",
          "name": "spender",
          "type": "address"
        },
        {
          "indexed": false,
          "internalType": "uint256",
          "name": "value",
          "type": "uint256"
        }
      ],
      "name": "Approval",
      "type": "event"
    },
    {
      "anonymous": false,
      "inputs": [
        {
          "indexed": true,
          "internalType": "address",
          "name": "previousOwner",
          "type": "address"
        },
        {
          "indexed": true,
          "internalType": "address",
          "name": "newOwner",
          "type": "address"
        }
      ],
      "name": "OwnershipTransferred",
      "type": "event"
    },
    {
      "anonymous": false,
      "inputs": [
        {
          "indexed": true,
          "internalType": "address",
          "name": "from",
          "type": "address"
        },
        {
          "indexed": true,
          "internalType": "address",
          "name": "to",
          "type": "address"
        },
        {
          "indexed": false,
          "internalType": "uint256",
          "name": "value",
          "type": "uint256"
        }
      ],
      "name": "Transfer",
      "type": "event"
    },
    {
      "inputs": [],
      "name": "FACTOR",
      "outputs": [
        {
          "internalType": "uint256",
          "name": "",
          "type": "uint256"
        }
      ],
      "stateMutability": "view",
      "type": "function"
    },
    {
      "inputs": [
        {
          "internalType": "address",
          "name": "owner",
          "type": "address"
        },
        {
          "internalType": "address",
          "name": "spender",
          "type": "address"
        }
      ],
      "name": "allowance",
      "outputs": [
        {
          "internalType": "uint256",
          "name": "",
          "type": "uint256"
        }
      ],
      "stateMutability": "view",
      "type": "function"
    },
    {
      "inputs": [
        {
          "internalType": "address",
          "name": "spender",
          "type": "address"
        },
        {
          "internalType": "uint256",
          "name": "amount",
          "type": "uint256"
        }
      ],
      "name": "approve",
      "outputs": [
        {
          "internalType": "bool",
          "name": "",
          "type": "bool"
        }
      ],
      "stateMutability": "nonpayable",
      "type": "function"
    },
    {
      "inputs": [
        {
          "internalType": "address",
          "name": "account",
          "type": "address"
        }
      ],
      "name": "balanceOf",
      "outputs": [
        {
          "internalType": "uint256",
          "name": "",
          "type": "uint256"
        }
      ],
      "stateMutability": "view",
      "type": "function"
    },
    {
      "inputs": [],
      "name": "decimals",
      "outputs": [
        {
          "internalType": "uint8",
          "name": "",
          "type": "uint8"
        }
      ],
      "stateMutability": "view",
      "type": "function"
    },
    {
      "inputs": [
        {
          "internalType": "address",
          "name": "spender",
          "type": "address"
        },
        {
          "internalType": "uint256",
          "name": "subtractedValue",
          "type": "uint256"
        }
      ],
      "name": "decreaseAllowance",
      "outputs": [
        {
          "internalType": "bool",
          "name": "",
          "type": "bool"
        }
      ],
      "stateMutability": "nonpayable",
      "type": "function"
    },
    {
      "inputs": [
        {
          "internalType": "uint256",
          "name": "_amountLock",
          "type": "uint256"
        },
        {
          "internalType": "uint256",
          "name": "_periodLocked",
          "type": "uint256"
        }
      ],
      "name": "getInterestAccrued",
      "outputs": [
        {
          "internalType": "uint256",
          "name": "getInterest",
          "type": "uint256"
        }
      ],
      "stateMutability": "view",
      "type": "function"
    },
    {
      "inputs": [
        {
          "internalType": "address",
          "name": "spender",
          "type": "address"
        },
        {
          "internalType": "uint256",
          "name": "addedValue",
          "type": "uint256"
        }
      ],
      "name": "increaseAllowance",
      "outputs": [
        {
          "internalType": "bool",
          "name": "",
          "type": "bool"
        }
      ],
      "stateMutability": "nonpayable",
      "type": "function"
    },
    {
      "inputs": [
        {
          "internalType": "uint256",
          "name": "_amount",
          "type": "uint256"
        },
        {
          "internalType": "uint256",
          "name": "_days",
          "type": "uint256"
        }
      ],
      "name": "lockDTokenForLND",
      "outputs": [],
      "stateMutability": "nonpayable",
      "type": "function"
    },
    {
      "inputs": [],
      "name": "name",
      "outputs": [
        {
          "internalType": "string",
          "name": "",
          "type": "string"
        }
      ],
      "stateMutability": "view",
      "type": "function"
    },
    {
      "inputs": [],
      "name": "owner",
      "outputs": [
        {
          "internalType": "address",
          "name": "",
          "type": "address"
        }
      ],
      "stateMutability": "view",
      "type": "function"
    },
    {
      "inputs": [],
      "name": "renounceOwnership",
      "outputs": [],
      "stateMutability": "nonpayable",
      "type": "function"
    },
    {
      "inputs": [],
      "name": "symbol",
      "outputs": [
        {
          "internalType": "string",
          "name": "",
          "type": "string"
        }
      ],
      "stateMutability": "view",
      "type": "function"
    },
    {
      "inputs": [],
      "name": "totalSupply",
      "outputs": [
        {
          "internalType": "uint256",
          "name": "",
          "type": "uint256"
        }
      ],
      "stateMutability": "view",
      "type": "function"
    },
    {
      "inputs": [
        {
          "internalType": "address",
          "name": "to",
          "type": "address"
        },
        {
          "internalType": "uint256",
          "name": "amount",
          "type": "uint256"
        }
      ],
      "name": "transfer",
      "outputs": [
        {
          "internalType": "bool",
          "name": "",
          "type": "bool"
        }
      ],
      "stateMutability": "nonpayable",
      "type": "function"
    },
    {
      "inputs": [
        {
          "internalType": "address",
          "name": "from",
          "type": "address"
        },
        {
          "internalType": "address",
          "name": "to",
          "type": "address"
        },
        {
          "internalType": "uint256",
          "name": "amount",
          "type": "uint256"
        }
      ],
      "name": "transferFrom",
      "outputs": [
        {
          "internalType": "bool",
          "name": "",
          "type": "bool"
        }
      ],
      "stateMutability": "nonpayable",
      "type": "function"
    },
    {
      "inputs": [
        {
          "internalType": "address",
          "name": "newOwner",
          "type": "address"
        }
      ],
      "name": "transferOwnership",
      "outputs": [],
      "stateMutability": "nonpayable",
      "type": "function"
    },
    {
      "inputs": [],
      "name": "withdrawLockedToken",
      "outputs": [],
      "stateMutability": "nonpayable",
      "type": "function"
    }
  ],
  "bytecode": "0x60806040523480156200001157600080fd5b506040516200262538038062002625833981810160405281019062000037919062000325565b6040518060400160405280600b81526020017f4c656e646120546f6b656e0000000000000000000000000000000000000000008152506040518060400160405280600381526020017f4c4e440000000000000000000000000000000000000000000000000000000000815250620000c3620000b76200013f60201b60201c565b6200014760201b60201c565b8160049080519060200190620000db9291906200020b565b508060059080519060200190620000f49291906200020b565b50505080600660006101000a81548173ffffffffffffffffffffffffffffffffffffffff021916908373ffffffffffffffffffffffffffffffffffffffff16021790555050620003bc565b600033905090565b60008060009054906101000a900473ffffffffffffffffffffffffffffffffffffffff169050816000806101000a81548173ffffffffffffffffffffffffffffffffffffffff021916908373ffffffffffffffffffffffffffffffffffffffff1602179055508173ffffffffffffffffffffffffffffffffffffffff168173ffffffffffffffffffffffffffffffffffffffff167f8be0079c531659141344cd1fd0a4f28419497f9722a3daafe3b4186f6b6457e060405160405180910390a35050565b828054620002199062000386565b90600052602060002090601f0160209004810192826200023d576000855562000289565b82601f106200025857805160ff191683800117855562000289565b8280016001018555821562000289579182015b82811115620002885782518255916020019190600101906200026b565b5b5090506200029891906200029c565b5090565b5b80821115620002b75760008160009055506001016200029d565b5090565b600080fd5b600073ffffffffffffffffffffffffffffffffffffffff82169050919050565b6000620002ed82620002c0565b9050919050565b620002ff81620002e0565b81146200030b57600080fd5b50565b6000815190506200031f81620002f4565b92915050565b6000602082840312156200033e576200033d620002bb565b5b60006200034e848285016200030e565b91505092915050565b7f4e487b7100000000000000000000000000000000000000000000000000000000600052602260045260246000fd5b600060028204905060018216806200039f57607f821691505b60208210811415620003b657620003b562000357565b5b50919050565b61225980620003cc6000396000f3fe608060405234801561001057600080fd5b50600436106101165760003560e01c80638da5cb5b116100a2578063a457c2d711610071578063a457c2d7146102e5578063a9059cbb14610315578063dd62ed3e14610345578063f2474cbe14610375578063f2fde38b1461037f57610116565b80638da5cb5b1461025d57806395d89b411461027b5780639b2e443714610299578063a2301dbc146102c957610116565b8063313ce567116100e9578063313ce567146101b757806335815b95146101d557806339509351146101f357806370a0823114610223578063715018a61461025357610116565b806306fdde031461011b578063095ea7b31461013957806318160ddd1461016957806323b872dd14610187575b600080fd5b61012361039b565b60405161013091906115e9565b60405180910390f35b610153600480360381019061014e91906116a4565b61042d565b60405161016091906116ff565b60405180910390f35b610171610450565b60405161017e9190611729565b60405180910390f35b6101a1600480360381019061019c9190611744565b61045a565b6040516101ae91906116ff565b60405180910390f35b6101bf610489565b6040516101cc91906117b3565b60405180910390f35b6101dd610492565b6040516101ea9190611729565b60405180910390f35b61020d600480360381019061020891906116a4565b61049d565b60405161021a91906116ff565b60405180910390f35b61023d600480360381019061023891906117ce565b6104d4565b60405161024a9190611729565b60405180910390f35b61025b61051d565b005b610265610531565b604051610272919061180a565b60405180910390f35b61028361055a565b60405161029091906115e9565b60405180910390f35b6102b360048036038101906102ae9190611825565b6105ec565b6040516102c09190611729565b60405180910390f35b6102e360048036038101906102de9190611825565b61071f565b005b6102ff60048036038101906102fa91906116a4565b610a04565b60405161030c91906116ff565b60405180910390f35b61032f600480360381019061032a91906116a4565b610a7b565b60405161033c91906116ff565b60405180910390f35b61035f600480360381019061035a9190611865565b610a9e565b60405161036c9190611729565b60405180910390f35b61037d610b25565b005b610399600480360381019061039491906117ce565b610c37565b005b6060600480546103aa906118d4565b80601f01602080910402602001604051908101604052809291908181526020018280546103d6906118d4565b80156104235780601f106103f857610100808354040283529160200191610423565b820191906000526020600020905b81548152906001019060200180831161040657829003601f168201915b5050505050905090565b600080610438610cbb565b9050610445818585610cc3565b600191505092915050565b6000600354905090565b600080610465610cbb565b9050610472858285610e8e565b61047d858585610f1a565b60019150509392505050565b60006012905090565b66038d7ea4c6800081565b6000806104a8610cbb565b90506104c98185856104ba8589610a9e565b6104c49190611935565b610cc3565b600191505092915050565b6000600160008373ffffffffffffffffffffffffffffffffffffffff1673ffffffffffffffffffffffffffffffffffffffff168152602001908152602001600020549050919050565b610525611195565b61052f6000611213565b565b60008060009054906101000a900473ffffffffffffffffffffffffffffffffffffffff16905090565b606060058054610569906118d4565b80601f0160208091040260200160405190810160405280929190818152602001828054610595906118d4565b80156105e25780601f106105b7576101008083540402835291602001916105e2565b820191906000526020600020905b8154815290600101906020018083116105c557829003601f168201915b5050505050905090565b6000600a8311610631576040517f08c379a0000000000000000000000000000000000000000000000000000000008152600401610628906119d7565b60405180910390fd5b600660009054906101000a900473ffffffffffffffffffffffffffffffffffffffff1673ffffffffffffffffffffffffffffffffffffffff166370a08231306040518263ffffffff1660e01b815260040161068c919061180a565b60206040518083038186803b1580156106a457600080fd5b505afa1580156106b8573d6000803e3d6000fd5b505050506040513d601f19601f820116820180604052508101906106dc9190611a0c565b8266038d7ea4c6800067058d15e176280000866106f99190611a39565b6107039190611a39565b61070d9190611a39565b6107179190611ac2565b905092915050565b600a8211610762576040517f08c379a0000000000000000000000000000000000000000000000000000000008152600401610759906119d7565b60405180910390fd5b81600660009054906101000a900473ffffffffffffffffffffffffffffffffffffffff1673ffffffffffffffffffffffffffffffffffffffff1663dd62ed3e33306040518363ffffffff1660e01b81526004016107c0929190611af3565b60206040518083038186803b1580156107d857600080fd5b505afa1580156107ec573d6000803e3d6000fd5b505050506040513d601f19601f820116820180604052508101906108109190611a0c565b10610850576040517f9702910300000000000000000000000000000000000000000000000000000000815260040161084790611b68565b60405180910390fd5b600660009054906101000a900473ffffffffffffffffffffffffffffffffffffffff1673ffffffffffffffffffffffffffffffffffffffff166323b872dd3330856040518463ffffffff1660e01b81526004016108af93929190611b88565b602060405180830381600087803b1580156108c957600080fd5b505af11580156108dd573d6000803e3d6000fd5b505050506040513d601f19601f820116820180604052508101906109019190611beb565b506000600760003373ffffffffffffffffffffffffffffffffffffffff1673ffffffffffffffffffffffffffffffffffffffff16815260200190815260200160002090506000816000015411156109cc57600081600201549050600082600101544261096d9190611c18565b905061097982826105ec565b83600301600082825461098c9190611935565b9250508190555062015180846109a29190611a39565b8360000181905550848360020160008282546109be9190611935565b9250508190555050506109ff565b62015180826109db9190611a39565b8160000181905550828160020160008282546109f79190611935565b925050819055505b505050565b600080610a0f610cbb565b90506000610a1d8286610a9e565b905083811015610a62576040517f08c379a0000000000000000000000000000000000000000000000000000000008152600401610a5990611cbe565b60405180910390fd5b610a6f8286868403610cc3565b60019250505092915050565b600080610a86610cbb565b9050610a93818585610f1a565b600191505092915050565b6000600260008473ffffffffffffffffffffffffffffffffffffffff1673ffffffffffffffffffffffffffffffffffffffff16815260200190815260200160002060008373ffffffffffffffffffffffffffffffffffffffff1673ffffffffffffffffffffffffffffffffffffffff16815260200190815260200160002054905092915050565b610b2d6112d7565b6000600760003373ffffffffffffffffffffffffffffffffffffffff1673ffffffffffffffffffffffffffffffffffffffff168152602001908152602001600020905060008160020154905060008260020181905550600660009054906101000a900473ffffffffffffffffffffffffffffffffffffffff1673ffffffffffffffffffffffffffffffffffffffff1663a9059cbb33836040518363ffffffff1660e01b8152600401610be0929190611cde565b602060405180830381600087803b158015610bfa57600080fd5b505af1158015610c0e573d6000803e3d6000fd5b505050506040513d601f19601f82011682018060405250810190610c329190611beb565b505050565b610c3f611195565b600073ffffffffffffffffffffffffffffffffffffffff168173ffffffffffffffffffffffffffffffffffffffff161415610caf576040517f08c379a0000000000000000000000000000000000000000000000000000000008152600401610ca690611d79565b60405180910390fd5b610cb881611213565b50565b600033905090565b600073ffffffffffffffffffffffffffffffffffffffff168373ffffffffffffffffffffffffffffffffffffffff161415610d33576040517f08c379a0000000000000000000000000000000000000000000000000000000008152600401610d2a90611e0b565b60405180910390fd5b600073ffffffffffffffffffffffffffffffffffffffff168273ffffffffffffffffffffffffffffffffffffffff161415610da3576040517f08c379a0000000000000000000000000000000000000000000000000000000008152600401610d9a90611e9d565b60405180910390fd5b80600260008573ffffffffffffffffffffffffffffffffffffffff1673ffffffffffffffffffffffffffffffffffffffff16815260200190815260200160002060008473ffffffffffffffffffffffffffffffffffffffff1673ffffffffffffffffffffffffffffffffffffffff168152602001908152602001600020819055508173ffffffffffffffffffffffffffffffffffffffff168373ffffffffffffffffffffffffffffffffffffffff167f8c5be1e5ebec7d5bd14f71427d1e84f3dd0314c0f7b2291e5b200ac8c7c3b92583604051610e819190611729565b60405180910390a3505050565b6000610e9a8484610a9e565b90507fffffffffffffffffffffffffffffffffffffffffffffffffffffffffffffffff8114610f145781811015610f06576040517f08c379a0000000000000000000000000000000000000000000000000000000008152600401610efd90611f09565b60405180910390fd5b610f138484848403610cc3565b5b50505050565b600073ffffffffffffffffffffffffffffffffffffffff168373ffffffffffffffffffffffffffffffffffffffff161415610f8a576040517f08c379a0000000000000000000000000000000000000000000000000000000008152600401610f8190611f9b565b60405180910390fd5b600073ffffffffffffffffffffffffffffffffffffffff168273ffffffffffffffffffffffffffffffffffffffff161415610ffa576040517f08c379a0000000000000000000000000000000000000000000000000000000008152600401610ff19061202d565b60405180910390fd5b6110058383836113ee565b6000600160008573ffffffffffffffffffffffffffffffffffffffff1673ffffffffffffffffffffffffffffffffffffffff1681526020019081526020016000205490508181101561108c576040517f08c379a0000000000000000000000000000000000000000000000000000000008152600401611083906120bf565b60405180910390fd5b818103600160008673ffffffffffffffffffffffffffffffffffffffff1673ffffffffffffffffffffffffffffffffffffffff1681526020019081526020016000208190555081600160008573ffffffffffffffffffffffffffffffffffffffff1673ffffffffffffffffffffffffffffffffffffffff168152602001908152602001600020600082825401925050819055508273ffffffffffffffffffffffffffffffffffffffff168473ffffffffffffffffffffffffffffffffffffffff167fddf252ad1be2c89b69c2b068fc378daa952ba7f163c4a11628f55a4df523b3ef8460405161117c9190611729565b60405180910390a361118f8484846113f3565b50505050565b61119d610cbb565b73ffffffffffffffffffffffffffffffffffffffff166111bb610531565b73ffffffffffffffffffffffffffffffffffffffff1614611211576040517f08c379a00000000000000000000000000000000000000000000000000000000081526004016112089061212b565b60405180910390fd5b565b60008060009054906101000a900473ffffffffffffffffffffffffffffffffffffffff169050816000806101000a81548173ffffffffffffffffffffffffffffffffffffffff021916908373ffffffffffffffffffffffffffffffffffffffff1602179055508173ffffffffffffffffffffffffffffffffffffffff168173ffffffffffffffffffffffffffffffffffffffff167f8be0079c531659141344cd1fd0a4f28419497f9722a3daafe3b4186f6b6457e060405160405180910390a35050565b6000600760003373ffffffffffffffffffffffffffffffffffffffff1673ffffffffffffffffffffffffffffffffffffffff16815260200190815260200160002090508060000154421015611361576040517f08c379a000000000000000000000000000000000000000000000000000000000815260040161135890612197565b60405180910390fd5b6000816002015490506000826001015483600001546113809190611c18565b905061138c82826105ec565b83600301600082825461139f9190611935565b9250508190555060008360000181905550600066038d7ea4c68000670de0b6b3a764000085600301546113d29190611a39565b6113dc9190611ac2565b90506113e833826113f8565b50505050565b505050565b505050565b600073ffffffffffffffffffffffffffffffffffffffff168273ffffffffffffffffffffffffffffffffffffffff161415611468576040517f08c379a000000000000000000000000000000000000000000000000000000000815260040161145f90612203565b60405180910390fd5b611474600083836113ee565b80600360008282546114869190611935565b9250508190555080600160008473ffffffffffffffffffffffffffffffffffffffff1673ffffffffffffffffffffffffffffffffffffffff168152602001908152602001600020600082825401925050819055508173ffffffffffffffffffffffffffffffffffffffff16600073ffffffffffffffffffffffffffffffffffffffff167fddf252ad1be2c89b69c2b068fc378daa952ba7f163c4a11628f55a4df523b3ef836040516115389190611729565b60405180910390a361154c600083836113f3565b5050565b600081519050919050565b600082825260208201905092915050565b60005b8381101561158a57808201518184015260208101905061156f565b83811115611599576000848401525b50505050565b6000601f19601f8301169050919050565b60006115bb82611550565b6115c5818561155b565b93506115d581856020860161156c565b6115de8161159f565b840191505092915050565b6000602082019050818103600083015261160381846115b0565b905092915050565b600080fd5b600073ffffffffffffffffffffffffffffffffffffffff82169050919050565b600061163b82611610565b9050919050565b61164b81611630565b811461165657600080fd5b50565b60008135905061166881611642565b92915050565b6000819050919050565b6116818161166e565b811461168c57600080fd5b50565b60008135905061169e81611678565b92915050565b600080604083850312156116bb576116ba61160b565b5b60006116c985828601611659565b92505060206116da8582860161168f565b9150509250929050565b60008115159050919050565b6116f9816116e4565b82525050565b600060208201905061171460008301846116f0565b92915050565b6117238161166e565b82525050565b600060208201905061173e600083018461171a565b92915050565b60008060006060848603121561175d5761175c61160b565b5b600061176b86828701611659565b935050602061177c86828701611659565b925050604061178d8682870161168f565b9150509250925092565b600060ff82169050919050565b6117ad81611797565b82525050565b60006020820190506117c860008301846117a4565b92915050565b6000602082840312156117e4576117e361160b565b5b60006117f284828501611659565b91505092915050565b61180481611630565b82525050565b600060208201905061181f60008301846117fb565b92915050565b6000806040838503121561183c5761183b61160b565b5b600061184a8582860161168f565b925050602061185b8582860161168f565b9150509250929050565b6000806040838503121561187c5761187b61160b565b5b600061188a85828601611659565b925050602061189b85828601611659565b9150509250929050565b7f4e487b7100000000000000000000000000000000000000000000000000000000600052602260045260246000fd5b600060028204905060018216806118ec57607f821691505b60208210811415611900576118ff6118a5565b5b50919050565b7f4e487b7100000000000000000000000000000000000000000000000000000000600052601160045260246000fd5b60006119408261166e565b915061194b8361166e565b9250827fffffffffffffffffffffffffffffffffffffffffffffffffffffffffffffffff038211156119805761197f611906565b5b828201905092915050565b7f616d6f756e74206d7573742062652067726561746572207468616e2031300000600082015250565b60006119c1601e8361155b565b91506119cc8261198b565b602082019050919050565b600060208201905081810360008301526119f0816119b4565b9050919050565b600081519050611a0681611678565b92915050565b600060208284031215611a2257611a2161160b565b5b6000611a30848285016119f7565b91505092915050565b6000611a448261166e565b9150611a4f8361166e565b9250817fffffffffffffffffffffffffffffffffffffffffffffffffffffffffffffffff0483118215151615611a8857611a87611906565b5b828202905092915050565b7f4e487b7100000000000000000000000000000000000000000000000000000000600052601260045260246000fd5b6000611acd8261166e565b9150611ad88361166e565b925082611ae857611ae7611a93565b5b828204905092915050565b6000604082019050611b0860008301856117fb565b611b1560208301846117fb565b9392505050565b7f616d6f756e7420746f206c6f636b206d75737420626520617070726f76656400600082015250565b6000611b52601f8361155b565b9150611b5d82611b1c565b602082019050919050565b60006020820190508181036000830152611b8181611b45565b9050919050565b6000606082019050611b9d60008301866117fb565b611baa60208301856117fb565b611bb7604083018461171a565b949350505050565b611bc8816116e4565b8114611bd357600080fd5b50565b600081519050611be581611bbf565b92915050565b600060208284031215611c0157611c0061160b565b5b6000611c0f84828501611bd6565b91505092915050565b6000611c238261166e565b9150611c2e8361166e565b925082821015611c4157611c40611906565b5b828203905092915050565b7f45524332303a2064656372656173656420616c6c6f77616e63652062656c6f7760008201527f207a65726f000000000000000000000000000000000000000000000000000000602082015250565b6000611ca860258361155b565b9150611cb382611c4c565b604082019050919050565b60006020820190508181036000830152611cd781611c9b565b9050919050565b6000604082019050611cf360008301856117fb565b611d00602083018461171a565b9392505050565b7f4f776e61626c653a206e6577206f776e657220697320746865207a65726f206160008201527f6464726573730000000000000000000000000000000000000000000000000000602082015250565b6000611d6360268361155b565b9150611d6e82611d07565b604082019050919050565b60006020820190508181036000830152611d9281611d56565b9050919050565b7f45524332303a20617070726f76652066726f6d20746865207a65726f2061646460008201527f7265737300000000000000000000000000000000000000000000000000000000602082015250565b6000611df560248361155b565b9150611e0082611d99565b604082019050919050565b60006020820190508181036000830152611e2481611de8565b9050919050565b7f45524332303a20617070726f766520746f20746865207a65726f20616464726560008201527f7373000000000000000000000000000000000000000000000000000000000000602082015250565b6000611e8760228361155b565b9150611e9282611e2b565b604082019050919050565b60006020820190508181036000830152611eb681611e7a565b9050919050565b7f45524332303a20696e73756666696369656e7420616c6c6f77616e6365000000600082015250565b6000611ef3601d8361155b565b9150611efe82611ebd565b602082019050919050565b60006020820190508181036000830152611f2281611ee6565b9050919050565b7f45524332303a207472616e736665722066726f6d20746865207a65726f20616460008201527f6472657373000000000000000000000000000000000000000000000000000000602082015250565b6000611f8560258361155b565b9150611f9082611f29565b604082019050919050565b60006020820190508181036000830152611fb481611f78565b9050919050565b7f45524332303a207472616e7366657220746f20746865207a65726f206164647260008201527f6573730000000000000000000000000000000000000000000000000000000000602082015250565b600061201760238361155b565b915061202282611fbb565b604082019050919050565b600060208201905081810360008301526120468161200a565b9050919050565b7f45524332303a207472616e7366657220616d6f756e742065786365656473206260008201527f616c616e63650000000000000000000000000000000000000000000000000000602082015250565b60006120a960268361155b565b91506120b48261204d565b604082019050919050565b600060208201905081810360008301526120d88161209c565b9050919050565b7f4f776e61626c653a2063616c6c6572206973206e6f7420746865206f776e6572600082015250565b600061211560208361155b565b9150612120826120df565b602082019050919050565b6000602082019050818103600083015261214481612108565b9050919050565b7f576169742074696c6c20697427732074696d6520746f20686172766573740000600082015250565b6000612181601e8361155b565b915061218c8261214b565b602082019050919050565b600060208201905081810360008301526121b081612174565b9050919050565b7f45524332303a206d696e7420746f20746865207a65726f206164647265737300600082015250565b60006121ed601f8361155b565b91506121f8826121b7565b602082019050919050565b6000602082019050818103600083015261221c816121e0565b905091905056fea2646970667358221220e6cfc26c673c2f3de5252af61748d10bf337c9534f38a87ace2a7e1ea15ebe3c64736f6c63430008090033",
  "linkReferences": {},
  "deployedLinkReferences": {}
}