{
"_format": "hh-sol-artifact-1",
"contractName": "LendPool",
"sourceName": "contracts/LendPool.sol",
"abi": [
{
"inputs": [
{
"internalType": "contract IERC20",
"name": "_maticContractAddress",
"type": "address"
}
],
"stateMutability": "nonpayable",
"type": "constructor"
},
{
"inputs": [
{
"internalType": "string",
"name": "",
"type": "string"
}
],
"name": "alreadyExist",
"type": "error"
},
{
"inputs": [
{
"internalType": "string",
"name": "",
"type": "string"
}
],
"name": "amountExceeded",
"type": "error"
},
{
"inputs": [
{
"internalType": "string",
"name": "",
"type": "string"
}
],
"name": "mustApprove",
"type": "error"
},
{
"inputs": [
{
"internalType": "string",
"name": "",
"type": "string"
}
],
"name": "mustApproved",
"type": "error"
},
{
"anonymous": false,
"inputs": [
{
"indexed": true,
"internalType": "address",
"name": "owner",
"type": "address"
},
{
"indexed": true,
"internalType": "address",
"name": "spender",
"type": "address"
},
{
"indexed": false,
"internalType": "uint256",
"name": "value",
"type": "uint256"
}
],
"name": "Approval",
"type": "event"
},
{
"anonymous": false,
"inputs": [
{
"indexed": false,
"internalType": "uint256",
"name": "_amountToBorrow",
"type": "uint256"
},
{
"indexed": false,
"internalType": "uint256",
"name": "_loanCompleteTime",
"type": "uint256"
},
{
"indexed": false,
"internalType": "uint256",
"name": "_amountToRepay",
"type": "uint256"
},
{
"indexed": false,
"internalType": "uint256",
"name": "_tokenId",
"type": "uint256"
}
],
"name": "Borrow",
"type": "event"
},
{
"anonymous": false,
"inputs": [
{
"indexed": true,
"internalType": "address",
"name": "previousOwner",
"type": "address"
},
{
"indexed": true,
"internalType": "address",
"name": "newOwner",
"type": "address"
}
],
"name": "OwnershipTransferred",
"type": "event"
},
{
"anonymous": false,
"inputs": [
{
"indexed": true,
"internalType": "address",
"name": "from",
"type": "address"
},
{
"indexed": true,
"internalType": "address",
"name": "to",
"type": "address"
},
{
"indexed": false,
"internalType": "uint256",
"name": "value",
"type": "uint256"
}
],
"name": "Transfer",
"type": "event"
},
{
"inputs": [],
"name": "FACTOR",
"outputs": [
{
"internalType": "uint256",
"name": "",
"type": "uint256"
}
],
"stateMutability": "view",
"type": "function"
},
{
"inputs": [
{
"internalType": "address",
"name": "",
"type": "address"
}
],
"name": "Loans",
"outputs": [
{
"internalType": "contract IERC721",
"name": "tokenAddress",
"type": "address"
},
{
"internalType": "uint256",
"name": "tokenId",
"type": "uint256"
},
{
"internalType": "uint256",
"name": "loanAmount",
"type": "uint256"
},
{
"internalType": "uint256",
"name": "loanCompleteTime",
"type": "uint256"
},
{
"internalType": "uint256",
"name": "amountToRepay",
"type": "uint256"
},
{
"internalType": "uint256",
"name": "timeOfLoan",
"type": "uint256"
},
{
"internalType": "bool",
"name": "_onLoan",
"type": "bool"
}
],
"stateMutability": "view",
"type": "function"
},
{
"inputs": [],
"name": "TokenDecimals",
"outputs": [
{
"internalType": "uint8",
"name": "",
"type": "uint8"
}
],
"stateMutability": "view",
"type": "function"
},
{
"inputs": [],
"name": "TokenName",
"outputs": [
{
"internalType": "string",
"name": "",
"type": "string"
}
],
"stateMutability": "view",
"type": "function"
},
{
"inputs": [],
"name": "TokenSymbol",
"outputs": [
{
"internalType": "string",
"name": "",
"type": "string"
}
],
"stateMutability": "view",
"type": "function"
},
{
"inputs": [
{
"internalType": "contract AggregatorV3Interface",
"name": "nftFloorPriceFeed",
"type": "address"
}
],
"name": "_amountLoanable",
"outputs": [
{
"internalType": "uint256",
"name": "loanable",
"type": "uint256"
}
],
"stateMutability": "view",
"type": "function"
},
{
"inputs": [
{
"internalType": "address",
"name": "_nftContractAddress",
"type": "address"
}
],
"name": "activeCollection",
"outputs": [
{
"internalType": "uint256",
"name": "",
"type": "uint256"
}
],
"stateMutability": "view",
"type": "function"
},
{
"inputs": [
{
"internalType": "address",
"name": "owner",
"type": "address"
},
{
"internalType": "address",
"name": "spender",
"type": "address"
}
],
"name": "allowance",
"outputs": [
{
"internalType": "uint256",
"name": "",
"type": "uint256"
}
],
"stateMutability": "view",
"type": "function"
},
{
"inputs": [],
"name": "amountForLiquidity",
"outputs": [
{
"internalType": "uint256",
"name": "",
"type": "uint256"
}
],
"stateMutability": "view",
"type": "function"
},
{
"inputs": [
{
"internalType": "address",
"name": "spender",
"type": "address"
},
{
"internalType": "uint256",
"name": "amount",
"type": "uint256"
}
],
"name": "approve",
"outputs": [
{
"internalType": "bool",
"name": "",
"type": "bool"
}
],
"stateMutability": "nonpayable",
"type": "function"
},
{
"inputs": [
{
"internalType": "contract IERC721",
"name": "_nftContractAddress",
"type": "address"
}
],
"name": "availableToBorrow",
"outputs": [
{
"internalType": "uint256",
"name": "loanable",
"type": "uint256"
}
],
"stateMutability": "view",
"type": "function"
},
{
"inputs": [
{
"internalType": "address",
"name": "account",
"type": "address"
}
],
"name": "balanceOf",
"outputs": [
{
"internalType": "uint256",
"name": "",
"type": "uint256"
}
],
"stateMutability": "view",
"type": "function"
},
{
"inputs": [
{
"internalType": "address",
"name": "_addr",
"type": "address"
}
],
"name": "balanceOfBMatic",
"outputs": [
{
"internalType": "uint256",
"name": "",
"type": "uint256"
}
],
"stateMutability": "view",
"type": "function"
},
{
"inputs": [
{
"internalType": "contract IERC721",
"name": "_tokenAddress",
"type": "address"
},
{
"internalType": "uint256",
"name": "_tokenId",
"type": "uint256"
},
{
"internalType": "uint256",
"name": "_loanCompleteTime",
"type": "uint256"
},
{
"internalType": "uint256",
"name": "_amountToBorrow",
"type": "uint256"
}
],
"name": "borrowLoan",
"outputs": [],
"stateMutability": "nonpayable",
"type": "function"
},
{
"inputs": [],
"name": "decimals",
"outputs": [
{
"internalType": "uint8",
"name": "",
"type": "uint8"
}
],
"stateMutability": "view",
"type": "function"
},
{
"inputs": [
{
"internalType": "address",
"name": "spender",
"type": "address"
},
{
"internalType": "uint256",
"name": "subtractedValue",
"type": "uint256"
}
],
"name": "decreaseAllowance",
"outputs": [
{
"internalType": "bool",
"name": "",
"type": "bool"
}
],
"stateMutability": "nonpayable",
"type": "function"
},
{
"inputs": [
{
"internalType": "uint256",
"name": "_amount",
"type": "uint256"
},
{
"internalType": "address",
"name": "_depositor",
"type": "address"
}
],
"name": "deposit",
"outputs": [],
"stateMutability": "nonpayable",
"type": "function"
},
{
"inputs": [
{
"internalType": "address",
"name": "account",
"type": "address"
},
{
"internalType": "uint256",
"name": "amount",
"type": "uint256"
}
],
"name": "depositFor",
"outputs": [
{
"internalType": "bool",
"name": "",
"type": "bool"
}
],
"stateMutability": "nonpayable",
"type": "function"
},
{
"inputs": [
{
"internalType": "contract IERC721",
"name": "_NFTAddress",
"type": "address"
}
],
"name": "getSupportedNFT",
"outputs": [
{
"internalType": "bool",
"name": "",
"type": "bool"
}
],
"stateMutability": "view",
"type": "function"
},
{
"inputs": [
{
"internalType": "address",
"name": "spender",
"type": "address"
},
{
"internalType": "uint256",
"name": "addedValue",
"type": "uint256"
}
],
"name": "increaseAllowance",
"outputs": [
{
"internalType": "bool",
"name": "",
"type": "bool"
}
],
"stateMutability": "nonpayable",
"type": "function"
},
{
"inputs": [],
"name": "interestRate",
"outputs": [
{
"internalType": "uint40",
"name": "",
"type": "uint40"
}
],
"stateMutability": "view",
"type": "function"
},
{
"inputs": [],
"name": "maticContractAddress",
"outputs": [
{
"internalType": "contract IERC20",
"name": "",
"type": "address"
}
],
"stateMutability": "view",
"type": "function"
},
{
"inputs": [],
"name": "minRate",
"outputs": [
{
"internalType": "uint256",
"name": "",
"type": "uint256"
}
],
"stateMutability": "view",
"type": "function"
},
{
"inputs": [
{
"internalType": "address",
"name": "_receiver",
"type": "address"
},
{
"internalType": "address",
"name": "_tokenContractAddress",
"type": "address"
},
{
"internalType": "uint256",
"name": "_amount",
"type": "uint256"
}
],
"name": "movingGeneric",
"outputs": [],
"stateMutability": "nonpayable",
"type": "function"
},
{
"inputs": [],
"name": "name",
"outputs": [
{
"internalType": "string",
"name": "",
"type": "string"
}
],
"stateMutability": "view",
"type": "function"
},
{
"inputs": [],
"name": "owner",
"outputs": [
{
"internalType": "address",
"name": "",
"type": "address"
}
],
"stateMutability": "view",
"type": "function"
},
{
"inputs": [],
"name": "profitMade",
"outputs": [
{
"internalType": "uint256",
"name": "",
"type": "uint256"
}
],
"stateMutability": "view",
"type": "function"
},
{
"inputs": [],
"name": "renounceOwnership",
"outputs": [],
"stateMutability": "nonpayable",
"type": "function"
},
{
"inputs": [],
"name": "repayLoan",
"outputs": [],
"stateMutability": "nonpayable",
"type": "function"
},
{
"inputs": [
{
"internalType": "contract IERC721",
"name": "",
"type": "address"
}
],
"name": "setFloorPrice",
"outputs": [
{
"internalType": "uint256",
"name": "",
"type": "uint256"
}
],
"stateMutability": "view",
"type": "function"
},
{
"inputs": [
{
"internalType": "uint40",
"name": "_interestRate",
"type": "uint40"
},
{
"internalType": "uint256",
"name": "_factor",
"type": "uint256"
}
],
"name": "setInterestRate",
"outputs": [],
"stateMutability": "nonpayable",
"type": "function"
},
{
"inputs": [
{
"internalType": "contract IERC721",
"name": "_nftContractAddress",
"type": "address"
},
{
"internalType": "uint256",
"name": "_amount",
"type": "uint256"
}
],
"name": "setNFTFloorPrice",
"outputs": [],
"stateMutability": "nonpayable",
"type": "function"
},
{
"inputs": [
{
"internalType": "contract IERC721",
"name": "_NFTAddress",
"type": "address"
}
],
"name": "setSupportedNFT",
"outputs": [],
"stateMutability": "nonpayable",
"type": "function"
},
{
"inputs": [
{
"internalType": "contract IERC721",
"name": "",
"type": "address"
}
],
"name": "supportedNFTAddress",
"outputs": [
{
"internalType": "bool",
"name": "",
"type": "bool"
}
],
"stateMutability": "view",
"type": "function"
},
{
"inputs": [],
"name": "symbol",
"outputs": [
{
"internalType": "string",
"name": "",
"type": "string"
}
],
"stateMutability": "view",
"type": "function"
},
{
"inputs": [],
"name": "totalAmountBorrowed",
"outputs": [
{
"internalType": "uint256",
"name": "",
"type": "uint256"
}
],
"stateMutability": "view",
"type": "function"
},
{
"inputs": [],
"name": "totalSupply",
"outputs": [
{
"internalType": "uint256",
"name": "",
"type": "uint256"
}
],
"stateMutability": "view",
"type": "function"
},
{
"inputs": [
{
"internalType": "address",
"name": "to",
"type": "address"
},
{
"internalType": "uint256",
"name": "amount",
"type": "uint256"
}
],
"name": "transfer",
"outputs": [
{
"internalType": "bool",
"name": "",
"type": "bool"
}
],
"stateMutability": "nonpayable",
"type": "function"
},
{
"inputs": [
{
"internalType": "address",
"name": "from",
"type": "address"
},
{
"internalType": "address",
"name": "to",
"type": "address"
},
{
"internalType": "uint256",
"name": "amount",
"type": "uint256"
}
],
"name": "transferFrom",
"outputs": [
{
"internalType": "bool",
"name": "",
"type": "bool"
}
],
"stateMutability": "nonpayable",
"type": "function"
},
{
"inputs": [
{
"internalType": "address",
"name": "newOwner",
"type": "address"
}
],
"name": "transferOwnership",
"outputs": [],
"stateMutability": "nonpayable",
"type": "function"
},
{
"inputs": [],
"name": "underlying",
"outputs": [
{
"internalType": "contract IERC20",
"name": "",
"type": "address"
}
],
"stateMutability": "view",
"type": "function"
},
{
"inputs": [
{
"internalType": "address",
"name": "_newAdmin",
"type": "address"
}
],
"name": "updateAdmin",
"outputs": [],
"stateMutability": "nonpayable",
"type": "function"
},
{
"inputs": [],
"name": "valueInReserve",
"outputs": [
{
"internalType": "uint256",
"name": "",
"type": "uint256"
}
],
"stateMutability": "view",
"type": "function"
},
{
"inputs": [
{
"internalType": "uint256",
"name": "_amount",
"type": "uint256"
},
{
"internalType": "address",
"name": "_depositor",
"type": "address"
}
],
"name": "withdraw",
"outputs": [],
"stateMutability": "nonpayable",
"type": "function"
},
{
"inputs": [
{
"internalType": "address",
"name": "account",
"type": "address"
},
{
"internalType": "uint256",
"name": "amount",
"type": "uint256"
}
],
"name": "withdrawTo",
"outputs": [
{
"internalType": "bool",
"name": "",
"type": "bool"
}
],
"stateMutability": "nonpayable",
"type": "function"
}
],
"bytecode": "0x60c060405260326008553480156200001657600080fd5b506040516200495e3803806200495e83398181016040528101906200003c9190620003c0565b80816040518060400160405280600d81526020017f4465706f736974204d61746963000000000000000000000000000000000000008152506040518060400160405280600681526020017f444d6174696300000000000000000000000000000000000000000000000000008152508160039080519060200190620000c292919062000292565b508060049080519060200190620000db92919062000292565b5050508073ffffffffffffffffffffffffffffffffffffffff1660808173ffffffffffffffffffffffffffffffffffffffff1681525050506200013362000127620001c460201b60201c565b620001cc60201b60201c565b8073ffffffffffffffffffffffffffffffffffffffff1660a08173ffffffffffffffffffffffffffffffffffffffff16815250505073d4a33860578de61dbabdc8bfdb98fd742fa7028e600760006101000a81548173ffffffffffffffffffffffffffffffffffffffff021916908373ffffffffffffffffffffffffffffffffffffffff1602179055505062000457565b600033905090565b6000600560009054906101000a900473ffffffffffffffffffffffffffffffffffffffff16905081600560006101000a81548173ffffffffffffffffffffffffffffffffffffffff021916908373ffffffffffffffffffffffffffffffffffffffff1602179055508173ffffffffffffffffffffffffffffffffffffffff168173ffffffffffffffffffffffffffffffffffffffff167f8be0079c531659141344cd1fd0a4f28419497f9722a3daafe3b4186f6b6457e060405160405180910390a35050565b828054620002a09062000421565b90600052602060002090601f016020900481019282620002c4576000855562000310565b82601f10620002df57805160ff191683800117855562000310565b8280016001018555821562000310579182015b828111156200030f578251825591602001919060010190620002f2565b5b5090506200031f919062000323565b5090565b5b808211156200033e57600081600090555060010162000324565b5090565b600080fd5b600073ffffffffffffffffffffffffffffffffffffffff82169050919050565b6000620003748262000347565b9050919050565b6000620003888262000367565b9050919050565b6200039a816200037b565b8114620003a657600080fd5b50565b600081519050620003ba816200038f565b92915050565b600060208284031215620003d957620003d862000342565b5b6000620003e984828501620003a9565b91505092915050565b7f4e487b7100000000000000000000000000000000000000000000000000000000600052602260045260246000fd5b600060028204905060018216806200043a57607f821691505b60208210811415620004515762000450620003f2565b5b50919050565b60805160a0516144b7620004a760003960008181610fac0152818161149e015281816125b801526126a4015260008181610ae601528181610c0901528181610c4f0152610e1701526144b76000f3fe608060405234801561001057600080fd5b506004361061027d5760003560e01c8063735b19151161015c578063a925e4a4116100ce578063e2f273bd11610087578063e2f273bd14610808578063e5130a2914610824578063f27cb27014610854578063f2fde38b14610884578063f317dba5146108a0578063f966ade7146108bc5761027d565b8063a925e4a41461071a578063ab600f1a14610750578063b6d7855a1461076c578063d08ad8731461078a578063db555a92146107ba578063dd62ed3e146107d85761027d565b806395d89b411161012057806395d89b41146106305780639cd7756f1461064e578063a11b8f8c1461066c578063a40e3c9d1461069c578063a457c2d7146106ba578063a9059cbb146106ea5761027d565b8063735b19151461059c5780637c3a00fd146105ba5780638da5cb5b146105d857806394784ebb146105f6578063958505dd146106125761027d565b80632c38199e116101f55780633f890e00116101b95780633f890e00146104dc57806345bcfbee1461050c5780636e553f65146105285780636f307dc31461054457806370a0823114610562578063715018a6146105925761027d565b80632c38199e146104105780632f4f21e214610440578063313ce5671461047057806335815b951461048e57806339509351146104ac5761027d565b8063095ea7b311610247578063095ea7b3146103145780630cb604431461034457806318160ddd14610362578063205c28781461038057806323b872dd146103b057806329370146146103e05761027d565b8062c8fbd414610282578062f714ce146102a057806304a158f6146102bc57806306fdde03146102d85780630910d1b0146102f6575b600080fd5b61028a6108c6565b6040516102979190612cac565b60405180910390f35b6102ba60048036038101906102b59190612d67565b6108ff565b005b6102d660048036038101906102d19190612de5565b61090d565b005b6102e0610a04565b6040516102ed9190612cac565b60405180910390f35b6102fe610a96565b60405161030b9190612e2e565b60405180910390f35b61032e60048036038101906103299190612e49565b610a9b565b60405161033b9190612ea4565b60405180910390f35b61034c610abe565b6040516103599190612ece565b60405180910390f35b61036a610ac4565b6040516103779190612ece565b60405180910390f35b61039a60048036038101906103959190612e49565b610ace565b6040516103a79190612ea4565b60405180910390f35b6103ca60048036038101906103c59190612ee9565b610b16565b6040516103d79190612ea4565b60405180910390f35b6103fa60048036038101906103f59190612de5565b610b45565b6040516104079190612ea4565b60405180910390f35b61042a60048036038101906104259190612de5565b610b9b565b6040516104379190612ece565b60405180910390f35b61045a60048036038101906104559190612e49565b610c02565b6040516104679190612ea4565b60405180910390f35b610478610c4b565b6040516104859190612e2e565b60405180910390f35b610496610cff565b6040516104a39190612ece565b60405180910390f35b6104c660048036038101906104c19190612e49565b610d05565b6040516104d39190612ea4565b60405180910390f35b6104f660048036038101906104f19190612f7a565b610d3c565b6040516105039190612ece565b60405180910390f35b61052660048036038101906105219190612ee9565b610d6c565b005b610542600480360381019061053d9190612d67565b610e07565b005b61054c610e15565b6040516105599190613006565b60405180910390f35b61057c60048036038101906105779190613021565b610e39565b6040516105899190612ece565b60405180910390f35b61059a610e81565b005b6105a4610e95565b6040516105b19190612ece565b60405180910390f35b6105c2610e9b565b6040516105cf919061306e565b60405180910390f35b6105e0610eb2565b6040516105ed9190613098565b60405180910390f35b610610600480360381019061060b91906130df565b610edc565b005b61061a610f12565b6040516106279190612ece565b60405180910390f35b610638610f18565b6040516106459190612cac565b60405180910390f35b610656610faa565b6040516106639190613006565b60405180910390f35b61068660048036038101906106819190612de5565b610fce565b6040516106939190612ea4565b60405180910390f35b6106a4610fee565b6040516106b19190612ece565b60405180910390f35b6106d460048036038101906106cf9190612e49565b610ff4565b6040516106e19190612ea4565b60405180910390f35b61070460048036038101906106ff9190612e49565b61106b565b6040516107119190612ea4565b60405180910390f35b610734600480360381019061072f9190613021565b61108e565b6040516107479796959493929190613140565b60405180910390f35b61076a600480360381019061076591906131af565b6110fd565b005b610774611449565b6040516107819190612cac565b60405180910390f35b6107a4600480360381019061079f9190612de5565b611482565b6040516107b19190612ece565b60405180910390f35b6107c261149a565b6040516107cf9190612ece565b60405180910390f35b6107f260048036038101906107ed9190613216565b61154a565b6040516107ff9190612ece565b60405180910390f35b610822600480360381019061081d9190613021565b6115d1565b005b61083e60048036038101906108399190613021565b6115e5565b60405161084b9190612ece565b60405180910390f35b61086e60048036038101906108699190613021565b6115f7565b60405161087b9190612ece565b60405180910390f35b61089e60048036038101906108999190613021565b611640565b005b6108ba60048036038101906108b59190613256565b6116c4565b005b6108c4611714565b005b6040518060400160405280600681526020017f424d61746963000000000000000000000000000000000000000000000000000081525081565b6109098282611839565b5050565b610915611848565b60011515600b60008373ffffffffffffffffffffffffffffffffffffffff1673ffffffffffffffffffffffffffffffffffffffff16815260200190815260200160002060009054906101000a900460ff16151514156109a9576040517fcf9faa3c0000000000000000000000000000000000000000000000000000000081526004016109a0906132e2565b60405180910390fd5b6001600b60008373ffffffffffffffffffffffffffffffffffffffff1673ffffffffffffffffffffffffffffffffffffffff16815260200190815260200160002060006101000a81548160ff02191690831515021790555050565b606060038054610a1390613331565b80601f0160208091040260200160405190810160405280929190818152602001828054610a3f90613331565b8015610a8c5780601f10610a6157610100808354040283529160200191610a8c565b820191906000526020600020905b815481529060010190602001808311610a6f57829003601f168201915b5050505050905090565b601281565b600080610aa66118c6565b9050610ab38185856118ce565b600191505092915050565b60085481565b6000600254905090565b6000610ae1610adb6118c6565b83611a99565b610b0c7f00000000000000000000000000000000000000000000000000000000000000008484611c67565b6001905092915050565b600080610b216118c6565b9050610b2e858285611ced565b610b39858585611d79565b60019150509392505050565b6000600b60008373ffffffffffffffffffffffffffffffffffffffff1673ffffffffffffffffffffffffffffffffffffffff16815260200190815260200160002060009054906101000a900460ff169050919050565b600080600660008473ffffffffffffffffffffffffffffffffffffffff1673ffffffffffffffffffffffffffffffffffffffff168152602001908152602001600020549050606460085482610bf09190613392565b610bfa919061341b565b915050919050565b6000610c377f0000000000000000000000000000000000000000000000000000000000000000610c306118c6565b3085611ff1565b610c41838361207a565b6001905092915050565b60007f000000000000000000000000000000000000000000000000000000000000000073ffffffffffffffffffffffffffffffffffffffff1663313ce5676040518163ffffffff1660e01b815260040160206040518083038186803b158015610cb357600080fd5b505afa925050508015610ce457506040513d601f19601f82011682018060405250810190610ce19190613478565b60015b610cf757610cf06121d1565b9050610cfc565b809150505b90565b600d5481565b600080610d106118c6565b9050610d31818585610d22858961154a565b610d2c91906134a5565b6118ce565b600191505092915050565b600080610d48836121da565b9050606460085482610d5a9190613392565b610d64919061341b565b915050919050565b610d74611848565b8173ffffffffffffffffffffffffffffffffffffffff1663a9059cbb84836040518363ffffffff1660e01b8152600401610daf9291906134fb565b602060405180830381600087803b158015610dc957600080fd5b505af1158015610ddd573d6000803e3d6000fd5b505050506040513d601f19601f82011682018060405250810190610e019190613550565b50505050565b610e11828261221c565b5050565b7f000000000000000000000000000000000000000000000000000000000000000081565b60008060008373ffffffffffffffffffffffffffffffffffffffff1673ffffffffffffffffffffffffffffffffffffffff168152602001908152602001600020549050919050565b610e89611848565b610e93600061222b565b565b600e5481565b600c60009054906101000a900464ffffffffff1681565b6000600560009054906101000a900473ffffffffffffffffffffffffffffffffffffffff16905090565b610ee4611848565b81600c60006101000a81548164ffffffffff021916908364ffffffffff16021790555080600d819055505050565b60105481565b606060048054610f2790613331565b80601f0160208091040260200160405190810160405280929190818152602001828054610f5390613331565b8015610fa05780601f10610f7557610100808354040283529160200191610fa0565b820191906000526020600020905b815481529060010190602001808311610f8357829003601f168201915b5050505050905090565b7f000000000000000000000000000000000000000000000000000000000000000081565b600b6020528060005260406000206000915054906101000a900460ff1681565b600f5481565b600080610fff6118c6565b9050600061100d828661154a565b905083811015611052576040517f08c379a0000000000000000000000000000000000000000000000000000000008152600401611049906135ef565b60405180910390fd5b61105f82868684036118ce565b60019250505092915050565b6000806110766118c6565b9050611083818585611d79565b600191505092915050565b600a6020528060005260406000206000915090508060000160009054906101000a900473ffffffffffffffffffffffffffffffffffffffff16908060010154908060020154908060030154908060040154908060050154908060060160009054906101000a900460ff16905087565b6000600a60003373ffffffffffffffffffffffffffffffffffffffff1673ffffffffffffffffffffffffffffffffffffffff16815260200190815260200160002090508060060160009054906101000a900460ff1615611192576040517f08c379a00000000000000000000000000000000000000000000000000000000081526004016111899061365b565b60405180910390fd5b4262278d006111a191906134a5565b4262015180856111b19190613392565b6111bb91906134a5565b106111fb576040517f08c379a00000000000000000000000000000000000000000000000000000000081526004016111f2906136ed565b60405180910390fd5b4242620151808561120c9190613392565b61121691906134a5565b116112245761122361370d565b5b60011515600b60008773ffffffffffffffffffffffffffffffffffffffff1673ffffffffffffffffffffffffffffffffffffffff16815260200190815260200160002060009054906101000a900460ff161515146112b7576040517f08c379a00000000000000000000000000000000000000000000000000000000081526004016112ae90613788565b60405180910390fd5b6112c085610b9b565b821115611302576040517fdd910b530000000000000000000000000000000000000000000000000000000081526004016112f9906137f4565b60405180910390fd5b848160000160006101000a81548173ffffffffffffffffffffffffffffffffffffffff021916908373ffffffffffffffffffffffffffffffffffffffff1602179055508381600101819055508181600201819055504262015180846113679190613392565b61137191906134a5565b81600301819055504281600501819055506000611393838360030154426122f1565b9050600081846113a391906134a5565b90508083600401819055506113b933878961234a565b6113c333826124ba565b6113cd3385612514565b60018360060160006101000a81548160ff02191690831515021790555083600e60008282546113fc91906134a5565b925050819055507ffc2baa24cbbf617bfa430e509fa2184b87665b3272db852e583b677125dfc3cb848683426040516114389493929190613814565b60405180910390a150505050505050565b6040518060400160405280600e81526020017f426f72726f776572204d6174696300000000000000000000000000000000000081525081565b60066020528060005260406000206000915090505481565b60007f000000000000000000000000000000000000000000000000000000000000000073ffffffffffffffffffffffffffffffffffffffff166370a08231306040518263ffffffff1660e01b81526004016114f59190613098565b60206040518083038186803b15801561150d57600080fd5b505afa158015611521573d6000803e3d6000fd5b505050506040513d601f19601f82011682018060405250810190611545919061386e565b905090565b6000600160008473ffffffffffffffffffffffffffffffffffffffff1673ffffffffffffffffffffffffffffffffffffffff16815260200190815260200160002060008373ffffffffffffffffffffffffffffffffffffffff1673ffffffffffffffffffffffffffffffffffffffff16815260200190815260200160002054905092915050565b6115d9611848565b6115e281611640565b50565b60006115f082612523565b9050919050565b6000600960008373ffffffffffffffffffffffffffffffffffffffff1673ffffffffffffffffffffffffffffffffffffffff168152602001908152602001600020549050919050565b611648611848565b600073ffffffffffffffffffffffffffffffffffffffff168173ffffffffffffffffffffffffffffffffffffffff1614156116b8576040517f08c379a00000000000000000000000000000000000000000000000000000000081526004016116af9061390d565b60405180910390fd5b6116c18161222b565b50565b6116cc611848565b80600660008473ffffffffffffffffffffffffffffffffffffffff1673ffffffffffffffffffffffffffffffffffffffff168152602001908152602001600020819055505050565b6000600a60003373ffffffffffffffffffffffffffffffffffffffff1673ffffffffffffffffffffffffffffffffffffffff16815260200190815260200160002090508060060160009054906101000a900460ff166117a8576040517f08c379a000000000000000000000000000000000000000000000000000000000815260040161179f90613979565b60405180910390fd5b6117ba336117b5336115f7565b6125b5565b6117ed3382600101548360000160009054906101000a900473ffffffffffffffffffffffffffffffffffffffff16612756565b6117ff336117fa336115f7565b6127ca565b60008160060160006101000a81548160ff021916908315150217905550806002015481600401546118309190613999565b60108190555050565b6118438183610ace565b505050565b6118506118c6565b73ffffffffffffffffffffffffffffffffffffffff1661186e610eb2565b73ffffffffffffffffffffffffffffffffffffffff16146118c4576040517f08c379a00000000000000000000000000000000000000000000000000000000081526004016118bb90613a19565b60405180910390fd5b565b600033905090565b600073ffffffffffffffffffffffffffffffffffffffff168373ffffffffffffffffffffffffffffffffffffffff16141561193e576040517f08c379a000000000000000000000000000000000000000000000000000000000815260040161193590613aab565b60405180910390fd5b600073ffffffffffffffffffffffffffffffffffffffff168273ffffffffffffffffffffffffffffffffffffffff1614156119ae576040517f08c379a00000000000000000000000000000000000000000000000000000000081526004016119a590613b3d565b60405180910390fd5b80600160008573ffffffffffffffffffffffffffffffffffffffff1673ffffffffffffffffffffffffffffffffffffffff16815260200190815260200160002060008473ffffffffffffffffffffffffffffffffffffffff1673ffffffffffffffffffffffffffffffffffffffff168152602001908152602001600020819055508173ffffffffffffffffffffffffffffffffffffffff168373ffffffffffffffffffffffffffffffffffffffff167f8c5be1e5ebec7d5bd14f71427d1e84f3dd0314c0f7b2291e5b200ac8c7c3b92583604051611a8c9190612ece565b60405180910390a3505050565b600073ffffffffffffffffffffffffffffffffffffffff168273ffffffffffffffffffffffffffffffffffffffff161415611b09576040517f08c379a0000000000000000000000000000000000000000000000000000000008152600401611b0090613bcf565b60405180910390fd5b611b1582600083612824565b60008060008473ffffffffffffffffffffffffffffffffffffffff1673ffffffffffffffffffffffffffffffffffffffff16815260200190815260200160002054905081811015611b9b576040517f08c379a0000000000000000000000000000000000000000000000000000000008152600401611b9290613c61565b60405180910390fd5b8181036000808573ffffffffffffffffffffffffffffffffffffffff1673ffffffffffffffffffffffffffffffffffffffff1681526020019081526020016000208190555081600260008282540392505081905550600073ffffffffffffffffffffffffffffffffffffffff168373ffffffffffffffffffffffffffffffffffffffff167fddf252ad1be2c89b69c2b068fc378daa952ba7f163c4a11628f55a4df523b3ef84604051611c4e9190612ece565b60405180910390a3611c6283600084612829565b505050565b611ce88363a9059cbb60e01b8484604051602401611c869291906134fb565b604051602081830303815290604052907bffffffffffffffffffffffffffffffffffffffffffffffffffffffff19166020820180517bffffffffffffffffffffffffffffffffffffffffffffffffffffffff838183161783525050505061282e565b505050565b6000611cf9848461154a565b90507fffffffffffffffffffffffffffffffffffffffffffffffffffffffffffffffff8114611d735781811015611d65576040517f08c379a0000000000000000000000000000000000000000000000000000000008152600401611d5c90613ccd565b60405180910390fd5b611d7284848484036118ce565b5b50505050565b600073ffffffffffffffffffffffffffffffffffffffff168373ffffffffffffffffffffffffffffffffffffffff161415611de9576040517f08c379a0000000000000000000000000000000000000000000000000000000008152600401611de090613d5f565b60405180910390fd5b600073ffffffffffffffffffffffffffffffffffffffff168273ffffffffffffffffffffffffffffffffffffffff161415611e59576040517f08c379a0000000000000000000000000000000000000000000000000000000008152600401611e5090613df1565b60405180910390fd5b611e64838383612824565b60008060008573ffffffffffffffffffffffffffffffffffffffff1673ffffffffffffffffffffffffffffffffffffffff16815260200190815260200160002054905081811015611eea576040517f08c379a0000000000000000000000000000000000000000000000000000000008152600401611ee190613e83565b60405180910390fd5b8181036000808673ffffffffffffffffffffffffffffffffffffffff1673ffffffffffffffffffffffffffffffffffffffff16815260200190815260200160002081905550816000808573ffffffffffffffffffffffffffffffffffffffff1673ffffffffffffffffffffffffffffffffffffffff168152602001908152602001600020600082825401925050819055508273ffffffffffffffffffffffffffffffffffffffff168473ffffffffffffffffffffffffffffffffffffffff167fddf252ad1be2c89b69c2b068fc378daa952ba7f163c4a11628f55a4df523b3ef84604051611fd89190612ece565b60405180910390a3611feb848484612829565b50505050565b612074846323b872dd60e01b85858560405160240161201293929190613ea3565b604051602081830303815290604052907bffffffffffffffffffffffffffffffffffffffffffffffffffffffff19166020820180517bffffffffffffffffffffffffffffffffffffffffffffffffffffffff838183161783525050505061282e565b50505050565b600073ffffffffffffffffffffffffffffffffffffffff168273ffffffffffffffffffffffffffffffffffffffff1614156120ea576040517f08c379a00000000000000000000000000000000000000000000000000000000081526004016120e190613f26565b60405180910390fd5b6120f660008383612824565b806002600082825461210891906134a5565b92505081905550806000808473ffffffffffffffffffffffffffffffffffffffff1673ffffffffffffffffffffffffffffffffffffffff168152602001908152602001600020600082825401925050819055508173ffffffffffffffffffffffffffffffffffffffff16600073ffffffffffffffffffffffffffffffffffffffff167fddf252ad1be2c89b69c2b068fc378daa952ba7f163c4a11628f55a4df523b3ef836040516121b99190612ece565b60405180910390a36121cd60008383612829565b5050565b60006012905090565b6000806121e56128f5565b90506000670de0b6b3a76400006121fb856129b5565b836122069190613392565b612210919061341b565b90508092505050919050565b6122268183610c02565b505050565b6000600560009054906101000a900473ffffffffffffffffffffffffffffffffffffffff16905081600560006101000a81548173ffffffffffffffffffffffffffffffffffffffff021916908373ffffffffffffffffffffffffffffffffffffffff1602179055508173ffffffffffffffffffffffffffffffffffffffff168173ffffffffffffffffffffffffffffffffffffffff167f8be0079c531659141344cd1fd0a4f28419497f9722a3daafe3b4186f6b6457e060405160405180910390a35050565b60008082846123009190613999565b9050600d5481600c60009054906101000a900464ffffffffff1664ffffffffff168761232c9190613392565b6123369190613392565b612340919061341b565b9150509392505050565b60008190503073ffffffffffffffffffffffffffffffffffffffff168173ffffffffffffffffffffffffffffffffffffffff1663081812fc856040518263ffffffff1660e01b815260040161239f9190612ece565b60206040518083038186803b1580156123b757600080fd5b505afa1580156123cb573d6000803e3d6000fd5b505050506040513d601f19601f820116820180604052508101906123ef9190613f5b565b73ffffffffffffffffffffffffffffffffffffffff1614612445576040517f2c1f04e900000000000000000000000000000000000000000000000000000000815260040161243c90613fd4565b60405180910390fd5b8073ffffffffffffffffffffffffffffffffffffffff166323b872dd8530866040518463ffffffff1660e01b815260040161248293929190613ea3565b600060405180830381600087803b15801561249c57600080fd5b505af11580156124b0573d6000803e3d6000fd5b5050505050505050565b80600960008473ffffffffffffffffffffffffffffffffffffffff1673ffffffffffffffffffffffffffffffffffffffff168152602001908152602001600020600082825461250991906134a5565b925050819055505050565b61251e828261106b565b505050565b60008173ffffffffffffffffffffffffffffffffffffffff166370a08231306040518263ffffffff1660e01b815260040161255e9190613098565b60206040518083038186803b15801561257657600080fd5b505afa15801561258a573d6000803e3d6000fd5b505050506040513d601f19601f820116820180604052508101906125ae919061386e565b9050919050565b807f000000000000000000000000000000000000000000000000000000000000000073ffffffffffffffffffffffffffffffffffffffff1663dd62ed3e84306040518363ffffffff1660e01b8152600401612611929190613ff4565b60206040518083038186803b15801561262957600080fd5b505afa15801561263d573d6000803e3d6000fd5b505050506040513d601f19601f82011682018060405250810190612661919061386e565b10156126a2576040517f08c379a000000000000000000000000000000000000000000000000000000000815260040161269990614069565b60405180910390fd5b7f000000000000000000000000000000000000000000000000000000000000000073ffffffffffffffffffffffffffffffffffffffff166323b872dd8330846040518463ffffffff1660e01b81526004016126ff93929190613ea3565b602060405180830381600087803b15801561271957600080fd5b505af115801561272d573d6000803e3d6000fd5b505050506040513d601f19601f820116820180604052508101906127519190613550565b505050565b8073ffffffffffffffffffffffffffffffffffffffff166323b872dd3085856040518463ffffffff1660e01b815260040161279393929190613ea3565b600060405180830381600087803b1580156127ad57600080fd5b505af11580156127c1573d6000803e3d6000fd5b50505050505050565b80600960008473ffffffffffffffffffffffffffffffffffffffff1673ffffffffffffffffffffffffffffffffffffffff16815260200190815260200160002060008282546128199190613999565b925050819055505050565b505050565b505050565b6000612890826040518060400160405280602081526020017f5361666545524332303a206c6f772d6c6576656c2063616c6c206661696c65648152508573ffffffffffffffffffffffffffffffffffffffff16612a459092919063ffffffff16565b90506000815111156128f057808060200190518101906128b09190613550565b6128ef576040517f08c379a00000000000000000000000000000000000000000000000000000000081526004016128e6906140fb565b60405180910390fd5b5b505050565b600080600760009054906101000a900473ffffffffffffffffffffffffffffffffffffffff1673ffffffffffffffffffffffffffffffffffffffff1663feaf968c6040518163ffffffff1660e01b815260040160a06040518083038186803b15801561296057600080fd5b505afa158015612974573d6000803e3d6000fd5b505050506040513d601f19601f820116820180604052508101906129989190614193565b5050509150506402540be400816129af919061420e565b91505090565b6000808273ffffffffffffffffffffffffffffffffffffffff1663feaf968c6040518163ffffffff1660e01b815260040160a06040518083038186803b1580156129fe57600080fd5b505afa158015612a12573d6000803e3d6000fd5b505050506040513d601f19601f82011682018060405250810190612a369190614193565b50505091505080915050919050565b6060612a548484600085612a5d565b90509392505050565b606082471015612aa2576040517f08c379a0000000000000000000000000000000000000000000000000000000008152600401612a9990614397565b60405180910390fd5b6000808673ffffffffffffffffffffffffffffffffffffffff168587604051612acb91906143fe565b60006040518083038185875af1925050503d8060008114612b08576040519150601f19603f3d011682016040523d82523d6000602084013e612b0d565b606091505b5091509150612b1e87838387612b2a565b92505050949350505050565b60608315612b8d57600083511415612b8557612b4585612ba0565b612b84576040517f08c379a0000000000000000000000000000000000000000000000000000000008152600401612b7b90614461565b60405180910390fd5b5b829050612b98565b612b978383612bc3565b5b949350505050565b6000808273ffffffffffffffffffffffffffffffffffffffff163b119050919050565b600082511115612bd65781518083602001fd5b806040517f08c379a0000000000000000000000000000000000000000000000000000000008152600401612c0a9190612cac565b60405180910390fd5b600081519050919050565b600082825260208201905092915050565b60005b83811015612c4d578082015181840152602081019050612c32565b83811115612c5c576000848401525b50505050565b6000601f19601f8301169050919050565b6000612c7e82612c13565b612c888185612c1e565b9350612c98818560208601612c2f565b612ca181612c62565b840191505092915050565b60006020820190508181036000830152612cc68184612c73565b905092915050565b600080fd5b6000819050919050565b612ce681612cd3565b8114612cf157600080fd5b50565b600081359050612d0381612cdd565b92915050565b600073ffffffffffffffffffffffffffffffffffffffff82169050919050565b6000612d3482612d09565b9050919050565b612d4481612d29565b8114612d4f57600080fd5b50565b600081359050612d6181612d3b565b92915050565b60008060408385031215612d7e57612d7d612cce565b5b6000612d8c85828601612cf4565b9250506020612d9d85828601612d52565b9150509250929050565b6000612db282612d29565b9050919050565b612dc281612da7565b8114612dcd57600080fd5b50565b600081359050612ddf81612db9565b92915050565b600060208284031215612dfb57612dfa612cce565b5b6000612e0984828501612dd0565b91505092915050565b600060ff82169050919050565b612e2881612e12565b82525050565b6000602082019050612e436000830184612e1f565b92915050565b60008060408385031215612e6057612e5f612cce565b5b6000612e6e85828601612d52565b9250506020612e7f85828601612cf4565b9150509250929050565b60008115159050919050565b612e9e81612e89565b82525050565b6000602082019050612eb96000830184612e95565b92915050565b612ec881612cd3565b82525050565b6000602082019050612ee36000830184612ebf565b92915050565b600080600060608486031215612f0257612f01612cce565b5b6000612f1086828701612d52565b9350506020612f2186828701612d52565b9250506040612f3286828701612cf4565b9150509250925092565b6000612f4782612d29565b9050919050565b612f5781612f3c565b8114612f6257600080fd5b50565b600081359050612f7481612f4e565b92915050565b600060208284031215612f9057612f8f612cce565b5b6000612f9e84828501612f65565b91505092915050565b6000819050919050565b6000612fcc612fc7612fc284612d09565b612fa7565b612d09565b9050919050565b6000612fde82612fb1565b9050919050565b6000612ff082612fd3565b9050919050565b61300081612fe5565b82525050565b600060208201905061301b6000830184612ff7565b92915050565b60006020828403121561303757613036612cce565b5b600061304584828501612d52565b91505092915050565b600064ffffffffff82169050919050565b6130688161304e565b82525050565b6000602082019050613083600083018461305f565b92915050565b61309281612d29565b82525050565b60006020820190506130ad6000830184613089565b92915050565b6130bc8161304e565b81146130c757600080fd5b50565b6000813590506130d9816130b3565b92915050565b600080604083850312156130f6576130f5612cce565b5b6000613104858286016130ca565b925050602061311585828601612cf4565b9150509250929050565b600061312a82612fd3565b9050919050565b61313a8161311f565b82525050565b600060e082019050613155600083018a613131565b6131626020830189612ebf565b61316f6040830188612ebf565b61317c6060830187612ebf565b6131896080830186612ebf565b61319660a0830185612ebf565b6131a360c0830184612e95565b98975050505050505050565b600080600080608085870312156131c9576131c8612cce565b5b60006131d787828801612dd0565b94505060206131e887828801612cf4565b93505060406131f987828801612cf4565b925050606061320a87828801612cf4565b91505092959194509250565b6000806040838503121561322d5761322c612cce565b5b600061323b85828601612d52565b925050602061324c85828601612d52565b9150509250929050565b6000806040838503121561326d5761326c612cce565b5b600061327b85828601612dd0565b925050602061328c85828601612cf4565b9150509250929050565b7f4e46544164647265737320616c72656164792065786973740000000000000000600082015250565b60006132cc601883612c1e565b91506132d782613296565b602082019050919050565b600060208201905081810360008301526132fb816132bf565b9050919050565b7f4e487b7100000000000000000000000000000000000000000000000000000000600052602260045260246000fd5b6000600282049050600182168061334957607f821691505b6020821081141561335d5761335c613302565b5b50919050565b7f4e487b7100000000000000000000000000000000000000000000000000000000600052601160045260246000fd5b600061339d82612cd3565b91506133a883612cd3565b9250817fffffffffffffffffffffffffffffffffffffffffffffffffffffffffffffffff04831182151516156133e1576133e0613363565b5b828202905092915050565b7f4e487b7100000000000000000000000000000000000000000000000000000000600052601260045260246000fd5b600061342682612cd3565b915061343183612cd3565b925082613441576134406133ec565b5b828204905092915050565b61345581612e12565b811461346057600080fd5b50565b6000815190506134728161344c565b92915050565b60006020828403121561348e5761348d612cce565b5b600061349c84828501613463565b91505092915050565b60006134b082612cd3565b91506134bb83612cd3565b9250827fffffffffffffffffffffffffffffffffffffffffffffffffffffffffffffffff038211156134f0576134ef613363565b5b828201905092915050565b60006040820190506135106000830185613089565b61351d6020830184612ebf565b9392505050565b61352d81612e89565b811461353857600080fd5b50565b60008151905061354a81613524565b92915050565b60006020828403121561356657613565612cce565b5b60006135748482850161353b565b91505092915050565b7f45524332303a2064656372656173656420616c6c6f77616e63652062656c6f7760008201527f207a65726f000000000000000000000000000000000000000000000000000000602082015250565b60006135d9602583612c1e565b91506135e48261357d565b604082019050919050565b60006020820190508181036000830152613608816135cc565b9050919050565b7f50617920796f7572206465627420666972737400000000000000000000000000600082015250565b6000613645601383612c1e565b91506136508261360f565b602082019050919050565b6000602082019050818103600083015261367481613638565b9050919050565b7f43616e27742069737375652061206c6f616e206265796f6e642033302064617960008201527f7300000000000000000000000000000000000000000000000000000000000000602082015250565b60006136d7602183612c1e565b91506136e28261367b565b604082019050919050565b60006020820190508181036000830152613706816136ca565b9050919050565b7f4e487b7100000000000000000000000000000000000000000000000000000000600052600160045260246000fd5b7f4e4654206e6f20737570706f7274656400000000000000000000000000000000600082015250565b6000613772601083612c1e565b915061377d8261373c565b602082019050919050565b600060208201905081810360008301526137a181613765565b9050919050565b7f657863656564656420617661696c61626c6520746f20626f72726f7700000000600082015250565b60006137de601c83612c1e565b91506137e9826137a8565b602082019050919050565b6000602082019050818103600083015261380d816137d1565b9050919050565b60006080820190506138296000830187612ebf565b6138366020830186612ebf565b6138436040830185612ebf565b6138506060830184612ebf565b95945050505050565b60008151905061386881612cdd565b92915050565b60006020828403121561388457613883612cce565b5b600061389284828501613859565b91505092915050565b7f4f776e61626c653a206e6577206f776e657220697320746865207a65726f206160008201527f6464726573730000000000000000000000000000000000000000000000000000602082015250565b60006138f7602683612c1e565b91506139028261389b565b604082019050919050565b60006020820190508181036000830152613926816138ea565b9050919050565b7f596f7520646f6e2774206861766520616e79206c6f616e206176616c61626c65600082015250565b6000613963602083612c1e565b915061396e8261392d565b602082019050919050565b6000602082019050818103600083015261399281613956565b9050919050565b60006139a482612cd3565b91506139af83612cd3565b9250828210156139c2576139c1613363565b5b828203905092915050565b7f4f776e61626c653a2063616c6c6572206973206e6f7420746865206f776e6572600082015250565b6000613a03602083612c1e565b9150613a0e826139cd565b602082019050919050565b60006020820190508181036000830152613a32816139f6565b9050919050565b7f45524332303a20617070726f76652066726f6d20746865207a65726f2061646460008201527f7265737300000000000000000000000000000000000000000000000000000000602082015250565b6000613a95602483612c1e565b9150613aa082613a39565b604082019050919050565b60006020820190508181036000830152613ac481613a88565b9050919050565b7f45524332303a20617070726f766520746f20746865207a65726f20616464726560008201527f7373000000000000000000000000000000000000000000000000000000000000602082015250565b6000613b27602283612c1e565b9150613b3282613acb565b604082019050919050565b60006020820190508181036000830152613b5681613b1a565b9050919050565b7f45524332303a206275726e2066726f6d20746865207a65726f2061646472657360008201527f7300000000000000000000000000000000000000000000000000000000000000602082015250565b6000613bb9602183612c1e565b9150613bc482613b5d565b604082019050919050565b60006020820190508181036000830152613be881613bac565b9050919050565b7f45524332303a206275726e20616d6f756e7420657863656564732062616c616e60008201527f6365000000000000000000000000000000000000000000000000000000000000602082015250565b6000613c4b602283612c1e565b9150613c5682613bef565b604082019050919050565b60006020820190508181036000830152613c7a81613c3e565b9050919050565b7f45524332303a20696e73756666696369656e7420616c6c6f77616e6365000000600082015250565b6000613cb7601d83612c1e565b9150613cc282613c81565b602082019050919050565b60006020820190508181036000830152613ce681613caa565b9050919050565b7f45524332303a207472616e736665722066726f6d20746865207a65726f20616460008201527f6472657373000000000000000000000000000000000000000000000000000000602082015250565b6000613d49602583612c1e565b9150613d5482613ced565b604082019050919050565b60006020820190508181036000830152613d7881613d3c565b9050919050565b7f45524332303a207472616e7366657220746f20746865207a65726f206164647260008201527f6573730000000000000000000000000000000000000000000000000000000000602082015250565b6000613ddb602383612c1e565b9150613de682613d7f565b604082019050919050565b60006020820190508181036000830152613e0a81613dce565b9050919050565b7f45524332303a207472616e7366657220616d6f756e742065786365656473206260008201527f616c616e63650000000000000000000000000000000000000000000000000000602082015250565b6000613e6d602683612c1e565b9150613e7882613e11565b604082019050919050565b60006020820190508181036000830152613e9c81613e60565b9050919050565b6000606082019050613eb86000830186613089565b613ec56020830185613089565b613ed26040830184612ebf565b949350505050565b7f45524332303a206d696e7420746f20746865207a65726f206164647265737300600082015250565b6000613f10601f83612c1e565b9150613f1b82613eda565b602082019050919050565b60006020820190508181036000830152613f3f81613f03565b9050919050565b600081519050613f5581612d3b565b92915050565b600060208284031215613f7157613f70612cce565b5b6000613f7f84828501613f46565b91505092915050565b7f6d75737420617070726f766520746f207370656e640000000000000000000000600082015250565b6000613fbe601583612c1e565b9150613fc982613f88565b602082019050919050565b60006020820190508181036000830152613fed81613fb1565b9050919050565b60006040820190506140096000830185613089565b6140166020830184613089565b9392505050565b7f6e65656420746f20617070726f76650000000000000000000000000000000000600082015250565b6000614053600f83612c1e565b915061405e8261401d565b602082019050919050565b6000602082019050818103600083015261408281614046565b9050919050565b7f5361666545524332303a204552433230206f7065726174696f6e20646964206e60008201527f6f74207375636365656400000000000000000000000000000000000000000000602082015250565b60006140e5602a83612c1e565b91506140f082614089565b604082019050919050565b60006020820190508181036000830152614114816140d8565b9050919050565b600069ffffffffffffffffffff82169050919050565b61413a8161411b565b811461414557600080fd5b50565b60008151905061415781614131565b92915050565b6000819050919050565b6141708161415d565b811461417b57600080fd5b50565b60008151905061418d81614167565b92915050565b600080600080600060a086880312156141af576141ae612cce565b5b60006141bd88828901614148565b95505060206141ce8882890161417e565b94505060406141df88828901613859565b93505060606141f088828901613859565b925050608061420188828901614148565b9150509295509295909350565b60006142198261415d565b91506142248361415d565b9250827f7fffffffffffffffffffffffffffffffffffffffffffffffffffffffffffffff048211600084136000841316161561426357614262613363565b5b817f800000000000000000000000000000000000000000000000000000000000000005831260008412600084131616156142a05761429f613363565b5b827f800000000000000000000000000000000000000000000000000000000000000005821260008413600084121616156142dd576142dc613363565b5b827f7fffffffffffffffffffffffffffffffffffffffffffffffffffffffffffffff058212600084126000841216161561431a57614319613363565b5b828202905092915050565b7f416464726573733a20696e73756666696369656e742062616c616e636520666f60008201527f722063616c6c0000000000000000000000000000000000000000000000000000602082015250565b6000614381602683612c1e565b915061438c82614325565b604082019050919050565b600060208201905081810360008301526143b081614374565b9050919050565b600081519050919050565b600081905092915050565b60006143d8826143b7565b6143e281856143c2565b93506143f2818560208601612c2f565b80840191505092915050565b600061440a82846143cd565b915081905092915050565b7f416464726573733a2063616c6c20746f206e6f6e2d636f6e7472616374000000600082015250565b600061444b601d83612c1e565b915061445682614415565b602082019050919050565b6000602082019050818103600083015261447a8161443e565b905091905056fea2646970667358221220b8d33f543d61d8cecc59076a365ae88dcb25c7f1895de74def92cffe5150ebbb64736f6c63430008090033",
"linkReferences": {},
"deployedLinkReferences": {}
}