{
"_format": "hh-sol-artifact-1",
"contractName": "LendPool",
"sourceName": "contracts/LendPool.sol",
"abi": [
{
"inputs": [
{
"internalType": "contract IERC20",
"name": "_maticContractAddress",
"type": "address"
}
],
"stateMutability": "nonpayable",
"type": "constructor"
},
{
"inputs": [
{
"internalType": "string",
"name": "",
"type": "string"
}
],
"name": "alreadyExist",
"type": "error"
},
{
"inputs": [
{
"internalType": "string",
"name": "",
"type": "string"
}
],
"name": "amountExceeded",
"type": "error"
},
{
"inputs": [
{
"internalType": "string",
"name": "",
"type": "string"
}
],
"name": "mustApprove",
"type": "error"
},
{
"inputs": [
{
"internalType": "string",
"name": "",
"type": "string"
}
],
"name": "mustApproved",
"type": "error"
},
{
"anonymous": false,
"inputs": [
{
"indexed": true,
"internalType": "address",
"name": "owner",
"type": "address"
},
{
"indexed": true,
"internalType": "address",
"name": "spender",
"type": "address"
},
{
"indexed": false,
"internalType": "uint256",
"name": "value",
"type": "uint256"
}
],
"name": "Approval",
"type": "event"
},
{
"anonymous": false,
"inputs": [
{
"indexed": false,
"internalType": "uint256",
"name": "_amountToBorrow",
"type": "uint256"
},
{
"indexed": false,
"internalType": "uint256",
"name": "_loanCompleteTime",
"type": "uint256"
},
{
"indexed": false,
"internalType": "uint256",
"name": "_amountToRepay",
"type": "uint256"
},
{
"indexed": false,
"internalType": "uint256",
"name": "_tokenId",
"type": "uint256"
}
],
"name": "Borrow",
"type": "event"
},
{
"anonymous": false,
"inputs": [
{
"indexed": true,
"internalType": "address",
"name": "previousOwner",
"type": "address"
},
{
"indexed": true,
"internalType": "address",
"name": "newOwner",
"type": "address"
}
],
"name": "OwnershipTransferred",
"type": "event"
},
{
"anonymous": false,
"inputs": [
{
"indexed": true,
"internalType": "address",
"name": "from",
"type": "address"
},
{
"indexed": true,
"internalType": "address",
"name": "to",
"type": "address"
},
{
"indexed": false,
"internalType": "uint256",
"name": "value",
"type": "uint256"
}
],
"name": "Transfer",
"type": "event"
},
{
"inputs": [],
"name": "FACTOR",
"outputs": [
{
"internalType": "uint256",
"name": "",
"type": "uint256"
}
],
"stateMutability": "view",
"type": "function"
},
{
"inputs": [
{
"internalType": "address",
"name": "",
"type": "address"
}
],
"name": "Loans",
"outputs": [
{
"internalType": "contract IERC721",
"name": "tokenAddress",
"type": "address"
},
{
"internalType": "uint256",
"name": "tokenId",
"type": "uint256"
},
{
"internalType": "uint256",
"name": "loanAmount",
"type": "uint256"
},
{
"internalType": "uint256",
"name": "loanCompleteTime",
"type": "uint256"
},
{
"internalType": "uint256",
"name": "amountToRepay",
"type": "uint256"
},
{
"internalType": "uint256",
"name": "timeOfLoan",
"type": "uint256"
},
{
"internalType": "bool",
"name": "_onLoan",
"type": "bool"
}
],
"stateMutability": "view",
"type": "function"
},
{
"inputs": [],
"name": "TokenDecimals",
"outputs": [
{
"internalType": "uint8",
"name": "",
"type": "uint8"
}
],
"stateMutability": "view",
"type": "function"
},
{
"inputs": [],
"name": "TokenName",
"outputs": [
{
"internalType": "string",
"name": "",
"type": "string"
}
],
"stateMutability": "view",
"type": "function"
},
{
"inputs": [],
"name": "TokenSymbol",
"outputs": [
{
"internalType": "string",
"name": "",
"type": "string"
}
],
"stateMutability": "view",
"type": "function"
},
{
"inputs": [
{
"internalType": "contract AggregatorV3Interface",
"name": "nftFloorPriceFeed",
"type": "address"
}
],
"name": "_amountLoanable",
"outputs": [
{
"internalType": "uint256",
"name": "loanable",
"type": "uint256"
}
],
"stateMutability": "view",
"type": "function"
},
{
"inputs": [
{
"internalType": "address",
"name": "_nftContractAddress",
"type": "address"
}
],
"name": "activeCollection",
"outputs": [
{
"internalType": "uint256",
"name": "",
"type": "uint256"
}
],
"stateMutability": "view",
"type": "function"
},
{
"inputs": [
{
"internalType": "address",
"name": "owner",
"type": "address"
},
{
"internalType": "address",
"name": "spender",
"type": "address"
}
],
"name": "allowance",
"outputs": [
{
"internalType": "uint256",
"name": "",
"type": "uint256"
}
],
"stateMutability": "view",
"type": "function"
},
{
"inputs": [],
"name": "amountForLiquidity",
"outputs": [
{
"internalType": "uint256",
"name": "",
"type": "uint256"
}
],
"stateMutability": "view",
"type": "function"
},
{
"inputs": [
{
"internalType": "address",
"name": "spender",
"type": "address"
},
{
"internalType": "uint256",
"name": "amount",
"type": "uint256"
}
],
"name": "approve",
"outputs": [
{
"internalType": "bool",
"name": "",
"type": "bool"
}
],
"stateMutability": "nonpayable",
"type": "function"
},
{
"inputs": [
{
"internalType": "contract IERC721",
"name": "_nftContractAddress",
"type": "address"
}
],
"name": "availableToBorrow",
"outputs": [
{
"internalType": "uint256",
"name": "loanable",
"type": "uint256"
}
],
"stateMutability": "view",
"type": "function"
},
{
"inputs": [
{
"internalType": "address",
"name": "account",
"type": "address"
}
],
"name": "balanceOf",
"outputs": [
{
"internalType": "uint256",
"name": "",
"type": "uint256"
}
],
"stateMutability": "view",
"type": "function"
},
{
"inputs": [
{
"internalType": "address",
"name": "_addr",
"type": "address"
}
],
"name": "balanceOfBMatic",
"outputs": [
{
"internalType": "uint256",
"name": "",
"type": "uint256"
}
],
"stateMutability": "view",
"type": "function"
},
{
"inputs": [
{
"internalType": "contract IERC721",
"name": "_tokenAddress",
"type": "address"
},
{
"internalType": "uint256",
"name": "_tokenId",
"type": "uint256"
},
{
"internalType": "uint256",
"name": "_loanCompleteTime",
"type": "uint256"
},
{
"internalType": "uint256",
"name": "_amountToBorrow",
"type": "uint256"
}
],
"name": "borrowLoan",
"outputs": [],
"stateMutability": "nonpayable",
"type": "function"
},
{
"inputs": [],
"name": "decimals",
"outputs": [
{
"internalType": "uint8",
"name": "",
"type": "uint8"
}
],
"stateMutability": "view",
"type": "function"
},
{
"inputs": [
{
"internalType": "address",
"name": "spender",
"type": "address"
},
{
"internalType": "uint256",
"name": "subtractedValue",
"type": "uint256"
}
],
"name": "decreaseAllowance",
"outputs": [
{
"internalType": "bool",
"name": "",
"type": "bool"
}
],
"stateMutability": "nonpayable",
"type": "function"
},
{
"inputs": [
{
"internalType": "uint256",
"name": "_amount",
"type": "uint256"
},
{
"internalType": "address",
"name": "_depositor",
"type": "address"
}
],
"name": "deposit",
"outputs": [],
"stateMutability": "nonpayable",
"type": "function"
},
{
"inputs": [
{
"internalType": "address",
"name": "account",
"type": "address"
},
{
"internalType": "uint256",
"name": "amount",
"type": "uint256"
}
],
"name": "depositFor",
"outputs": [
{
"internalType": "bool",
"name": "",
"type": "bool"
}
],
"stateMutability": "nonpayable",
"type": "function"
},
{
"inputs": [
{
"internalType": "contract IERC721",
"name": "_NFTAddress",
"type": "address"
}
],
"name": "getSupportedNFT",
"outputs": [
{
"internalType": "bool",
"name": "",
"type": "bool"
}
],
"stateMutability": "view",
"type": "function"
},
{
"inputs": [
{
"internalType": "address",
"name": "spender",
"type": "address"
},
{
"internalType": "uint256",
"name": "addedValue",
"type": "uint256"
}
],
"name": "increaseAllowance",
"outputs": [
{
"internalType": "bool",
"name": "",
"type": "bool"
}
],
"stateMutability": "nonpayable",
"type": "function"
},
{
"inputs": [],
"name": "interestRate",
"outputs": [
{
"internalType": "uint40",
"name": "",
"type": "uint40"
}
],
"stateMutability": "view",
"type": "function"
},
{
"inputs": [],
"name": "maticContractAddress",
"outputs": [
{
"internalType": "contract IERC20",
"name": "",
"type": "address"
}
],
"stateMutability": "view",
"type": "function"
},
{
"inputs": [],
"name": "minRate",
"outputs": [
{
"internalType": "uint256",
"name": "",
"type": "uint256"
}
],
"stateMutability": "view",
"type": "function"
},
{
"inputs": [
{
"internalType": "address",
"name": "_receiver",
"type": "address"
},
{
"internalType": "address",
"name": "_tokenContractAddress",
"type": "address"
},
{
"internalType": "uint256",
"name": "_amount",
"type": "uint256"
}
],
"name": "movingGeneric",
"outputs": [],
"stateMutability": "nonpayable",
"type": "function"
},
{
"inputs": [],
"name": "name",
"outputs": [
{
"internalType": "string",
"name": "",
"type": "string"
}
],
"stateMutability": "view",
"type": "function"
},
{
"inputs": [],
"name": "owner",
"outputs": [
{
"internalType": "address",
"name": "",
"type": "address"
}
],
"stateMutability": "view",
"type": "function"
},
{
"inputs": [],
"name": "profitMade",
"outputs": [
{
"internalType": "uint256",
"name": "",
"type": "uint256"
}
],
"stateMutability": "view",
"type": "function"
},
{
"inputs": [],
"name": "renounceOwnership",
"outputs": [],
"stateMutability": "nonpayable",
"type": "function"
},
{
"inputs": [],
"name": "repayLoan",
"outputs": [],
"stateMutability": "nonpayable",
"type": "function"
},
{
"inputs": [
{
"internalType": "contract IERC721",
"name": "",
"type": "address"
}
],
"name": "setFloorPrice",
"outputs": [
{
"internalType": "uint256",
"name": "",
"type": "uint256"
}
],
"stateMutability": "view",
"type": "function"
},
{
"inputs": [
{
"internalType": "uint40",
"name": "_interestRate",
"type": "uint40"
},
{
"internalType": "uint256",
"name": "_factor",
"type": "uint256"
}
],
"name": "setInterestRate",
"outputs": [],
"stateMutability": "nonpayable",
"type": "function"
},
{
"inputs": [
{
"internalType": "contract IERC721",
"name": "_nftContractAddress",
"type": "address"
},
{
"internalType": "uint256",
"name": "_amount",
"type": "uint256"
}
],
"name": "setNFTFloorPrice",
"outputs": [],
"stateMutability": "nonpayable",
"type": "function"
},
{
"inputs": [
{
"internalType": "contract IERC721",
"name": "_NFTAddress",
"type": "address"
}
],
"name": "setSupportedNFT",
"outputs": [],
"stateMutability": "nonpayable",
"type": "function"
},
{
"inputs": [
{
"internalType": "contract IERC721",
"name": "",
"type": "address"
}
],
"name": "supportedNFTAddress",
"outputs": [
{
"internalType": "bool",
"name": "",
"type": "bool"
}
],
"stateMutability": "view",
"type": "function"
},
{
"inputs": [],
"name": "symbol",
"outputs": [
{
"internalType": "string",
"name": "",
"type": "string"
}
],
"stateMutability": "view",
"type": "function"
},
{
"inputs": [],
"name": "totalAmountBorrowed",
"outputs": [
{
"internalType": "uint256",
"name": "",
"type": "uint256"
}
],
"stateMutability": "view",
"type": "function"
},
{
"inputs": [],
"name": "totalSupply",
"outputs": [
{
"internalType": "uint256",
"name": "",
"type": "uint256"
}
],
"stateMutability": "view",
"type": "function"
},
{
"inputs": [
{
"internalType": "address",
"name": "to",
"type": "address"
},
{
"internalType": "uint256",
"name": "amount",
"type": "uint256"
}
],
"name": "transfer",
"outputs": [
{
"internalType": "bool",
"name": "",
"type": "bool"
}
],
"stateMutability": "nonpayable",
"type": "function"
},
{
"inputs": [
{
"internalType": "address",
"name": "from",
"type": "address"
},
{
"internalType": "address",
"name": "to",
"type": "address"
},
{
"internalType": "uint256",
"name": "amount",
"type": "uint256"
}
],
"name": "transferFrom",
"outputs": [
{
"internalType": "bool",
"name": "",
"type": "bool"
}
],
"stateMutability": "nonpayable",
"type": "function"
},
{
"inputs": [
{
"internalType": "address",
"name": "newOwner",
"type": "address"
}
],
"name": "transferOwnership",
"outputs": [],
"stateMutability": "nonpayable",
"type": "function"
},
{
"inputs": [],
"name": "underlying",
"outputs": [
{
"internalType": "contract IERC20",
"name": "",
"type": "address"
}
],
"stateMutability": "view",
"type": "function"
},
{
"inputs": [
{
"internalType": "address",
"name": "_newAdmin",
"type": "address"
}
],
"name": "updateAdmin",
"outputs": [],
"stateMutability": "nonpayable",
"type": "function"
},
{
"inputs": [],
"name": "valueInReserve",
"outputs": [
{
"internalType": "uint256",
"name": "",
"type": "uint256"
}
],
"stateMutability": "view",
"type": "function"
},
{
"inputs": [
{
"internalType": "uint256",
"name": "_amount",
"type": "uint256"
},
{
"internalType": "address",
"name": "_depositor",
"type": "address"
}
],
"name": "withdraw",
"outputs": [],
"stateMutability": "nonpayable",
"type": "function"
},
{
"inputs": [
{
"internalType": "address",
"name": "account",
"type": "address"
},
{
"internalType": "uint256",
"name": "amount",
"type": "uint256"
}
],
"name": "withdrawTo",
"outputs": [
{
"internalType": "bool",
"name": "",
"type": "bool"
}
],
"stateMutability": "nonpayable",
"type": "function"
}
],
"bytecode": "0x60c060405260326008553480156200001657600080fd5b50604051620048c7380380620048c783398181016040528101906200003c9190620003c0565b80816040518060400160405280600d81526020017f4465706f736974204d61746963000000000000000000000000000000000000008152506040518060400160405280600681526020017f444d6174696300000000000000000000000000000000000000000000000000008152508160039080519060200190620000c292919062000292565b508060049080519060200190620000db92919062000292565b5050508073ffffffffffffffffffffffffffffffffffffffff1660808173ffffffffffffffffffffffffffffffffffffffff1681525050506200013362000127620001c460201b60201c565b620001cc60201b60201c565b8073ffffffffffffffffffffffffffffffffffffffff1660a08173ffffffffffffffffffffffffffffffffffffffff16815250505073d4a33860578de61dbabdc8bfdb98fd742fa7028e600760006101000a81548173ffffffffffffffffffffffffffffffffffffffff021916908373ffffffffffffffffffffffffffffffffffffffff1602179055505062000457565b600033905090565b6000600560009054906101000a900473ffffffffffffffffffffffffffffffffffffffff16905081600560006101000a81548173ffffffffffffffffffffffffffffffffffffffff021916908373ffffffffffffffffffffffffffffffffffffffff1602179055508173ffffffffffffffffffffffffffffffffffffffff168173ffffffffffffffffffffffffffffffffffffffff167f8be0079c531659141344cd1fd0a4f28419497f9722a3daafe3b4186f6b6457e060405160405180910390a35050565b828054620002a09062000421565b90600052602060002090601f016020900481019282620002c4576000855562000310565b82601f10620002df57805160ff191683800117855562000310565b8280016001018555821562000310579182015b828111156200030f578251825591602001919060010190620002f2565b5b5090506200031f919062000323565b5090565b5b808211156200033e57600081600090555060010162000324565b5090565b600080fd5b600073ffffffffffffffffffffffffffffffffffffffff82169050919050565b6000620003748262000347565b9050919050565b6000620003888262000367565b9050919050565b6200039a816200037b565b8114620003a657600080fd5b50565b600081519050620003ba816200038f565b92915050565b600060208284031215620003d957620003d862000342565b5b6000620003e984828501620003a9565b91505092915050565b7f4e487b7100000000000000000000000000000000000000000000000000000000600052602260045260246000fd5b600060028204905060018216806200043a57607f821691505b60208210811415620004515762000450620003f2565b5b50919050565b60805160a051614420620004a760003960008181610fac0152818161146e01528181612563015261264f015260008181610ae601528181610c0901528181610c4f0152610e1701526144206000f3fe608060405234801561001057600080fd5b506004361061027d5760003560e01c8063735b19151161015c578063a925e4a4116100ce578063e2f273bd11610087578063e2f273bd14610808578063e5130a2914610824578063f27cb27014610854578063f2fde38b14610884578063f317dba5146108a0578063f966ade7146108bc5761027d565b8063a925e4a41461071a578063ab600f1a14610750578063b6d7855a1461076c578063d08ad8731461078a578063db555a92146107ba578063dd62ed3e146107d85761027d565b806395d89b411161012057806395d89b41146106305780639cd7756f1461064e578063a11b8f8c1461066c578063a40e3c9d1461069c578063a457c2d7146106ba578063a9059cbb146106ea5761027d565b8063735b19151461059c5780637c3a00fd146105ba5780638da5cb5b146105d857806394784ebb146105f6578063958505dd146106125761027d565b80632c38199e116101f55780633f890e00116101b95780633f890e00146104dc57806345bcfbee1461050c5780636e553f65146105285780636f307dc31461054457806370a0823114610562578063715018a6146105925761027d565b80632c38199e146104105780632f4f21e214610440578063313ce5671461047057806335815b951461048e57806339509351146104ac5761027d565b8063095ea7b311610247578063095ea7b3146103145780630cb604431461034457806318160ddd14610362578063205c28781461038057806323b872dd146103b057806329370146146103e05761027d565b8062c8fbd414610282578062f714ce146102a057806304a158f6146102bc57806306fdde03146102d85780630910d1b0146102f6575b600080fd5b61028a6108c6565b6040516102979190612c57565b60405180910390f35b6102ba60048036038101906102b59190612d12565b6108ff565b005b6102d660048036038101906102d19190612d90565b61090d565b005b6102e0610a04565b6040516102ed9190612c57565b60405180910390f35b6102fe610a96565b60405161030b9190612dd9565b60405180910390f35b61032e60048036038101906103299190612df4565b610a9b565b60405161033b9190612e4f565b60405180910390f35b61034c610abe565b6040516103599190612e79565b60405180910390f35b61036a610ac4565b6040516103779190612e79565b60405180910390f35b61039a60048036038101906103959190612df4565b610ace565b6040516103a79190612e4f565b60405180910390f35b6103ca60048036038101906103c59190612e94565b610b16565b6040516103d79190612e4f565b60405180910390f35b6103fa60048036038101906103f59190612d90565b610b45565b6040516104079190612e4f565b60405180910390f35b61042a60048036038101906104259190612d90565b610b9b565b6040516104379190612e79565b60405180910390f35b61045a60048036038101906104559190612df4565b610c02565b6040516104679190612e4f565b60405180910390f35b610478610c4b565b6040516104859190612dd9565b60405180910390f35b610496610cff565b6040516104a39190612e79565b60405180910390f35b6104c660048036038101906104c19190612df4565b610d05565b6040516104d39190612e4f565b60405180910390f35b6104f660048036038101906104f19190612f25565b610d3c565b6040516105039190612e79565b60405180910390f35b61052660048036038101906105219190612e94565b610d6c565b005b610542600480360381019061053d9190612d12565b610e07565b005b61054c610e15565b6040516105599190612fb1565b60405180910390f35b61057c60048036038101906105779190612fcc565b610e39565b6040516105899190612e79565b60405180910390f35b61059a610e81565b005b6105a4610e95565b6040516105b19190612e79565b60405180910390f35b6105c2610e9b565b6040516105cf9190613019565b60405180910390f35b6105e0610eb2565b6040516105ed9190613043565b60405180910390f35b610610600480360381019061060b919061308a565b610edc565b005b61061a610f12565b6040516106279190612e79565b60405180910390f35b610638610f18565b6040516106459190612c57565b60405180910390f35b610656610faa565b6040516106639190612fb1565b60405180910390f35b61068660048036038101906106819190612d90565b610fce565b6040516106939190612e4f565b60405180910390f35b6106a4610fee565b6040516106b19190612e79565b60405180910390f35b6106d460048036038101906106cf9190612df4565b610ff4565b6040516106e19190612e4f565b60405180910390f35b61070460048036038101906106ff9190612df4565b61106b565b6040516107119190612e4f565b60405180910390f35b610734600480360381019061072f9190612fcc565b61108e565b60405161074797969594939291906130eb565b60405180910390f35b61076a6004803603810190610765919061315a565b6110fd565b005b610774611419565b6040516107819190612c57565b60405180910390f35b6107a4600480360381019061079f9190612d90565b611452565b6040516107b19190612e79565b60405180910390f35b6107c261146a565b6040516107cf9190612e79565b60405180910390f35b6107f260048036038101906107ed91906131c1565b61151a565b6040516107ff9190612e79565b60405180910390f35b610822600480360381019061081d9190612fcc565b6115a1565b005b61083e60048036038101906108399190612fcc565b6115b5565b60405161084b9190612e79565b60405180910390f35b61086e60048036038101906108699190612fcc565b6115c7565b60405161087b9190612e79565b60405180910390f35b61089e60048036038101906108999190612fcc565b611610565b005b6108ba60048036038101906108b59190613201565b611694565b005b6108c46116e4565b005b6040518060400160405280600681526020017f424d61746963000000000000000000000000000000000000000000000000000081525081565b6109098282611809565b5050565b610915611818565b60011515600b60008373ffffffffffffffffffffffffffffffffffffffff1673ffffffffffffffffffffffffffffffffffffffff16815260200190815260200160002060009054906101000a900460ff16151514156109a9576040517fcf9faa3c0000000000000000000000000000000000000000000000000000000081526004016109a09061328d565b60405180910390fd5b6001600b60008373ffffffffffffffffffffffffffffffffffffffff1673ffffffffffffffffffffffffffffffffffffffff16815260200190815260200160002060006101000a81548160ff02191690831515021790555050565b606060038054610a13906132dc565b80601f0160208091040260200160405190810160405280929190818152602001828054610a3f906132dc565b8015610a8c5780601f10610a6157610100808354040283529160200191610a8c565b820191906000526020600020905b815481529060010190602001808311610a6f57829003601f168201915b5050505050905090565b601281565b600080610aa6611896565b9050610ab381858561189e565b600191505092915050565b60085481565b6000600254905090565b6000610ae1610adb611896565b83611a69565b610b0c7f00000000000000000000000000000000000000000000000000000000000000008484611c37565b6001905092915050565b600080610b21611896565b9050610b2e858285611cbd565b610b39858585611d49565b60019150509392505050565b6000600b60008373ffffffffffffffffffffffffffffffffffffffff1673ffffffffffffffffffffffffffffffffffffffff16815260200190815260200160002060009054906101000a900460ff169050919050565b600080600660008473ffffffffffffffffffffffffffffffffffffffff1673ffffffffffffffffffffffffffffffffffffffff168152602001908152602001600020549050606460085482610bf0919061333d565b610bfa91906133c6565b915050919050565b6000610c377f0000000000000000000000000000000000000000000000000000000000000000610c30611896565b3085611fc1565b610c41838361204a565b6001905092915050565b60007f000000000000000000000000000000000000000000000000000000000000000073ffffffffffffffffffffffffffffffffffffffff1663313ce5676040518163ffffffff1660e01b815260040160206040518083038186803b158015610cb357600080fd5b505afa925050508015610ce457506040513d601f19601f82011682018060405250810190610ce19190613423565b60015b610cf757610cf06121a1565b9050610cfc565b809150505b90565b600d5481565b600080610d10611896565b9050610d31818585610d22858961151a565b610d2c9190613450565b61189e565b600191505092915050565b600080610d48836121aa565b9050606460085482610d5a919061333d565b610d6491906133c6565b915050919050565b610d74611818565b8173ffffffffffffffffffffffffffffffffffffffff1663a9059cbb84836040518363ffffffff1660e01b8152600401610daf9291906134a6565b602060405180830381600087803b158015610dc957600080fd5b505af1158015610ddd573d6000803e3d6000fd5b505050506040513d601f19601f82011682018060405250810190610e0191906134fb565b50505050565b610e1182826121ec565b5050565b7f000000000000000000000000000000000000000000000000000000000000000081565b60008060008373ffffffffffffffffffffffffffffffffffffffff1673ffffffffffffffffffffffffffffffffffffffff168152602001908152602001600020549050919050565b610e89611818565b610e9360006121fb565b565b600e5481565b600c60009054906101000a900464ffffffffff1681565b6000600560009054906101000a900473ffffffffffffffffffffffffffffffffffffffff16905090565b610ee4611818565b81600c60006101000a81548164ffffffffff021916908364ffffffffff16021790555080600d819055505050565b60105481565b606060048054610f27906132dc565b80601f0160208091040260200160405190810160405280929190818152602001828054610f53906132dc565b8015610fa05780601f10610f7557610100808354040283529160200191610fa0565b820191906000526020600020905b815481529060010190602001808311610f8357829003601f168201915b5050505050905090565b7f000000000000000000000000000000000000000000000000000000000000000081565b600b6020528060005260406000206000915054906101000a900460ff1681565b600f5481565b600080610fff611896565b9050600061100d828661151a565b905083811015611052576040517f08c379a00000000000000000000000000000000000000000000000000000000081526004016110499061359a565b60405180910390fd5b61105f828686840361189e565b60019250505092915050565b600080611076611896565b9050611083818585611d49565b600191505092915050565b600a6020528060005260406000206000915090508060000160009054906101000a900473ffffffffffffffffffffffffffffffffffffffff16908060010154908060020154908060030154908060040154908060050154908060060160009054906101000a900460ff16905087565b6000600a60003373ffffffffffffffffffffffffffffffffffffffff1673ffffffffffffffffffffffffffffffffffffffff16815260200190815260200160002090508060060160009054906101000a900460ff1615611192576040517f08c379a000000000000000000000000000000000000000000000000000000000815260040161118990613606565b60405180910390fd5b62278d0062015180846111a5919061333d565b106111e5576040517f08c379a00000000000000000000000000000000000000000000000000000000081526004016111dc90613698565b60405180910390fd5b4262015180846111f5919061333d565b11611203576112026136b8565b5b60011515600b60008773ffffffffffffffffffffffffffffffffffffffff1673ffffffffffffffffffffffffffffffffffffffff16815260200190815260200160002060009054906101000a900460ff16151514611296576040517f08c379a000000000000000000000000000000000000000000000000000000000815260040161128d90613733565b60405180910390fd5b61129f85610b9b565b8211156112e1576040517fdd910b530000000000000000000000000000000000000000000000000000000081526004016112d89061379f565b60405180910390fd5b848160000160006101000a81548173ffffffffffffffffffffffffffffffffffffffff021916908373ffffffffffffffffffffffffffffffffffffffff1602179055508381600101819055508181600201819055506201518083611345919061333d565b816003018190555042816005018190555060006113638385426122c1565b9050600081846113739190613450565b905080836004018190555061138933878961231a565b6113933382612465565b61139d33856124bf565b60018360060160006101000a81548160ff02191690831515021790555083600e60008282546113cc9190613450565b925050819055507ffc2baa24cbbf617bfa430e509fa2184b87665b3272db852e583b677125dfc3cb8486834260405161140894939291906137bf565b60405180910390a150505050505050565b6040518060400160405280600e81526020017f426f72726f776572204d6174696300000000000000000000000000000000000081525081565b60066020528060005260406000206000915090505481565b60007f000000000000000000000000000000000000000000000000000000000000000073ffffffffffffffffffffffffffffffffffffffff166370a08231306040518263ffffffff1660e01b81526004016114c59190613043565b60206040518083038186803b1580156114dd57600080fd5b505afa1580156114f1573d6000803e3d6000fd5b505050506040513d601f19601f820116820180604052508101906115159190613819565b905090565b6000600160008473ffffffffffffffffffffffffffffffffffffffff1673ffffffffffffffffffffffffffffffffffffffff16815260200190815260200160002060008373ffffffffffffffffffffffffffffffffffffffff1673ffffffffffffffffffffffffffffffffffffffff16815260200190815260200160002054905092915050565b6115a9611818565b6115b281611610565b50565b60006115c0826124ce565b9050919050565b6000600960008373ffffffffffffffffffffffffffffffffffffffff1673ffffffffffffffffffffffffffffffffffffffff168152602001908152602001600020549050919050565b611618611818565b600073ffffffffffffffffffffffffffffffffffffffff168173ffffffffffffffffffffffffffffffffffffffff161415611688576040517f08c379a000000000000000000000000000000000000000000000000000000000815260040161167f906138b8565b60405180910390fd5b611691816121fb565b50565b61169c611818565b80600660008473ffffffffffffffffffffffffffffffffffffffff1673ffffffffffffffffffffffffffffffffffffffff168152602001908152602001600020819055505050565b6000600a60003373ffffffffffffffffffffffffffffffffffffffff1673ffffffffffffffffffffffffffffffffffffffff16815260200190815260200160002090508060060160009054906101000a900460ff16611778576040517f08c379a000000000000000000000000000000000000000000000000000000000815260040161176f90613924565b60405180910390fd5b61178a33611785336115c7565b612560565b6117bd3382600101548360000160009054906101000a900473ffffffffffffffffffffffffffffffffffffffff16612701565b6117cf336117ca336115c7565b612775565b60008160060160006101000a81548160ff021916908315150217905550806002015481600401546118009190613944565b60108190555050565b6118138183610ace565b505050565b611820611896565b73ffffffffffffffffffffffffffffffffffffffff1661183e610eb2565b73ffffffffffffffffffffffffffffffffffffffff1614611894576040517f08c379a000000000000000000000000000000000000000000000000000000000815260040161188b906139c4565b60405180910390fd5b565b600033905090565b600073ffffffffffffffffffffffffffffffffffffffff168373ffffffffffffffffffffffffffffffffffffffff16141561190e576040517f08c379a000000000000000000000000000000000000000000000000000000000815260040161190590613a56565b60405180910390fd5b600073ffffffffffffffffffffffffffffffffffffffff168273ffffffffffffffffffffffffffffffffffffffff16141561197e576040517f08c379a000000000000000000000000000000000000000000000000000000000815260040161197590613ae8565b60405180910390fd5b80600160008573ffffffffffffffffffffffffffffffffffffffff1673ffffffffffffffffffffffffffffffffffffffff16815260200190815260200160002060008473ffffffffffffffffffffffffffffffffffffffff1673ffffffffffffffffffffffffffffffffffffffff168152602001908152602001600020819055508173ffffffffffffffffffffffffffffffffffffffff168373ffffffffffffffffffffffffffffffffffffffff167f8c5be1e5ebec7d5bd14f71427d1e84f3dd0314c0f7b2291e5b200ac8c7c3b92583604051611a5c9190612e79565b60405180910390a3505050565b600073ffffffffffffffffffffffffffffffffffffffff168273ffffffffffffffffffffffffffffffffffffffff161415611ad9576040517f08c379a0000000000000000000000000000000000000000000000000000000008152600401611ad090613b7a565b60405180910390fd5b611ae5826000836127cf565b60008060008473ffffffffffffffffffffffffffffffffffffffff1673ffffffffffffffffffffffffffffffffffffffff16815260200190815260200160002054905081811015611b6b576040517f08c379a0000000000000000000000000000000000000000000000000000000008152600401611b6290613c0c565b60405180910390fd5b8181036000808573ffffffffffffffffffffffffffffffffffffffff1673ffffffffffffffffffffffffffffffffffffffff1681526020019081526020016000208190555081600260008282540392505081905550600073ffffffffffffffffffffffffffffffffffffffff168373ffffffffffffffffffffffffffffffffffffffff167fddf252ad1be2c89b69c2b068fc378daa952ba7f163c4a11628f55a4df523b3ef84604051611c1e9190612e79565b60405180910390a3611c32836000846127d4565b505050565b611cb88363a9059cbb60e01b8484604051602401611c569291906134a6565b604051602081830303815290604052907bffffffffffffffffffffffffffffffffffffffffffffffffffffffff19166020820180517bffffffffffffffffffffffffffffffffffffffffffffffffffffffff83818316178352505050506127d9565b505050565b6000611cc9848461151a565b90507fffffffffffffffffffffffffffffffffffffffffffffffffffffffffffffffff8114611d435781811015611d35576040517f08c379a0000000000000000000000000000000000000000000000000000000008152600401611d2c90613c78565b60405180910390fd5b611d42848484840361189e565b5b50505050565b600073ffffffffffffffffffffffffffffffffffffffff168373ffffffffffffffffffffffffffffffffffffffff161415611db9576040517f08c379a0000000000000000000000000000000000000000000000000000000008152600401611db090613d0a565b60405180910390fd5b600073ffffffffffffffffffffffffffffffffffffffff168273ffffffffffffffffffffffffffffffffffffffff161415611e29576040517f08c379a0000000000000000000000000000000000000000000000000000000008152600401611e2090613d9c565b60405180910390fd5b611e348383836127cf565b60008060008573ffffffffffffffffffffffffffffffffffffffff1673ffffffffffffffffffffffffffffffffffffffff16815260200190815260200160002054905081811015611eba576040517f08c379a0000000000000000000000000000000000000000000000000000000008152600401611eb190613e2e565b60405180910390fd5b8181036000808673ffffffffffffffffffffffffffffffffffffffff1673ffffffffffffffffffffffffffffffffffffffff16815260200190815260200160002081905550816000808573ffffffffffffffffffffffffffffffffffffffff1673ffffffffffffffffffffffffffffffffffffffff168152602001908152602001600020600082825401925050819055508273ffffffffffffffffffffffffffffffffffffffff168473ffffffffffffffffffffffffffffffffffffffff167fddf252ad1be2c89b69c2b068fc378daa952ba7f163c4a11628f55a4df523b3ef84604051611fa89190612e79565b60405180910390a3611fbb8484846127d4565b50505050565b612044846323b872dd60e01b858585604051602401611fe293929190613e4e565b604051602081830303815290604052907bffffffffffffffffffffffffffffffffffffffffffffffffffffffff19166020820180517bffffffffffffffffffffffffffffffffffffffffffffffffffffffff83818316178352505050506127d9565b50505050565b600073ffffffffffffffffffffffffffffffffffffffff168273ffffffffffffffffffffffffffffffffffffffff1614156120ba576040517f08c379a00000000000000000000000000000000000000000000000000000000081526004016120b190613ed1565b60405180910390fd5b6120c6600083836127cf565b80600260008282546120d89190613450565b92505081905550806000808473ffffffffffffffffffffffffffffffffffffffff1673ffffffffffffffffffffffffffffffffffffffff168152602001908152602001600020600082825401925050819055508173ffffffffffffffffffffffffffffffffffffffff16600073ffffffffffffffffffffffffffffffffffffffff167fddf252ad1be2c89b69c2b068fc378daa952ba7f163c4a11628f55a4df523b3ef836040516121899190612e79565b60405180910390a361219d600083836127d4565b5050565b60006012905090565b6000806121b56128a0565b90506000670de0b6b3a76400006121cb85612960565b836121d6919061333d565b6121e091906133c6565b90508092505050919050565b6121f68183610c02565b505050565b6000600560009054906101000a900473ffffffffffffffffffffffffffffffffffffffff16905081600560006101000a81548173ffffffffffffffffffffffffffffffffffffffff021916908373ffffffffffffffffffffffffffffffffffffffff1602179055508173ffffffffffffffffffffffffffffffffffffffff168173ffffffffffffffffffffffffffffffffffffffff167f8be0079c531659141344cd1fd0a4f28419497f9722a3daafe3b4186f6b6457e060405160405180910390a35050565b60008082846122d09190613944565b9050600d5481600c60009054906101000a900464ffffffffff1664ffffffffff16876122fc919061333d565b612306919061333d565b61231091906133c6565b9150509392505050565b6000819050600115158173ffffffffffffffffffffffffffffffffffffffff1663e985e9c586306040518363ffffffff1660e01b815260040161235e929190613ef1565b60206040518083038186803b15801561237657600080fd5b505afa15801561238a573d6000803e3d6000fd5b505050506040513d601f19601f820116820180604052508101906123ae91906134fb565b1515146123f0576040517f2c1f04e90000000000000000000000000000000000000000000000000000000081526004016123e790613f66565b60405180910390fd5b8073ffffffffffffffffffffffffffffffffffffffff166323b872dd8530866040518463ffffffff1660e01b815260040161242d93929190613e4e565b600060405180830381600087803b15801561244757600080fd5b505af115801561245b573d6000803e3d6000fd5b5050505050505050565b80600960008473ffffffffffffffffffffffffffffffffffffffff1673ffffffffffffffffffffffffffffffffffffffff16815260200190815260200160002060008282546124b49190613450565b925050819055505050565b6124c9828261106b565b505050565b60008173ffffffffffffffffffffffffffffffffffffffff166370a08231306040518263ffffffff1660e01b81526004016125099190613043565b60206040518083038186803b15801561252157600080fd5b505afa158015612535573d6000803e3d6000fd5b505050506040513d601f19601f820116820180604052508101906125599190613819565b9050919050565b807f000000000000000000000000000000000000000000000000000000000000000073ffffffffffffffffffffffffffffffffffffffff1663dd62ed3e84306040518363ffffffff1660e01b81526004016125bc929190613ef1565b60206040518083038186803b1580156125d457600080fd5b505afa1580156125e8573d6000803e3d6000fd5b505050506040513d601f19601f8201168201806040525081019061260c9190613819565b101561264d576040517f08c379a000000000000000000000000000000000000000000000000000000000815260040161264490613fd2565b60405180910390fd5b7f000000000000000000000000000000000000000000000000000000000000000073ffffffffffffffffffffffffffffffffffffffff166323b872dd8330846040518463ffffffff1660e01b81526004016126aa93929190613e4e565b602060405180830381600087803b1580156126c457600080fd5b505af11580156126d8573d6000803e3d6000fd5b505050506040513d601f19601f820116820180604052508101906126fc91906134fb565b505050565b8073ffffffffffffffffffffffffffffffffffffffff166323b872dd3085856040518463ffffffff1660e01b815260040161273e93929190613e4e565b600060405180830381600087803b15801561275857600080fd5b505af115801561276c573d6000803e3d6000fd5b50505050505050565b80600960008473ffffffffffffffffffffffffffffffffffffffff1673ffffffffffffffffffffffffffffffffffffffff16815260200190815260200160002060008282546127c49190613944565b925050819055505050565b505050565b505050565b600061283b826040518060400160405280602081526020017f5361666545524332303a206c6f772d6c6576656c2063616c6c206661696c65648152508573ffffffffffffffffffffffffffffffffffffffff166129f09092919063ffffffff16565b905060008151111561289b578080602001905181019061285b91906134fb565b61289a576040517f08c379a000000000000000000000000000000000000000000000000000000000815260040161289190614064565b60405180910390fd5b5b505050565b600080600760009054906101000a900473ffffffffffffffffffffffffffffffffffffffff1673ffffffffffffffffffffffffffffffffffffffff1663feaf968c6040518163ffffffff1660e01b815260040160a06040518083038186803b15801561290b57600080fd5b505afa15801561291f573d6000803e3d6000fd5b505050506040513d601f19601f8201168201806040525081019061294391906140fc565b5050509150506402540be4008161295a9190614177565b91505090565b6000808273ffffffffffffffffffffffffffffffffffffffff1663feaf968c6040518163ffffffff1660e01b815260040160a06040518083038186803b1580156129a957600080fd5b505afa1580156129bd573d6000803e3d6000fd5b505050506040513d601f19601f820116820180604052508101906129e191906140fc565b50505091505080915050919050565b60606129ff8484600085612a08565b90509392505050565b606082471015612a4d576040517f08c379a0000000000000000000000000000000000000000000000000000000008152600401612a4490614300565b60405180910390fd5b6000808673ffffffffffffffffffffffffffffffffffffffff168587604051612a769190614367565b60006040518083038185875af1925050503d8060008114612ab3576040519150601f19603f3d011682016040523d82523d6000602084013e612ab8565b606091505b5091509150612ac987838387612ad5565b92505050949350505050565b60608315612b3857600083511415612b3057612af085612b4b565b612b2f576040517f08c379a0000000000000000000000000000000000000000000000000000000008152600401612b26906143ca565b60405180910390fd5b5b829050612b43565b612b428383612b6e565b5b949350505050565b6000808273ffffffffffffffffffffffffffffffffffffffff163b119050919050565b600082511115612b815781518083602001fd5b806040517f08c379a0000000000000000000000000000000000000000000000000000000008152600401612bb59190612c57565b60405180910390fd5b600081519050919050565b600082825260208201905092915050565b60005b83811015612bf8578082015181840152602081019050612bdd565b83811115612c07576000848401525b50505050565b6000601f19601f8301169050919050565b6000612c2982612bbe565b612c338185612bc9565b9350612c43818560208601612bda565b612c4c81612c0d565b840191505092915050565b60006020820190508181036000830152612c718184612c1e565b905092915050565b600080fd5b6000819050919050565b612c9181612c7e565b8114612c9c57600080fd5b50565b600081359050612cae81612c88565b92915050565b600073ffffffffffffffffffffffffffffffffffffffff82169050919050565b6000612cdf82612cb4565b9050919050565b612cef81612cd4565b8114612cfa57600080fd5b50565b600081359050612d0c81612ce6565b92915050565b60008060408385031215612d2957612d28612c79565b5b6000612d3785828601612c9f565b9250506020612d4885828601612cfd565b9150509250929050565b6000612d5d82612cd4565b9050919050565b612d6d81612d52565b8114612d7857600080fd5b50565b600081359050612d8a81612d64565b92915050565b600060208284031215612da657612da5612c79565b5b6000612db484828501612d7b565b91505092915050565b600060ff82169050919050565b612dd381612dbd565b82525050565b6000602082019050612dee6000830184612dca565b92915050565b60008060408385031215612e0b57612e0a612c79565b5b6000612e1985828601612cfd565b9250506020612e2a85828601612c9f565b9150509250929050565b60008115159050919050565b612e4981612e34565b82525050565b6000602082019050612e646000830184612e40565b92915050565b612e7381612c7e565b82525050565b6000602082019050612e8e6000830184612e6a565b92915050565b600080600060608486031215612ead57612eac612c79565b5b6000612ebb86828701612cfd565b9350506020612ecc86828701612cfd565b9250506040612edd86828701612c9f565b9150509250925092565b6000612ef282612cd4565b9050919050565b612f0281612ee7565b8114612f0d57600080fd5b50565b600081359050612f1f81612ef9565b92915050565b600060208284031215612f3b57612f3a612c79565b5b6000612f4984828501612f10565b91505092915050565b6000819050919050565b6000612f77612f72612f6d84612cb4565b612f52565b612cb4565b9050919050565b6000612f8982612f5c565b9050919050565b6000612f9b82612f7e565b9050919050565b612fab81612f90565b82525050565b6000602082019050612fc66000830184612fa2565b92915050565b600060208284031215612fe257612fe1612c79565b5b6000612ff084828501612cfd565b91505092915050565b600064ffffffffff82169050919050565b61301381612ff9565b82525050565b600060208201905061302e600083018461300a565b92915050565b61303d81612cd4565b82525050565b60006020820190506130586000830184613034565b92915050565b61306781612ff9565b811461307257600080fd5b50565b6000813590506130848161305e565b92915050565b600080604083850312156130a1576130a0612c79565b5b60006130af85828601613075565b92505060206130c085828601612c9f565b9150509250929050565b60006130d582612f7e565b9050919050565b6130e5816130ca565b82525050565b600060e082019050613100600083018a6130dc565b61310d6020830189612e6a565b61311a6040830188612e6a565b6131276060830187612e6a565b6131346080830186612e6a565b61314160a0830185612e6a565b61314e60c0830184612e40565b98975050505050505050565b6000806000806080858703121561317457613173612c79565b5b600061318287828801612d7b565b945050602061319387828801612c9f565b93505060406131a487828801612c9f565b92505060606131b587828801612c9f565b91505092959194509250565b600080604083850312156131d8576131d7612c79565b5b60006131e685828601612cfd565b92505060206131f785828601612cfd565b9150509250929050565b6000806040838503121561321857613217612c79565b5b600061322685828601612d7b565b925050602061323785828601612c9f565b9150509250929050565b7f4e46544164647265737320616c72656164792065786973740000000000000000600082015250565b6000613277601883612bc9565b915061328282613241565b602082019050919050565b600060208201905081810360008301526132a68161326a565b9050919050565b7f4e487b7100000000000000000000000000000000000000000000000000000000600052602260045260246000fd5b600060028204905060018216806132f457607f821691505b60208210811415613308576133076132ad565b5b50919050565b7f4e487b7100000000000000000000000000000000000000000000000000000000600052601160045260246000fd5b600061334882612c7e565b915061335383612c7e565b9250817fffffffffffffffffffffffffffffffffffffffffffffffffffffffffffffffff048311821515161561338c5761338b61330e565b5b828202905092915050565b7f4e487b7100000000000000000000000000000000000000000000000000000000600052601260045260246000fd5b60006133d182612c7e565b91506133dc83612c7e565b9250826133ec576133eb613397565b5b828204905092915050565b61340081612dbd565b811461340b57600080fd5b50565b60008151905061341d816133f7565b92915050565b60006020828403121561343957613438612c79565b5b60006134478482850161340e565b91505092915050565b600061345b82612c7e565b915061346683612c7e565b9250827fffffffffffffffffffffffffffffffffffffffffffffffffffffffffffffffff0382111561349b5761349a61330e565b5b828201905092915050565b60006040820190506134bb6000830185613034565b6134c86020830184612e6a565b9392505050565b6134d881612e34565b81146134e357600080fd5b50565b6000815190506134f5816134cf565b92915050565b60006020828403121561351157613510612c79565b5b600061351f848285016134e6565b91505092915050565b7f45524332303a2064656372656173656420616c6c6f77616e63652062656c6f7760008201527f207a65726f000000000000000000000000000000000000000000000000000000602082015250565b6000613584602583612bc9565b915061358f82613528565b604082019050919050565b600060208201905081810360008301526135b381613577565b9050919050565b7f50617920796f7572206465627420666972737400000000000000000000000000600082015250565b60006135f0601383612bc9565b91506135fb826135ba565b602082019050919050565b6000602082019050818103600083015261361f816135e3565b9050919050565b7f43616e27742069737375652061206c6f616e206265796f6e642033302064617960008201527f7300000000000000000000000000000000000000000000000000000000000000602082015250565b6000613682602183612bc9565b915061368d82613626565b604082019050919050565b600060208201905081810360008301526136b181613675565b9050919050565b7f4e487b7100000000000000000000000000000000000000000000000000000000600052600160045260246000fd5b7f4e4654206e6f20737570706f7274656400000000000000000000000000000000600082015250565b600061371d601083612bc9565b9150613728826136e7565b602082019050919050565b6000602082019050818103600083015261374c81613710565b9050919050565b7f657863656564656420617661696c61626c6520746f20626f72726f7700000000600082015250565b6000613789601c83612bc9565b915061379482613753565b602082019050919050565b600060208201905081810360008301526137b88161377c565b9050919050565b60006080820190506137d46000830187612e6a565b6137e16020830186612e6a565b6137ee6040830185612e6a565b6137fb6060830184612e6a565b95945050505050565b60008151905061381381612c88565b92915050565b60006020828403121561382f5761382e612c79565b5b600061383d84828501613804565b91505092915050565b7f4f776e61626c653a206e6577206f776e657220697320746865207a65726f206160008201527f6464726573730000000000000000000000000000000000000000000000000000602082015250565b60006138a2602683612bc9565b91506138ad82613846565b604082019050919050565b600060208201905081810360008301526138d181613895565b9050919050565b7f596f7520646f6e2774206861766520616e79206c6f616e206176616c61626c65600082015250565b600061390e602083612bc9565b9150613919826138d8565b602082019050919050565b6000602082019050818103600083015261393d81613901565b9050919050565b600061394f82612c7e565b915061395a83612c7e565b92508282101561396d5761396c61330e565b5b828203905092915050565b7f4f776e61626c653a2063616c6c6572206973206e6f7420746865206f776e6572600082015250565b60006139ae602083612bc9565b91506139b982613978565b602082019050919050565b600060208201905081810360008301526139dd816139a1565b9050919050565b7f45524332303a20617070726f76652066726f6d20746865207a65726f2061646460008201527f7265737300000000000000000000000000000000000000000000000000000000602082015250565b6000613a40602483612bc9565b9150613a4b826139e4565b604082019050919050565b60006020820190508181036000830152613a6f81613a33565b9050919050565b7f45524332303a20617070726f766520746f20746865207a65726f20616464726560008201527f7373000000000000000000000000000000000000000000000000000000000000602082015250565b6000613ad2602283612bc9565b9150613add82613a76565b604082019050919050565b60006020820190508181036000830152613b0181613ac5565b9050919050565b7f45524332303a206275726e2066726f6d20746865207a65726f2061646472657360008201527f7300000000000000000000000000000000000000000000000000000000000000602082015250565b6000613b64602183612bc9565b9150613b6f82613b08565b604082019050919050565b60006020820190508181036000830152613b9381613b57565b9050919050565b7f45524332303a206275726e20616d6f756e7420657863656564732062616c616e60008201527f6365000000000000000000000000000000000000000000000000000000000000602082015250565b6000613bf6602283612bc9565b9150613c0182613b9a565b604082019050919050565b60006020820190508181036000830152613c2581613be9565b9050919050565b7f45524332303a20696e73756666696369656e7420616c6c6f77616e6365000000600082015250565b6000613c62601d83612bc9565b9150613c6d82613c2c565b602082019050919050565b60006020820190508181036000830152613c9181613c55565b9050919050565b7f45524332303a207472616e736665722066726f6d20746865207a65726f20616460008201527f6472657373000000000000000000000000000000000000000000000000000000602082015250565b6000613cf4602583612bc9565b9150613cff82613c98565b604082019050919050565b60006020820190508181036000830152613d2381613ce7565b9050919050565b7f45524332303a207472616e7366657220746f20746865207a65726f206164647260008201527f6573730000000000000000000000000000000000000000000000000000000000602082015250565b6000613d86602383612bc9565b9150613d9182613d2a565b604082019050919050565b60006020820190508181036000830152613db581613d79565b9050919050565b7f45524332303a207472616e7366657220616d6f756e742065786365656473206260008201527f616c616e63650000000000000000000000000000000000000000000000000000602082015250565b6000613e18602683612bc9565b9150613e2382613dbc565b604082019050919050565b60006020820190508181036000830152613e4781613e0b565b9050919050565b6000606082019050613e636000830186613034565b613e706020830185613034565b613e7d6040830184612e6a565b949350505050565b7f45524332303a206d696e7420746f20746865207a65726f206164647265737300600082015250565b6000613ebb601f83612bc9565b9150613ec682613e85565b602082019050919050565b60006020820190508181036000830152613eea81613eae565b9050919050565b6000604082019050613f066000830185613034565b613f136020830184613034565b9392505050565b7f6d75737420617070726f766520746f207370656e640000000000000000000000600082015250565b6000613f50601583612bc9565b9150613f5b82613f1a565b602082019050919050565b60006020820190508181036000830152613f7f81613f43565b9050919050565b7f6e65656420746f20617070726f76650000000000000000000000000000000000600082015250565b6000613fbc600f83612bc9565b9150613fc782613f86565b602082019050919050565b60006020820190508181036000830152613feb81613faf565b9050919050565b7f5361666545524332303a204552433230206f7065726174696f6e20646964206e60008201527f6f74207375636365656400000000000000000000000000000000000000000000602082015250565b600061404e602a83612bc9565b915061405982613ff2565b604082019050919050565b6000602082019050818103600083015261407d81614041565b9050919050565b600069ffffffffffffffffffff82169050919050565b6140a381614084565b81146140ae57600080fd5b50565b6000815190506140c08161409a565b92915050565b6000819050919050565b6140d9816140c6565b81146140e457600080fd5b50565b6000815190506140f6816140d0565b92915050565b600080600080600060a0868803121561411857614117612c79565b5b6000614126888289016140b1565b9550506020614137888289016140e7565b945050604061414888828901613804565b935050606061415988828901613804565b925050608061416a888289016140b1565b9150509295509295909350565b6000614182826140c6565b915061418d836140c6565b9250827f7fffffffffffffffffffffffffffffffffffffffffffffffffffffffffffffff04821160008413600084131616156141cc576141cb61330e565b5b817f800000000000000000000000000000000000000000000000000000000000000005831260008412600084131616156142095761420861330e565b5b827f800000000000000000000000000000000000000000000000000000000000000005821260008413600084121616156142465761424561330e565b5b827f7fffffffffffffffffffffffffffffffffffffffffffffffffffffffffffffff05821260008412600084121616156142835761428261330e565b5b828202905092915050565b7f416464726573733a20696e73756666696369656e742062616c616e636520666f60008201527f722063616c6c0000000000000000000000000000000000000000000000000000602082015250565b60006142ea602683612bc9565b91506142f58261428e565b604082019050919050565b60006020820190508181036000830152614319816142dd565b9050919050565b600081519050919050565b600081905092915050565b600061434182614320565b61434b818561432b565b935061435b818560208601612bda565b80840191505092915050565b60006143738284614336565b915081905092915050565b7f416464726573733a2063616c6c20746f206e6f6e2d636f6e7472616374000000600082015250565b60006143b4601d83612bc9565b91506143bf8261437e565b602082019050919050565b600060208201905081810360008301526143e3816143a7565b905091905056fea2646970667358221220c2c4c83af7b720abd0b84a24b30154e3d04d511fc4db21397e5c24c63515e38764736f6c63430008090033",
"linkReferences": {},
"deployedLinkReferences": {}
}