{
"_format": "hh-sol-artifact-1",
"contractName": "LendPool",
"sourceName": "contracts/LendPool.sol",
"abi": [
{
"inputs": [
{
"internalType": "contract IERC20",
"name": "_maticContractAddress",
"type": "address"
}
],
"stateMutability": "nonpayable",
"type": "constructor"
},
{
"inputs": [
{
"internalType": "string",
"name": "",
"type": "string"
}
],
"name": "amountExceeded",
"type": "error"
},
{
"inputs": [
{
"internalType": "string",
"name": "",
"type": "string"
}
],
"name": "mustApprove",
"type": "error"
},
{
"inputs": [
{
"internalType": "string",
"name": "",
"type": "string"
}
],
"name": "mustApprove",
"type": "error"
},
{
"anonymous": false,
"inputs": [
{
"indexed": true,
"internalType": "address",
"name": "owner",
"type": "address"
},
{
"indexed": true,
"internalType": "address",
"name": "spender",
"type": "address"
},
{
"indexed": false,
"internalType": "uint256",
"name": "value",
"type": "uint256"
}
],
"name": "Approval",
"type": "event"
},
{
"anonymous": false,
"inputs": [
{
"indexed": false,
"internalType": "uint256",
"name": "_amountToBorrow",
"type": "uint256"
},
{
"indexed": false,
"internalType": "uint256",
"name": "_loanCompleteTime",
"type": "uint256"
},
{
"indexed": false,
"internalType": "uint256",
"name": "_amountToRepay",
"type": "uint256"
},
{
"indexed": false,
"internalType": "uint256",
"name": "_tokenId",
"type": "uint256"
}
],
"name": "Borrow",
"type": "event"
},
{
"anonymous": false,
"inputs": [
{
"indexed": true,
"internalType": "address",
"name": "previousOwner",
"type": "address"
},
{
"indexed": true,
"internalType": "address",
"name": "newOwner",
"type": "address"
}
],
"name": "OwnershipTransferred",
"type": "event"
},
{
"anonymous": false,
"inputs": [
{
"indexed": true,
"internalType": "address",
"name": "from",
"type": "address"
},
{
"indexed": true,
"internalType": "address",
"name": "to",
"type": "address"
},
{
"indexed": false,
"internalType": "uint256",
"name": "value",
"type": "uint256"
}
],
"name": "Transfer",
"type": "event"
},
{
"inputs": [],
"name": "FACTOR",
"outputs": [
{
"internalType": "uint256",
"name": "",
"type": "uint256"
}
],
"stateMutability": "view",
"type": "function"
},
{
"inputs": [
{
"internalType": "address",
"name": "",
"type": "address"
}
],
"name": "Loans",
"outputs": [
{
"internalType": "contract IERC721",
"name": "tokenAddress",
"type": "address"
},
{
"internalType": "uint256",
"name": "tokenId",
"type": "uint256"
},
{
"internalType": "uint256",
"name": "loanAmount",
"type": "uint256"
},
{
"internalType": "uint256",
"name": "loanCompleteTime",
"type": "uint256"
},
{
"internalType": "uint256",
"name": "amountToRepay",
"type": "uint256"
},
{
"internalType": "uint256",
"name": "timeOfLoan",
"type": "uint256"
},
{
"internalType": "bool",
"name": "_onLoan",
"type": "bool"
}
],
"stateMutability": "view",
"type": "function"
},
{
"inputs": [],
"name": "TokenDecimals",
"outputs": [
{
"internalType": "uint8",
"name": "",
"type": "uint8"
}
],
"stateMutability": "view",
"type": "function"
},
{
"inputs": [],
"name": "TokenName",
"outputs": [
{
"internalType": "string",
"name": "",
"type": "string"
}
],
"stateMutability": "view",
"type": "function"
},
{
"inputs": [],
"name": "TokenSymbol",
"outputs": [
{
"internalType": "string",
"name": "",
"type": "string"
}
],
"stateMutability": "view",
"type": "function"
},
{
"inputs": [
{
"internalType": "contract AggregatorV3Interface",
"name": "nftFloorPriceFeed",
"type": "address"
}
],
"name": "_amountLoanable",
"outputs": [
{
"internalType": "uint256",
"name": "loanable",
"type": "uint256"
}
],
"stateMutability": "view",
"type": "function"
},
{
"inputs": [
{
"internalType": "address",
"name": "owner",
"type": "address"
},
{
"internalType": "address",
"name": "spender",
"type": "address"
}
],
"name": "allowance",
"outputs": [
{
"internalType": "uint256",
"name": "",
"type": "uint256"
}
],
"stateMutability": "view",
"type": "function"
},
{
"inputs": [],
"name": "amountForLiquidity",
"outputs": [
{
"internalType": "uint256",
"name": "",
"type": "uint256"
}
],
"stateMutability": "view",
"type": "function"
},
{
"inputs": [
{
"internalType": "address",
"name": "spender",
"type": "address"
},
{
"internalType": "uint256",
"name": "amount",
"type": "uint256"
}
],
"name": "approve",
"outputs": [
{
"internalType": "bool",
"name": "",
"type": "bool"
}
],
"stateMutability": "nonpayable",
"type": "function"
},
{
"inputs": [
{
"internalType": "contract IERC721",
"name": "_nftContractAddress",
"type": "address"
}
],
"name": "availableToBorrow",
"outputs": [
{
"internalType": "uint256",
"name": "loanable",
"type": "uint256"
}
],
"stateMutability": "view",
"type": "function"
},
{
"inputs": [
{
"internalType": "address",
"name": "account",
"type": "address"
}
],
"name": "balanceOf",
"outputs": [
{
"internalType": "uint256",
"name": "",
"type": "uint256"
}
],
"stateMutability": "view",
"type": "function"
},
{
"inputs": [
{
"internalType": "address",
"name": "_addr",
"type": "address"
}
],
"name": "balanceOfBMatic",
"outputs": [
{
"internalType": "uint256",
"name": "",
"type": "uint256"
}
],
"stateMutability": "view",
"type": "function"
},
{
"inputs": [
{
"internalType": "contract IERC721",
"name": "_tokenAddress",
"type": "address"
},
{
"internalType": "uint256",
"name": "_tokenId",
"type": "uint256"
},
{
"internalType": "uint256",
"name": "_loanCompleteTime",
"type": "uint256"
},
{
"internalType": "uint256",
"name": "_amountToBorrow",
"type": "uint256"
}
],
"name": "borrowLoan",
"outputs": [
{
"internalType": "uint256",
"name": "",
"type": "uint256"
}
],
"stateMutability": "nonpayable",
"type": "function"
},
{
"inputs": [],
"name": "decimals",
"outputs": [
{
"internalType": "uint8",
"name": "",
"type": "uint8"
}
],
"stateMutability": "view",
"type": "function"
},
{
"inputs": [
{
"internalType": "address",
"name": "spender",
"type": "address"
},
{
"internalType": "uint256",
"name": "subtractedValue",
"type": "uint256"
}
],
"name": "decreaseAllowance",
"outputs": [
{
"internalType": "bool",
"name": "",
"type": "bool"
}
],
"stateMutability": "nonpayable",
"type": "function"
},
{
"inputs": [
{
"internalType": "address",
"name": "account",
"type": "address"
},
{
"internalType": "uint256",
"name": "amount",
"type": "uint256"
}
],
"name": "depositFor",
"outputs": [
{
"internalType": "bool",
"name": "",
"type": "bool"
}
],
"stateMutability": "nonpayable",
"type": "function"
},
{
"inputs": [
{
"internalType": "address",
"name": "spender",
"type": "address"
},
{
"internalType": "uint256",
"name": "addedValue",
"type": "uint256"
}
],
"name": "increaseAllowance",
"outputs": [
{
"internalType": "bool",
"name": "",
"type": "bool"
}
],
"stateMutability": "nonpayable",
"type": "function"
},
{
"inputs": [],
"name": "interestRate",
"outputs": [
{
"internalType": "uint40",
"name": "",
"type": "uint40"
}
],
"stateMutability": "view",
"type": "function"
},
{
"inputs": [],
"name": "maticContractAddress",
"outputs": [
{
"internalType": "contract IERC20",
"name": "",
"type": "address"
}
],
"stateMutability": "view",
"type": "function"
},
{
"inputs": [],
"name": "minRate",
"outputs": [
{
"internalType": "uint256",
"name": "",
"type": "uint256"
}
],
"stateMutability": "view",
"type": "function"
},
{
"inputs": [
{
"internalType": "address",
"name": "_receiver",
"type": "address"
},
{
"internalType": "address",
"name": "_tokenContractAddress",
"type": "address"
},
{
"internalType": "uint256",
"name": "_amount",
"type": "uint256"
}
],
"name": "movingGeneric",
"outputs": [],
"stateMutability": "nonpayable",
"type": "function"
},
{
"inputs": [],
"name": "name",
"outputs": [
{
"internalType": "string",
"name": "",
"type": "string"
}
],
"stateMutability": "view",
"type": "function"
},
{
"inputs": [],
"name": "owner",
"outputs": [
{
"internalType": "address",
"name": "",
"type": "address"
}
],
"stateMutability": "view",
"type": "function"
},
{
"inputs": [],
"name": "renounceOwnership",
"outputs": [],
"stateMutability": "nonpayable",
"type": "function"
},
{
"inputs": [],
"name": "repayLoan",
"outputs": [],
"stateMutability": "nonpayable",
"type": "function"
},
{
"inputs": [
{
"internalType": "uint40",
"name": "_interestRate",
"type": "uint40"
},
{
"internalType": "uint256",
"name": "_factor",
"type": "uint256"
}
],
"name": "setInterestRate",
"outputs": [],
"stateMutability": "nonpayable",
"type": "function"
},
{
"inputs": [
{
"internalType": "contract IERC721",
"name": "_nftContractAddress",
"type": "address"
},
{
"internalType": "uint256",
"name": "_amount",
"type": "uint256"
}
],
"name": "setNFTFloorPrice",
"outputs": [],
"stateMutability": "nonpayable",
"type": "function"
},
{
"inputs": [
{
"internalType": "contract IERC721",
"name": "_NFTAddress",
"type": "address"
}
],
"name": "setSupportedNFT",
"outputs": [],
"stateMutability": "nonpayable",
"type": "function"
},
{
"inputs": [],
"name": "symbol",
"outputs": [
{
"internalType": "string",
"name": "",
"type": "string"
}
],
"stateMutability": "view",
"type": "function"
},
{
"inputs": [],
"name": "totalAmountBorrowed",
"outputs": [
{
"internalType": "uint256",
"name": "",
"type": "uint256"
}
],
"stateMutability": "view",
"type": "function"
},
{
"inputs": [],
"name": "totalSupply",
"outputs": [
{
"internalType": "uint256",
"name": "",
"type": "uint256"
}
],
"stateMutability": "view",
"type": "function"
},
{
"inputs": [
{
"internalType": "address",
"name": "to",
"type": "address"
},
{
"internalType": "uint256",
"name": "amount",
"type": "uint256"
}
],
"name": "transfer",
"outputs": [
{
"internalType": "bool",
"name": "",
"type": "bool"
}
],
"stateMutability": "nonpayable",
"type": "function"
},
{
"inputs": [
{
"internalType": "address",
"name": "from",
"type": "address"
},
{
"internalType": "address",
"name": "to",
"type": "address"
},
{
"internalType": "uint256",
"name": "amount",
"type": "uint256"
}
],
"name": "transferFrom",
"outputs": [
{
"internalType": "bool",
"name": "",
"type": "bool"
}
],
"stateMutability": "nonpayable",
"type": "function"
},
{
"inputs": [
{
"internalType": "address",
"name": "newOwner",
"type": "address"
}
],
"name": "transferOwnership",
"outputs": [],
"stateMutability": "nonpayable",
"type": "function"
},
{
"inputs": [],
"name": "underlying",
"outputs": [
{
"internalType": "contract IERC20",
"name": "",
"type": "address"
}
],
"stateMutability": "view",
"type": "function"
},
{
"inputs": [
{
"internalType": "address",
"name": "_newAdmin",
"type": "address"
}
],
"name": "updateAdmin",
"outputs": [],
"stateMutability": "nonpayable",
"type": "function"
},
{
"inputs": [],
"name": "valueInReserve",
"outputs": [
{
"internalType": "uint256",
"name": "",
"type": "uint256"
}
],
"stateMutability": "view",
"type": "function"
},
{
"inputs": [
{
"internalType": "address",
"name": "account",
"type": "address"
},
{
"internalType": "uint256",
"name": "amount",
"type": "uint256"
}
],
"name": "withdrawTo",
"outputs": [
{
"internalType": "bool",
"name": "",
"type": "bool"
}
],
"stateMutability": "nonpayable",
"type": "function"
}
],
"bytecode": "0x60c060405260326008553480156200001657600080fd5b50604051620042c9380380620042c983398181016040528101906200003c9190620003c0565b80816040518060400160405280600d81526020017f4465706f736974204d61746963000000000000000000000000000000000000008152506040518060400160405280600681526020017f444d6174696300000000000000000000000000000000000000000000000000008152508160039080519060200190620000c292919062000292565b508060049080519060200190620000db92919062000292565b5050508073ffffffffffffffffffffffffffffffffffffffff1660808173ffffffffffffffffffffffffffffffffffffffff1681525050506200013362000127620001c460201b60201c565b620001cc60201b60201c565b8073ffffffffffffffffffffffffffffffffffffffff1660a08173ffffffffffffffffffffffffffffffffffffffff16815250505073d4a33860578de61dbabdc8bfdb98fd742fa7028e600760006101000a81548173ffffffffffffffffffffffffffffffffffffffff021916908373ffffffffffffffffffffffffffffffffffffffff1602179055505062000457565b600033905090565b6000600560009054906101000a900473ffffffffffffffffffffffffffffffffffffffff16905081600560006101000a81548173ffffffffffffffffffffffffffffffffffffffff021916908373ffffffffffffffffffffffffffffffffffffffff1602179055508173ffffffffffffffffffffffffffffffffffffffff168173ffffffffffffffffffffffffffffffffffffffff167f8be0079c531659141344cd1fd0a4f28419497f9722a3daafe3b4186f6b6457e060405160405180910390a35050565b828054620002a09062000421565b90600052602060002090601f016020900481019282620002c4576000855562000310565b82601f10620002df57805160ff191683800117855562000310565b8280016001018555821562000310579182015b828111156200030f578251825591602001919060010190620002f2565b5b5090506200031f919062000323565b5090565b5b808211156200033e57600081600090555060010162000324565b5090565b600080fd5b600073ffffffffffffffffffffffffffffffffffffffff82169050919050565b6000620003748262000347565b9050919050565b6000620003888262000367565b9050919050565b6200039a816200037b565b8114620003a657600080fd5b50565b600081519050620003ba816200038f565b92915050565b600060208284031215620003d957620003d862000342565b5b6000620003e984828501620003a9565b91505092915050565b7f4e487b7100000000000000000000000000000000000000000000000000000000600052602260045260246000fd5b600060028204905060018216806200043a57607f821691505b60208210811415620004515762000450620003f2565b5b50919050565b60805160a051613e306200049960003960008181610d7401526111ac015260008181610918015281816109e501528181610a2b0152610be50152613e306000f3fe608060405234801561001057600080fd5b50600436106102315760003560e01c8063735b191511610130578063a925e4a4116100b8578063e2f273bd1161007c578063e2f273bd146106ea578063f27cb27014610706578063f2fde38b14610736578063f317dba514610752578063f966ade71461076e57610231565b8063a925e4a414610618578063ab600f1a1461064e578063b6d7855a1461067e578063db555a921461069c578063dd62ed3e146106ba57610231565b806395d89b41116100ff57806395d89b411461055e5780639cd7756f1461057c578063a40e3c9d1461059a578063a457c2d7146105b8578063a9059cbb146105e857610231565b8063735b1915146104e85780637c3a00fd146105065780638da5cb5b1461052457806394784ebb1461054257610231565b80632c38199e116101be5780633f890e00116101825780633f890e001461044457806345bcfbee146104745780636f307dc31461049057806370a08231146104ae578063715018a6146104de57610231565b80632c38199e146103785780632f4f21e2146103a8578063313ce567146103d857806335815b95146103f6578063395093511461041457610231565b8063095ea7b311610205578063095ea7b3146102ac5780630cb60443146102dc57806318160ddd146102fa578063205c28781461031857806323b872dd1461034857610231565b8062c8fbd41461023657806304a158f61461025457806306fdde03146102705780630910d1b01461028e575b600080fd5b61023e610778565b60405161024b9190612707565b60405180910390f35b61026e6004803603810190610269919061279e565b6107b1565b005b610278610836565b6040516102859190612707565b60405180910390f35b6102966108c8565b6040516102a391906127e7565b60405180910390f35b6102c660048036038101906102c19190612864565b6108cd565b6040516102d391906128bf565b60405180910390f35b6102e46108f0565b6040516102f191906128e9565b60405180910390f35b6103026108f6565b60405161030f91906128e9565b60405180910390f35b610332600480360381019061032d9190612864565b610900565b60405161033f91906128bf565b60405180910390f35b610362600480360381019061035d9190612904565b610948565b60405161036f91906128bf565b60405180910390f35b610392600480360381019061038d919061279e565b610977565b60405161039f91906128e9565b60405180910390f35b6103c260048036038101906103bd9190612864565b6109de565b6040516103cf91906128bf565b60405180910390f35b6103e0610a27565b6040516103ed91906127e7565b60405180910390f35b6103fe610adb565b60405161040b91906128e9565b60405180910390f35b61042e60048036038101906104299190612864565b610ae1565b60405161043b91906128bf565b60405180910390f35b61045e60048036038101906104599190612995565b610b18565b60405161046b91906128e9565b60405180910390f35b61048e60048036038101906104899190612904565b610b48565b005b610498610be3565b6040516104a59190612a21565b60405180910390f35b6104c860048036038101906104c39190612a3c565b610c07565b6040516104d591906128e9565b60405180910390f35b6104e6610c4f565b005b6104f0610c63565b6040516104fd91906128e9565b60405180910390f35b61050e610c69565b60405161051b9190612a89565b60405180910390f35b61052c610c80565b6040516105399190612ab3565b60405180910390f35b61055c60048036038101906105579190612afa565b610caa565b005b610566610ce0565b6040516105739190612707565b60405180910390f35b610584610d72565b6040516105919190612a21565b60405180910390f35b6105a2610d96565b6040516105af91906128e9565b60405180910390f35b6105d260048036038101906105cd9190612864565b610d9c565b6040516105df91906128bf565b60405180910390f35b61060260048036038101906105fd9190612864565b610e13565b60405161060f91906128bf565b60405180910390f35b610632600480360381019061062d9190612a3c565b610e36565b6040516106459796959493929190612b5b565b60405180910390f35b61066860048036038101906106639190612bca565b610ea5565b60405161067591906128e9565b60405180910390f35b61068661116f565b6040516106939190612707565b60405180910390f35b6106a46111a8565b6040516106b191906128e9565b60405180910390f35b6106d460048036038101906106cf9190612c31565b611258565b6040516106e191906128e9565b60405180910390f35b61070460048036038101906106ff9190612a3c565b6112df565b005b610720600480360381019061071b9190612a3c565b6112f3565b60405161072d91906128e9565b60405180910390f35b610750600480360381019061074b9190612a3c565b61133c565b005b61076c60048036038101906107679190612c71565b6113c0565b005b610776611410565b005b6040518060400160405280600681526020017f424d61746963000000000000000000000000000000000000000000000000000081525081565b6107b9611510565b6107c28161158e565b156107d0576107cf612cb1565b5b600b819080600181540180825580915050600190039060005260206000200160009091909190916101000a81548173ffffffffffffffffffffffffffffffffffffffff021916908373ffffffffffffffffffffffffffffffffffffffff16021790555050565b60606003805461084590612d0f565b80601f016020809104026020016040519081016040528092919081815260200182805461087190612d0f565b80156108be5780601f10610893576101008083540402835291602001916108be565b820191906000526020600020905b8154815290600101906020018083116108a157829003601f168201915b5050505050905090565b601281565b6000806108d861163c565b90506108e5818585611644565b600191505092915050565b60085481565b6000600254905090565b600061091361090d61163c565b8361180f565b61093e7f000000000000000000000000000000000000000000000000000000000000000084846119dd565b6001905092915050565b60008061095361163c565b9050610960858285611a63565b61096b858585611aef565b60019150509392505050565b600080600660008473ffffffffffffffffffffffffffffffffffffffff1673ffffffffffffffffffffffffffffffffffffffff1681526020019081526020016000205490506064600854826109cc9190612d70565b6109d69190612df9565b915050919050565b6000610a137f0000000000000000000000000000000000000000000000000000000000000000610a0c61163c565b3085611d67565b610a1d8383611df0565b6001905092915050565b60007f000000000000000000000000000000000000000000000000000000000000000073ffffffffffffffffffffffffffffffffffffffff1663313ce5676040518163ffffffff1660e01b815260040160206040518083038186803b158015610a8f57600080fd5b505afa925050508015610ac057506040513d601f19601f82011682018060405250810190610abd9190612e56565b60015b610ad357610acc611f47565b9050610ad8565b809150505b90565b600d5481565b600080610aec61163c565b9050610b0d818585610afe8589611258565b610b089190612e83565b611644565b600191505092915050565b600080610b2483611f50565b9050606460085482610b369190612d70565b610b409190612df9565b915050919050565b610b50611510565b8173ffffffffffffffffffffffffffffffffffffffff1663a9059cbb84836040518363ffffffff1660e01b8152600401610b8b929190612ed9565b602060405180830381600087803b158015610ba557600080fd5b505af1158015610bb9573d6000803e3d6000fd5b505050506040513d601f19601f82011682018060405250810190610bdd9190612f2e565b50505050565b7f000000000000000000000000000000000000000000000000000000000000000081565b60008060008373ffffffffffffffffffffffffffffffffffffffff1673ffffffffffffffffffffffffffffffffffffffff168152602001908152602001600020549050919050565b610c57611510565b610c616000611f92565b565b600e5481565b600c60009054906101000a900464ffffffffff1681565b6000600560009054906101000a900473ffffffffffffffffffffffffffffffffffffffff16905090565b610cb2611510565b81600c60006101000a81548164ffffffffff021916908364ffffffffff16021790555080600d819055505050565b606060048054610cef90612d0f565b80601f0160208091040260200160405190810160405280929190818152602001828054610d1b90612d0f565b8015610d685780601f10610d3d57610100808354040283529160200191610d68565b820191906000526020600020905b815481529060010190602001808311610d4b57829003601f168201915b5050505050905090565b7f000000000000000000000000000000000000000000000000000000000000000081565b600f5481565b600080610da761163c565b90506000610db58286611258565b905083811015610dfa576040517f08c379a0000000000000000000000000000000000000000000000000000000008152600401610df190612fcd565b60405180910390fd5b610e078286868403611644565b60019250505092915050565b600080610e1e61163c565b9050610e2b818585611aef565b600191505092915050565b600a6020528060005260406000206000915090508060000160009054906101000a900473ffffffffffffffffffffffffffffffffffffffff16908060010154908060020154908060030154908060040154908060050154908060060160009054906101000a900460ff16905087565b600080600a60003373ffffffffffffffffffffffffffffffffffffffff1673ffffffffffffffffffffffffffffffffffffffff16815260200190815260200160002090508060060160009054906101000a900460ff1615610f3b576040517f08c379a0000000000000000000000000000000000000000000000000000000008152600401610f3290613039565b60405180910390fd5b62278d006201518085610f4e9190612d70565b10610f8e576040517f08c379a0000000000000000000000000000000000000000000000000000000008152600401610f85906130cb565b60405180910390fd5b426201518085610f9e9190612d70565b11610fac57610fab612cb1565b5b610fb58661158e565b610ff4576040517f08c379a0000000000000000000000000000000000000000000000000000000008152600401610feb90613137565b60405180910390fd5b610ffd86610977565b83111561103f576040517fdd910b53000000000000000000000000000000000000000000000000000000008152600401611036906131a3565b60405180910390fd5b858160000160006101000a81548173ffffffffffffffffffffffffffffffffffffffff021916908373ffffffffffffffffffffffffffffffffffffffff16021790555084816001018190555082816002018190555062015180846110a39190612d70565b816003018190555042816005018190555060006110c1848642612058565b9050600081856110d19190612e83565b90508083600401819055506110e733888a6120b1565b6110f133866121fc565b60018360060160006101000a81548160ff02191690831515021790555084600e60008282546111209190612e83565b925050819055507ffc2baa24cbbf617bfa430e509fa2184b87665b3272db852e583b677125dfc3cb8587834260405161115c94939291906131c3565b60405180910390a1505050949350505050565b6040518060400160405280600e81526020017f426f72726f776572204d6174696300000000000000000000000000000000000081525081565b60007f000000000000000000000000000000000000000000000000000000000000000073ffffffffffffffffffffffffffffffffffffffff166370a08231306040518263ffffffff1660e01b81526004016112039190612ab3565b60206040518083038186803b15801561121b57600080fd5b505afa15801561122f573d6000803e3d6000fd5b505050506040513d601f19601f82011682018060405250810190611253919061321d565b905090565b6000600160008473ffffffffffffffffffffffffffffffffffffffff1673ffffffffffffffffffffffffffffffffffffffff16815260200190815260200160002060008373ffffffffffffffffffffffffffffffffffffffff1673ffffffffffffffffffffffffffffffffffffffff16815260200190815260200160002054905092915050565b6112e7611510565b6112f08161133c565b50565b6000600960008373ffffffffffffffffffffffffffffffffffffffff1673ffffffffffffffffffffffffffffffffffffffff168152602001908152602001600020549050919050565b611344611510565b600073ffffffffffffffffffffffffffffffffffffffff168173ffffffffffffffffffffffffffffffffffffffff1614156113b4576040517f08c379a00000000000000000000000000000000000000000000000000000000081526004016113ab906132bc565b60405180910390fd5b6113bd81611f92565b50565b6113c8611510565b80600660008473ffffffffffffffffffffffffffffffffffffffff1673ffffffffffffffffffffffffffffffffffffffff168152602001908152602001600020819055505050565b6000600a60003373ffffffffffffffffffffffffffffffffffffffff1673ffffffffffffffffffffffffffffffffffffffff16815260200190815260200160002090508060060160009054906101000a900460ff166114a4576040517f08c379a000000000000000000000000000000000000000000000000000000000815260040161149b90613328565b60405180910390fd5b6114d73382600101548360000160009054906101000a900473ffffffffffffffffffffffffffffffffffffffff1661220b565b60008160060160006101000a81548160ff02191690831515021790555060008160020154826004015461150a9190613348565b90505050565b61151861163c565b73ffffffffffffffffffffffffffffffffffffffff16611536610c80565b73ffffffffffffffffffffffffffffffffffffffff161461158c576040517f08c379a0000000000000000000000000000000000000000000000000000000008152600401611583906133c8565b60405180910390fd5b565b600080600090505b600b80549050811015611636578273ffffffffffffffffffffffffffffffffffffffff16600b82815481106115ce576115cd6133e8565b5b9060005260206000200160009054906101000a900473ffffffffffffffffffffffffffffffffffffffff1673ffffffffffffffffffffffffffffffffffffffff16141561161e5760019150611623565b600091505b808061162e90613417565b915050611596565b50919050565b600033905090565b600073ffffffffffffffffffffffffffffffffffffffff168373ffffffffffffffffffffffffffffffffffffffff1614156116b4576040517f08c379a00000000000000000000000000000000000000000000000000000000081526004016116ab906134d2565b60405180910390fd5b600073ffffffffffffffffffffffffffffffffffffffff168273ffffffffffffffffffffffffffffffffffffffff161415611724576040517f08c379a000000000000000000000000000000000000000000000000000000000815260040161171b90613564565b60405180910390fd5b80600160008573ffffffffffffffffffffffffffffffffffffffff1673ffffffffffffffffffffffffffffffffffffffff16815260200190815260200160002060008473ffffffffffffffffffffffffffffffffffffffff1673ffffffffffffffffffffffffffffffffffffffff168152602001908152602001600020819055508173ffffffffffffffffffffffffffffffffffffffff168373ffffffffffffffffffffffffffffffffffffffff167f8c5be1e5ebec7d5bd14f71427d1e84f3dd0314c0f7b2291e5b200ac8c7c3b9258360405161180291906128e9565b60405180910390a3505050565b600073ffffffffffffffffffffffffffffffffffffffff168273ffffffffffffffffffffffffffffffffffffffff16141561187f576040517f08c379a0000000000000000000000000000000000000000000000000000000008152600401611876906135f6565b60405180910390fd5b61188b8260008361227f565b60008060008473ffffffffffffffffffffffffffffffffffffffff1673ffffffffffffffffffffffffffffffffffffffff16815260200190815260200160002054905081811015611911576040517f08c379a000000000000000000000000000000000000000000000000000000000815260040161190890613688565b60405180910390fd5b8181036000808573ffffffffffffffffffffffffffffffffffffffff1673ffffffffffffffffffffffffffffffffffffffff1681526020019081526020016000208190555081600260008282540392505081905550600073ffffffffffffffffffffffffffffffffffffffff168373ffffffffffffffffffffffffffffffffffffffff167fddf252ad1be2c89b69c2b068fc378daa952ba7f163c4a11628f55a4df523b3ef846040516119c491906128e9565b60405180910390a36119d883600084612284565b505050565b611a5e8363a9059cbb60e01b84846040516024016119fc929190612ed9565b604051602081830303815290604052907bffffffffffffffffffffffffffffffffffffffffffffffffffffffff19166020820180517bffffffffffffffffffffffffffffffffffffffffffffffffffffffff8381831617835250505050612289565b505050565b6000611a6f8484611258565b90507fffffffffffffffffffffffffffffffffffffffffffffffffffffffffffffffff8114611ae95781811015611adb576040517f08c379a0000000000000000000000000000000000000000000000000000000008152600401611ad2906136f4565b60405180910390fd5b611ae88484848403611644565b5b50505050565b600073ffffffffffffffffffffffffffffffffffffffff168373ffffffffffffffffffffffffffffffffffffffff161415611b5f576040517f08c379a0000000000000000000000000000000000000000000000000000000008152600401611b5690613786565b60405180910390fd5b600073ffffffffffffffffffffffffffffffffffffffff168273ffffffffffffffffffffffffffffffffffffffff161415611bcf576040517f08c379a0000000000000000000000000000000000000000000000000000000008152600401611bc690613818565b60405180910390fd5b611bda83838361227f565b60008060008573ffffffffffffffffffffffffffffffffffffffff1673ffffffffffffffffffffffffffffffffffffffff16815260200190815260200160002054905081811015611c60576040517f08c379a0000000000000000000000000000000000000000000000000000000008152600401611c57906138aa565b60405180910390fd5b8181036000808673ffffffffffffffffffffffffffffffffffffffff1673ffffffffffffffffffffffffffffffffffffffff16815260200190815260200160002081905550816000808573ffffffffffffffffffffffffffffffffffffffff1673ffffffffffffffffffffffffffffffffffffffff168152602001908152602001600020600082825401925050819055508273ffffffffffffffffffffffffffffffffffffffff168473ffffffffffffffffffffffffffffffffffffffff167fddf252ad1be2c89b69c2b068fc378daa952ba7f163c4a11628f55a4df523b3ef84604051611d4e91906128e9565b60405180910390a3611d61848484612284565b50505050565b611dea846323b872dd60e01b858585604051602401611d88939291906138ca565b604051602081830303815290604052907bffffffffffffffffffffffffffffffffffffffffffffffffffffffff19166020820180517bffffffffffffffffffffffffffffffffffffffffffffffffffffffff8381831617835250505050612289565b50505050565b600073ffffffffffffffffffffffffffffffffffffffff168273ffffffffffffffffffffffffffffffffffffffff161415611e60576040517f08c379a0000000000000000000000000000000000000000000000000000000008152600401611e579061394d565b60405180910390fd5b611e6c6000838361227f565b8060026000828254611e7e9190612e83565b92505081905550806000808473ffffffffffffffffffffffffffffffffffffffff1673ffffffffffffffffffffffffffffffffffffffff168152602001908152602001600020600082825401925050819055508173ffffffffffffffffffffffffffffffffffffffff16600073ffffffffffffffffffffffffffffffffffffffff167fddf252ad1be2c89b69c2b068fc378daa952ba7f163c4a11628f55a4df523b3ef83604051611f2f91906128e9565b60405180910390a3611f4360008383612284565b5050565b60006012905090565b600080611f5b612350565b90506000670de0b6b3a7640000611f7185612410565b83611f7c9190612d70565b611f869190612df9565b90508092505050919050565b6000600560009054906101000a900473ffffffffffffffffffffffffffffffffffffffff16905081600560006101000a81548173ffffffffffffffffffffffffffffffffffffffff021916908373ffffffffffffffffffffffffffffffffffffffff1602179055508173ffffffffffffffffffffffffffffffffffffffff168173ffffffffffffffffffffffffffffffffffffffff167f8be0079c531659141344cd1fd0a4f28419497f9722a3daafe3b4186f6b6457e060405160405180910390a35050565b60008082846120679190613348565b9050600d5481600c60009054906101000a900464ffffffffff1664ffffffffff16876120939190612d70565b61209d9190612d70565b6120a79190612df9565b9150509392505050565b6000819050600115158173ffffffffffffffffffffffffffffffffffffffff1663e985e9c586306040518363ffffffff1660e01b81526004016120f592919061396d565b60206040518083038186803b15801561210d57600080fd5b505afa158015612121573d6000803e3d6000fd5b505050506040513d601f19601f820116820180604052508101906121459190612f2e565b151514612187576040517f9702910300000000000000000000000000000000000000000000000000000000815260040161217e906139e2565b60405180910390fd5b8073ffffffffffffffffffffffffffffffffffffffff166323b872dd8530866040518463ffffffff1660e01b81526004016121c4939291906138ca565b600060405180830381600087803b1580156121de57600080fd5b505af11580156121f2573d6000803e3d6000fd5b5050505050505050565b6122068282610e13565b505050565b8073ffffffffffffffffffffffffffffffffffffffff166323b872dd3085856040518463ffffffff1660e01b8152600401612248939291906138ca565b600060405180830381600087803b15801561226257600080fd5b505af1158015612276573d6000803e3d6000fd5b50505050505050565b505050565b505050565b60006122eb826040518060400160405280602081526020017f5361666545524332303a206c6f772d6c6576656c2063616c6c206661696c65648152508573ffffffffffffffffffffffffffffffffffffffff166124a09092919063ffffffff16565b905060008151111561234b578080602001905181019061230b9190612f2e565b61234a576040517f08c379a000000000000000000000000000000000000000000000000000000000815260040161234190613a74565b60405180910390fd5b5b505050565b600080600760009054906101000a900473ffffffffffffffffffffffffffffffffffffffff1673ffffffffffffffffffffffffffffffffffffffff1663feaf968c6040518163ffffffff1660e01b815260040160a06040518083038186803b1580156123bb57600080fd5b505afa1580156123cf573d6000803e3d6000fd5b505050506040513d601f19601f820116820180604052508101906123f39190613b0c565b5050509150506402540be4008161240a9190613b87565b91505090565b6000808273ffffffffffffffffffffffffffffffffffffffff1663feaf968c6040518163ffffffff1660e01b815260040160a06040518083038186803b15801561245957600080fd5b505afa15801561246d573d6000803e3d6000fd5b505050506040513d601f19601f820116820180604052508101906124919190613b0c565b50505091505080915050919050565b60606124af84846000856124b8565b90509392505050565b6060824710156124fd576040517f08c379a00000000000000000000000000000000000000000000000000000000081526004016124f490613d10565b60405180910390fd5b6000808673ffffffffffffffffffffffffffffffffffffffff1685876040516125269190613d77565b60006040518083038185875af1925050503d8060008114612563576040519150601f19603f3d011682016040523d82523d6000602084013e612568565b606091505b509150915061257987838387612585565b92505050949350505050565b606083156125e8576000835114156125e0576125a0856125fb565b6125df576040517f08c379a00000000000000000000000000000000000000000000000000000000081526004016125d690613dda565b60405180910390fd5b5b8290506125f3565b6125f2838361261e565b5b949350505050565b6000808273ffffffffffffffffffffffffffffffffffffffff163b119050919050565b6000825111156126315781518083602001fd5b806040517f08c379a00000000000000000000000000000000000000000000000000000000081526004016126659190612707565b60405180910390fd5b600081519050919050565b600082825260208201905092915050565b60005b838110156126a857808201518184015260208101905061268d565b838111156126b7576000848401525b50505050565b6000601f19601f8301169050919050565b60006126d98261266e565b6126e38185612679565b93506126f381856020860161268a565b6126fc816126bd565b840191505092915050565b6000602082019050818103600083015261272181846126ce565b905092915050565b600080fd5b600073ffffffffffffffffffffffffffffffffffffffff82169050919050565b60006127598261272e565b9050919050565b600061276b8261274e565b9050919050565b61277b81612760565b811461278657600080fd5b50565b60008135905061279881612772565b92915050565b6000602082840312156127b4576127b3612729565b5b60006127c284828501612789565b91505092915050565b600060ff82169050919050565b6127e1816127cb565b82525050565b60006020820190506127fc60008301846127d8565b92915050565b61280b8161274e565b811461281657600080fd5b50565b60008135905061282881612802565b92915050565b6000819050919050565b6128418161282e565b811461284c57600080fd5b50565b60008135905061285e81612838565b92915050565b6000806040838503121561287b5761287a612729565b5b600061288985828601612819565b925050602061289a8582860161284f565b9150509250929050565b60008115159050919050565b6128b9816128a4565b82525050565b60006020820190506128d460008301846128b0565b92915050565b6128e38161282e565b82525050565b60006020820190506128fe60008301846128da565b92915050565b60008060006060848603121561291d5761291c612729565b5b600061292b86828701612819565b935050602061293c86828701612819565b925050604061294d8682870161284f565b9150509250925092565b60006129628261274e565b9050919050565b61297281612957565b811461297d57600080fd5b50565b60008135905061298f81612969565b92915050565b6000602082840312156129ab576129aa612729565b5b60006129b984828501612980565b91505092915050565b6000819050919050565b60006129e76129e26129dd8461272e565b6129c2565b61272e565b9050919050565b60006129f9826129cc565b9050919050565b6000612a0b826129ee565b9050919050565b612a1b81612a00565b82525050565b6000602082019050612a366000830184612a12565b92915050565b600060208284031215612a5257612a51612729565b5b6000612a6084828501612819565b91505092915050565b600064ffffffffff82169050919050565b612a8381612a69565b82525050565b6000602082019050612a9e6000830184612a7a565b92915050565b612aad8161274e565b82525050565b6000602082019050612ac86000830184612aa4565b92915050565b612ad781612a69565b8114612ae257600080fd5b50565b600081359050612af481612ace565b92915050565b60008060408385031215612b1157612b10612729565b5b6000612b1f85828601612ae5565b9250506020612b308582860161284f565b9150509250929050565b6000612b45826129ee565b9050919050565b612b5581612b3a565b82525050565b600060e082019050612b70600083018a612b4c565b612b7d60208301896128da565b612b8a60408301886128da565b612b9760608301876128da565b612ba460808301866128da565b612bb160a08301856128da565b612bbe60c08301846128b0565b98975050505050505050565b60008060008060808587031215612be457612be3612729565b5b6000612bf287828801612789565b9450506020612c038782880161284f565b9350506040612c148782880161284f565b9250506060612c258782880161284f565b91505092959194509250565b60008060408385031215612c4857612c47612729565b5b6000612c5685828601612819565b9250506020612c6785828601612819565b9150509250929050565b60008060408385031215612c8857612c87612729565b5b6000612c9685828601612789565b9250506020612ca78582860161284f565b9150509250929050565b7f4e487b7100000000000000000000000000000000000000000000000000000000600052600160045260246000fd5b7f4e487b7100000000000000000000000000000000000000000000000000000000600052602260045260246000fd5b60006002820490506001821680612d2757607f821691505b60208210811415612d3b57612d3a612ce0565b5b50919050565b7f4e487b7100000000000000000000000000000000000000000000000000000000600052601160045260246000fd5b6000612d7b8261282e565b9150612d868361282e565b9250817fffffffffffffffffffffffffffffffffffffffffffffffffffffffffffffffff0483118215151615612dbf57612dbe612d41565b5b828202905092915050565b7f4e487b7100000000000000000000000000000000000000000000000000000000600052601260045260246000fd5b6000612e048261282e565b9150612e0f8361282e565b925082612e1f57612e1e612dca565b5b828204905092915050565b612e33816127cb565b8114612e3e57600080fd5b50565b600081519050612e5081612e2a565b92915050565b600060208284031215612e6c57612e6b612729565b5b6000612e7a84828501612e41565b91505092915050565b6000612e8e8261282e565b9150612e998361282e565b9250827fffffffffffffffffffffffffffffffffffffffffffffffffffffffffffffffff03821115612ece57612ecd612d41565b5b828201905092915050565b6000604082019050612eee6000830185612aa4565b612efb60208301846128da565b9392505050565b612f0b816128a4565b8114612f1657600080fd5b50565b600081519050612f2881612f02565b92915050565b600060208284031215612f4457612f43612729565b5b6000612f5284828501612f19565b91505092915050565b7f45524332303a2064656372656173656420616c6c6f77616e63652062656c6f7760008201527f207a65726f000000000000000000000000000000000000000000000000000000602082015250565b6000612fb7602583612679565b9150612fc282612f5b565b604082019050919050565b60006020820190508181036000830152612fe681612faa565b9050919050565b7f50617920796f7572206465627420666972737400000000000000000000000000600082015250565b6000613023601383612679565b915061302e82612fed565b602082019050919050565b6000602082019050818103600083015261305281613016565b9050919050565b7f43616e27742069737375652061206c6f616e206265796f6e642033302064617960008201527f7300000000000000000000000000000000000000000000000000000000000000602082015250565b60006130b5602183612679565b91506130c082613059565b604082019050919050565b600060208201905081810360008301526130e4816130a8565b9050919050565b7f4e4654206e6f7420737570706f72746564000000000000000000000000000000600082015250565b6000613121601183612679565b915061312c826130eb565b602082019050919050565b6000602082019050818103600083015261315081613114565b9050919050565b7f657863656564656420617661696c61626c6520746f20626f72726f7700000000600082015250565b600061318d601c83612679565b915061319882613157565b602082019050919050565b600060208201905081810360008301526131bc81613180565b9050919050565b60006080820190506131d860008301876128da565b6131e560208301866128da565b6131f260408301856128da565b6131ff60608301846128da565b95945050505050565b60008151905061321781612838565b92915050565b60006020828403121561323357613232612729565b5b600061324184828501613208565b91505092915050565b7f4f776e61626c653a206e6577206f776e657220697320746865207a65726f206160008201527f6464726573730000000000000000000000000000000000000000000000000000602082015250565b60006132a6602683612679565b91506132b18261324a565b604082019050919050565b600060208201905081810360008301526132d581613299565b9050919050565b7f596f7520646f6e2774206861766520616e79206c6f616e206176616c61626c65600082015250565b6000613312602083612679565b915061331d826132dc565b602082019050919050565b6000602082019050818103600083015261334181613305565b9050919050565b60006133538261282e565b915061335e8361282e565b92508282101561337157613370612d41565b5b828203905092915050565b7f4f776e61626c653a2063616c6c6572206973206e6f7420746865206f776e6572600082015250565b60006133b2602083612679565b91506133bd8261337c565b602082019050919050565b600060208201905081810360008301526133e1816133a5565b9050919050565b7f4e487b7100000000000000000000000000000000000000000000000000000000600052603260045260246000fd5b60006134228261282e565b91507fffffffffffffffffffffffffffffffffffffffffffffffffffffffffffffffff82141561345557613454612d41565b5b600182019050919050565b7f45524332303a20617070726f76652066726f6d20746865207a65726f2061646460008201527f7265737300000000000000000000000000000000000000000000000000000000602082015250565b60006134bc602483612679565b91506134c782613460565b604082019050919050565b600060208201905081810360008301526134eb816134af565b9050919050565b7f45524332303a20617070726f766520746f20746865207a65726f20616464726560008201527f7373000000000000000000000000000000000000000000000000000000000000602082015250565b600061354e602283612679565b9150613559826134f2565b604082019050919050565b6000602082019050818103600083015261357d81613541565b9050919050565b7f45524332303a206275726e2066726f6d20746865207a65726f2061646472657360008201527f7300000000000000000000000000000000000000000000000000000000000000602082015250565b60006135e0602183612679565b91506135eb82613584565b604082019050919050565b6000602082019050818103600083015261360f816135d3565b9050919050565b7f45524332303a206275726e20616d6f756e7420657863656564732062616c616e60008201527f6365000000000000000000000000000000000000000000000000000000000000602082015250565b6000613672602283612679565b915061367d82613616565b604082019050919050565b600060208201905081810360008301526136a181613665565b9050919050565b7f45524332303a20696e73756666696369656e7420616c6c6f77616e6365000000600082015250565b60006136de601d83612679565b91506136e9826136a8565b602082019050919050565b6000602082019050818103600083015261370d816136d1565b9050919050565b7f45524332303a207472616e736665722066726f6d20746865207a65726f20616460008201527f6472657373000000000000000000000000000000000000000000000000000000602082015250565b6000613770602583612679565b915061377b82613714565b604082019050919050565b6000602082019050818103600083015261379f81613763565b9050919050565b7f45524332303a207472616e7366657220746f20746865207a65726f206164647260008201527f6573730000000000000000000000000000000000000000000000000000000000602082015250565b6000613802602383612679565b915061380d826137a6565b604082019050919050565b60006020820190508181036000830152613831816137f5565b9050919050565b7f45524332303a207472616e7366657220616d6f756e742065786365656473206260008201527f616c616e63650000000000000000000000000000000000000000000000000000602082015250565b6000613894602683612679565b915061389f82613838565b604082019050919050565b600060208201905081810360008301526138c381613887565b9050919050565b60006060820190506138df6000830186612aa4565b6138ec6020830185612aa4565b6138f960408301846128da565b949350505050565b7f45524332303a206d696e7420746f20746865207a65726f206164647265737300600082015250565b6000613937601f83612679565b915061394282613901565b602082019050919050565b600060208201905081810360008301526139668161392a565b9050919050565b60006040820190506139826000830185612aa4565b61398f6020830184612aa4565b9392505050565b7f6d75737420617070726f766520746f207370656e640000000000000000000000600082015250565b60006139cc601583612679565b91506139d782613996565b602082019050919050565b600060208201905081810360008301526139fb816139bf565b9050919050565b7f5361666545524332303a204552433230206f7065726174696f6e20646964206e60008201527f6f74207375636365656400000000000000000000000000000000000000000000602082015250565b6000613a5e602a83612679565b9150613a6982613a02565b604082019050919050565b60006020820190508181036000830152613a8d81613a51565b9050919050565b600069ffffffffffffffffffff82169050919050565b613ab381613a94565b8114613abe57600080fd5b50565b600081519050613ad081613aaa565b92915050565b6000819050919050565b613ae981613ad6565b8114613af457600080fd5b50565b600081519050613b0681613ae0565b92915050565b600080600080600060a08688031215613b2857613b27612729565b5b6000613b3688828901613ac1565b9550506020613b4788828901613af7565b9450506040613b5888828901613208565b9350506060613b6988828901613208565b9250506080613b7a88828901613ac1565b9150509295509295909350565b6000613b9282613ad6565b9150613b9d83613ad6565b9250827f7fffffffffffffffffffffffffffffffffffffffffffffffffffffffffffffff0482116000841360008413161615613bdc57613bdb612d41565b5b817f80000000000000000000000000000000000000000000000000000000000000000583126000841260008413161615613c1957613c18612d41565b5b827f80000000000000000000000000000000000000000000000000000000000000000582126000841360008412161615613c5657613c55612d41565b5b827f7fffffffffffffffffffffffffffffffffffffffffffffffffffffffffffffff0582126000841260008412161615613c9357613c92612d41565b5b828202905092915050565b7f416464726573733a20696e73756666696369656e742062616c616e636520666f60008201527f722063616c6c0000000000000000000000000000000000000000000000000000602082015250565b6000613cfa602683612679565b9150613d0582613c9e565b604082019050919050565b60006020820190508181036000830152613d2981613ced565b9050919050565b600081519050919050565b600081905092915050565b6000613d5182613d30565b613d5b8185613d3b565b9350613d6b81856020860161268a565b80840191505092915050565b6000613d838284613d46565b915081905092915050565b7f416464726573733a2063616c6c20746f206e6f6e2d636f6e7472616374000000600082015250565b6000613dc4601d83612679565b9150613dcf82613d8e565b602082019050919050565b60006020820190508181036000830152613df381613db7565b905091905056fea2646970667358221220755f4b64e487002bd1944fca702f5ecd9a11a3d29c6fae482d50dce4c5332eba64736f6c63430008090033",
"linkReferences": {},
"deployedLinkReferences": {}
}