{
  "_format": "hh-sol-artifact-1",
  "contractName": "sampleToken",
  "sourceName": "contracts/utils/faucet.sol",
  "abi": [
    {
      "inputs": [
        {
          "internalType": "address",
          "name": "_token",
          "type": "address"
        }
      ],
      "stateMutability": "nonpayable",
      "type": "constructor"
    },
    {
      "inputs": [],
      "name": "amountAllowed",
      "outputs": [
        {
          "internalType": "uint256",
          "name": "",
          "type": "uint256"
        }
      ],
      "stateMutability": "view",
      "type": "function"
    },
    {
      "inputs": [
        {
          "internalType": "address",
          "name": "",
          "type": "address"
        }
      ],
      "name": "lockTime",
      "outputs": [
        {
          "internalType": "uint256",
          "name": "",
          "type": "uint256"
        }
      ],
      "stateMutability": "view",
      "type": "function"
    },
    {
      "inputs": [
        {
          "internalType": "address",
          "name": "requester",
          "type": "address"
        }
      ],
      "name": "requestTokens",
      "outputs": [],
      "stateMutability": "payable",
      "type": "function"
    },
    {
      "inputs": [],
      "name": "token",
      "outputs": [
        {
          "internalType": "address",
          "name": "",
          "type": "address"
        }
      ],
      "stateMutability": "view",
      "type": "function"
    }
  ],
  "bytecode": "0x608060405261271060015534801561001657600080fd5b506040516106b23803806106b2833981810160405281019061003891906100e1565b806000806101000a81548173ffffffffffffffffffffffffffffffffffffffff021916908373ffffffffffffffffffffffffffffffffffffffff1602179055505061010e565b600080fd5b600073ffffffffffffffffffffffffffffffffffffffff82169050919050565b60006100ae82610083565b9050919050565b6100be816100a3565b81146100c957600080fd5b50565b6000815190506100db816100b5565b92915050565b6000602082840312156100f7576100f661007e565b5b6000610105848285016100cc565b91505092915050565b6105958061011d6000396000f3fe60806040526004361061003f5760003560e01c8063580f3904146100445780639ad2cd1414610060578063a4beda631461008b578063fc0c546a146100c8575b600080fd5b61005e6004803603810190610059919061031e565b6100f3565b005b34801561006c57600080fd5b50610075610279565b6040516100829190610364565b60405180910390f35b34801561009757600080fd5b506100b260048036038101906100ad919061031e565b61027f565b6040516100bf9190610364565b60405180910390f35b3480156100d457600080fd5b506100dd610297565b6040516100ea919061038e565b60405180910390f35b600260003373ffffffffffffffffffffffffffffffffffffffff1673ffffffffffffffffffffffffffffffffffffffff168152602001908152602001600020544211610174576040517f08c379a000000000000000000000000000000000000000000000000000000000815260040161016b9061042c565b60405180910390fd5b60008054906101000a900473ffffffffffffffffffffffffffffffffffffffff1673ffffffffffffffffffffffffffffffffffffffff1663a9059cbb826001546040518363ffffffff1660e01b81526004016101d192919061044c565b602060405180830381600087803b1580156101eb57600080fd5b505af11580156101ff573d6000803e3d6000fd5b505050506040513d601f19601f8201168201806040525081019061022391906104ad565b5062015180426102339190610509565b600260008373ffffffffffffffffffffffffffffffffffffffff1673ffffffffffffffffffffffffffffffffffffffff1681526020019081526020016000208190555050565b60015481565b60026020528060005260406000206000915090505481565b60008054906101000a900473ffffffffffffffffffffffffffffffffffffffff1681565b600080fd5b600073ffffffffffffffffffffffffffffffffffffffff82169050919050565b60006102eb826102c0565b9050919050565b6102fb816102e0565b811461030657600080fd5b50565b600081359050610318816102f2565b92915050565b600060208284031215610334576103336102bb565b5b600061034284828501610309565b91505092915050565b6000819050919050565b61035e8161034b565b82525050565b60006020820190506103796000830184610355565b92915050565b610388816102e0565b82525050565b60006020820190506103a3600083018461037f565b92915050565b600082825260208201905092915050565b7f6c6f636b2074696d6520686173206e6f7420657870697265642e20506c65617360008201527f652074727920616761696e206c61746572000000000000000000000000000000602082015250565b60006104166031836103a9565b9150610421826103ba565b604082019050919050565b6000602082019050818103600083015261044581610409565b9050919050565b6000604082019050610461600083018561037f565b61046e6020830184610355565b9392505050565b60008115159050919050565b61048a81610475565b811461049557600080fd5b50565b6000815190506104a781610481565b92915050565b6000602082840312156104c3576104c26102bb565b5b60006104d184828501610498565b91505092915050565b7f4e487b7100000000000000000000000000000000000000000000000000000000600052601160045260246000fd5b60006105148261034b565b915061051f8361034b565b9250827fffffffffffffffffffffffffffffffffffffffffffffffffffffffffffffffff03821115610554576105536104da565b5b82820190509291505056fea2646970667358221220e7e931dcad661ebc8fed706c40d0b63186182fff0d40354abdf5128944803f8864736f6c63430008090033",
  "linkReferences": {},
  "deployedLinkReferences": {}
}